{
	"allowance.sol": {
		"AllowanceClaim": {
			"abi": [
				{
					"inputs": [
						{
							"internalType": "uint8",
							"name": "_requiredApprovals",
							"type": "uint8"
						}
					],
					"stateMutability": "nonpayable",
					"type": "constructor"
				},
				{
					"inputs": [],
					"name": "AccessControlBadConfirmation",
					"type": "error"
				},
				{
					"inputs": [
						{
							"internalType": "address",
							"name": "account",
							"type": "address"
						},
						{
							"internalType": "bytes32",
							"name": "neededRole",
							"type": "bytes32"
						}
					],
					"name": "AccessControlUnauthorizedAccount",
					"type": "error"
				},
				{
					"anonymous": false,
					"inputs": [
						{
							"indexed": false,
							"internalType": "uint256",
							"name": "applicationId",
							"type": "uint256"
						},
						{
							"indexed": false,
							"internalType": "address",
							"name": "claimant",
							"type": "address"
						},
						{
							"indexed": false,
							"internalType": "uint256",
							"name": "amount",
							"type": "uint256"
						}
					],
					"name": "AllowanceClaimed",
					"type": "event"
				},
				{
					"anonymous": false,
					"inputs": [
						{
							"indexed": false,
							"internalType": "uint256",
							"name": "applicationId",
							"type": "uint256"
						}
					],
					"name": "ApplicationApproved",
					"type": "event"
				},
				{
					"anonymous": false,
					"inputs": [
						{
							"indexed": false,
							"internalType": "uint256",
							"name": "applicationId",
							"type": "uint256"
						},
						{
							"indexed": false,
							"internalType": "address",
							"name": "signer",
							"type": "address"
						}
					],
					"name": "ApplicationSigned",
					"type": "event"
				},
				{
					"anonymous": false,
					"inputs": [
						{
							"indexed": false,
							"internalType": "uint256",
							"name": "applicationId",
							"type": "uint256"
						},
						{
							"indexed": false,
							"internalType": "address",
							"name": "applicant",
							"type": "address"
						},
						{
							"indexed": false,
							"internalType": "uint256",
							"name": "amount",
							"type": "uint256"
						}
					],
					"name": "ApplicationSubmitted",
					"type": "event"
				},
				{
					"anonymous": false,
					"inputs": [
						{
							"indexed": false,
							"internalType": "uint256",
							"name": "applicationId",
							"type": "uint256"
						}
					],
					"name": "ApplicationVerified",
					"type": "event"
				},
				{
					"anonymous": false,
					"inputs": [
						{
							"indexed": true,
							"internalType": "address",
							"name": "funder",
							"type": "address"
						},
						{
							"indexed": false,
							"internalType": "uint256",
							"name": "amount",
							"type": "uint256"
						}
					],
					"name": "Funded",
					"type": "event"
				},
				{
					"anonymous": false,
					"inputs": [
						{
							"indexed": true,
							"internalType": "bytes32",
							"name": "role",
							"type": "bytes32"
						},
						{
							"indexed": true,
							"internalType": "bytes32",
							"name": "previousAdminRole",
							"type": "bytes32"
						},
						{
							"indexed": true,
							"internalType": "bytes32",
							"name": "newAdminRole",
							"type": "bytes32"
						}
					],
					"name": "RoleAdminChanged",
					"type": "event"
				},
				{
					"anonymous": false,
					"inputs": [
						{
							"indexed": true,
							"internalType": "bytes32",
							"name": "role",
							"type": "bytes32"
						},
						{
							"indexed": true,
							"internalType": "address",
							"name": "account",
							"type": "address"
						},
						{
							"indexed": true,
							"internalType": "address",
							"name": "sender",
							"type": "address"
						}
					],
					"name": "RoleGranted",
					"type": "event"
				},
				{
					"anonymous": false,
					"inputs": [
						{
							"indexed": true,
							"internalType": "bytes32",
							"name": "role",
							"type": "bytes32"
						},
						{
							"indexed": true,
							"internalType": "address",
							"name": "account",
							"type": "address"
						},
						{
							"indexed": true,
							"internalType": "address",
							"name": "sender",
							"type": "address"
						}
					],
					"name": "RoleRevoked",
					"type": "event"
				},
				{
					"inputs": [],
					"name": "DEFAULT_ADMIN_ROLE",
					"outputs": [
						{
							"internalType": "bytes32",
							"name": "",
							"type": "bytes32"
						}
					],
					"stateMutability": "view",
					"type": "function"
				},
				{
					"inputs": [],
					"name": "applicationCount",
					"outputs": [
						{
							"internalType": "uint256",
							"name": "",
							"type": "uint256"
						}
					],
					"stateMutability": "view",
					"type": "function"
				},
				{
					"inputs": [
						{
							"internalType": "uint256",
							"name": "",
							"type": "uint256"
						}
					],
					"name": "applications",
					"outputs": [
						{
							"internalType": "address",
							"name": "applicant",
							"type": "address"
						},
						{
							"internalType": "string",
							"name": "ic",
							"type": "string"
						},
						{
							"internalType": "uint256",
							"name": "amount",
							"type": "uint256"
						},
						{
							"internalType": "bool",
							"name": "verified",
							"type": "bool"
						},
						{
							"internalType": "uint8",
							"name": "approvals",
							"type": "uint8"
						},
						{
							"internalType": "bool",
							"name": "approved",
							"type": "bool"
						},
						{
							"internalType": "bool",
							"name": "rejected",
							"type": "bool"
						},
						{
							"internalType": "bool",
							"name": "claimed",
							"type": "bool"
						}
					],
					"stateMutability": "view",
					"type": "function"
				},
				{
					"inputs": [
						{
							"internalType": "uint256",
							"name": "",
							"type": "uint256"
						},
						{
							"internalType": "address",
							"name": "",
							"type": "address"
						}
					],
					"name": "approvals",
					"outputs": [
						{
							"internalType": "bool",
							"name": "",
							"type": "bool"
						}
					],
					"stateMutability": "view",
					"type": "function"
				},
				{
					"inputs": [
						{
							"internalType": "uint256",
							"name": "applicationId",
							"type": "uint256"
						}
					],
					"name": "claimAllowance",
					"outputs": [],
					"stateMutability": "nonpayable",
					"type": "function"
				},
				{
					"inputs": [
						{
							"internalType": "uint256",
							"name": "amount",
							"type": "uint256"
						}
					],
					"name": "fundContract",
					"outputs": [],
					"stateMutability": "payable",
					"type": "function"
				},
				{
					"inputs": [],
					"name": "getBalance",
					"outputs": [
						{
							"internalType": "uint256",
							"name": "",
							"type": "uint256"
						}
					],
					"stateMutability": "view",
					"type": "function"
				},
				{
					"inputs": [
						{
							"internalType": "bytes32",
							"name": "role",
							"type": "bytes32"
						}
					],
					"name": "getRoleAdmin",
					"outputs": [
						{
							"internalType": "bytes32",
							"name": "",
							"type": "bytes32"
						}
					],
					"stateMutability": "view",
					"type": "function"
				},
				{
					"inputs": [
						{
							"internalType": "address",
							"name": "account",
							"type": "address"
						}
					],
					"name": "grantReviewerRole",
					"outputs": [],
					"stateMutability": "nonpayable",
					"type": "function"
				},
				{
					"inputs": [
						{
							"internalType": "bytes32",
							"name": "role",
							"type": "bytes32"
						},
						{
							"internalType": "address",
							"name": "account",
							"type": "address"
						}
					],
					"name": "grantRole",
					"outputs": [],
					"stateMutability": "nonpayable",
					"type": "function"
				},
				{
					"inputs": [
						{
							"internalType": "bytes32",
							"name": "role",
							"type": "bytes32"
						},
						{
							"internalType": "address",
							"name": "account",
							"type": "address"
						}
					],
					"name": "hasRole",
					"outputs": [
						{
							"internalType": "bool",
							"name": "",
							"type": "bool"
						}
					],
					"stateMutability": "view",
					"type": "function"
				},
				{
					"inputs": [
						{
							"internalType": "address",
							"name": "account",
							"type": "address"
						}
					],
					"name": "isReviewer",
					"outputs": [
						{
							"internalType": "bool",
							"name": "",
							"type": "bool"
						}
					],
					"stateMutability": "view",
					"type": "function"
				},
				{
					"inputs": [
						{
							"internalType": "bytes32",
							"name": "role",
							"type": "bytes32"
						},
						{
							"internalType": "address",
							"name": "callerConfirmation",
							"type": "address"
						}
					],
					"name": "renounceRole",
					"outputs": [],
					"stateMutability": "nonpayable",
					"type": "function"
				},
				{
					"inputs": [],
					"name": "requiredApprovals",
					"outputs": [
						{
							"internalType": "uint8",
							"name": "",
							"type": "uint8"
						}
					],
					"stateMutability": "view",
					"type": "function"
				},
				{
					"inputs": [
						{
							"internalType": "bytes32",
							"name": "role",
							"type": "bytes32"
						},
						{
							"internalType": "address",
							"name": "account",
							"type": "address"
						}
					],
					"name": "revokeRole",
					"outputs": [],
					"stateMutability": "nonpayable",
					"type": "function"
				},
				{
					"inputs": [
						{
							"internalType": "uint256",
							"name": "applicationId",
							"type": "uint256"
						}
					],
					"name": "signApplication",
					"outputs": [],
					"stateMutability": "nonpayable",
					"type": "function"
				},
				{
					"inputs": [
						{
							"internalType": "string",
							"name": "_ic",
							"type": "string"
						},
						{
							"internalType": "uint256",
							"name": "_amount",
							"type": "uint256"
						}
					],
					"name": "submitApplication",
					"outputs": [
						{
							"internalType": "uint256",
							"name": "",
							"type": "uint256"
						}
					],
					"stateMutability": "nonpayable",
					"type": "function"
				},
				{
					"inputs": [
						{
							"internalType": "bytes4",
							"name": "interfaceId",
							"type": "bytes4"
						}
					],
					"name": "supportsInterface",
					"outputs": [
						{
							"internalType": "bool",
							"name": "",
							"type": "bool"
						}
					],
					"stateMutability": "view",
					"type": "function"
				},
				{
					"inputs": [
						{
							"internalType": "uint256",
							"name": "applicationId",
							"type": "uint256"
						}
					],
					"name": "verifyApplication",
					"outputs": [],
					"stateMutability": "nonpayable",
					"type": "function"
				},
				{
					"inputs": [],
					"name": "withdraw",
					"outputs": [],
					"stateMutability": "nonpayable",
					"type": "function"
				}
			],
			"devdoc": {
				"errors": {
					"AccessControlBadConfirmation()": [
						{
							"details": "The caller of a function is not the expected one. NOTE: Don't confuse with {AccessControlUnauthorizedAccount}."
						}
					],
					"AccessControlUnauthorizedAccount(address,bytes32)": [
						{
							"details": "The `account` is missing a role."
						}
					]
				},
				"events": {
					"RoleAdminChanged(bytes32,bytes32,bytes32)": {
						"details": "Emitted when `newAdminRole` is set as ``role``'s admin role, replacing `previousAdminRole` `DEFAULT_ADMIN_ROLE` is the starting admin for all roles, despite {RoleAdminChanged} not being emitted signaling this."
					},
					"RoleGranted(bytes32,address,address)": {
						"details": "Emitted when `account` is granted `role`. `sender` is the account that originated the contract call, an admin role bearer except when using {AccessControl-_setupRole}."
					},
					"RoleRevoked(bytes32,address,address)": {
						"details": "Emitted when `account` is revoked `role`. `sender` is the account that originated the contract call:   - if using `revokeRole`, it is the admin role bearer   - if using `renounceRole`, it is the role bearer (i.e. `account`)"
					}
				},
				"kind": "dev",
				"methods": {
					"getRoleAdmin(bytes32)": {
						"details": "Returns the admin role that controls `role`. See {grantRole} and {revokeRole}. To change a role's admin, use {_setRoleAdmin}."
					},
					"grantRole(bytes32,address)": {
						"details": "Grants `role` to `account`. If `account` had not been already granted `role`, emits a {RoleGranted} event. Requirements: - the caller must have ``role``'s admin role. May emit a {RoleGranted} event."
					},
					"hasRole(bytes32,address)": {
						"details": "Returns `true` if `account` has been granted `role`."
					},
					"renounceRole(bytes32,address)": {
						"details": "Revokes `role` from the calling account. Roles are often managed via {grantRole} and {revokeRole}: this function's purpose is to provide a mechanism for accounts to lose their privileges if they are compromised (such as when a trusted device is misplaced). If the calling account had been revoked `role`, emits a {RoleRevoked} event. Requirements: - the caller must be `callerConfirmation`. May emit a {RoleRevoked} event."
					},
					"revokeRole(bytes32,address)": {
						"details": "Revokes `role` from `account`. If `account` had been granted `role`, emits a {RoleRevoked} event. Requirements: - the caller must have ``role``'s admin role. May emit a {RoleRevoked} event."
					},
					"supportsInterface(bytes4)": {
						"details": "See {IERC165-supportsInterface}."
					}
				},
				"version": 1
			},
			"evm": {
				"assembly": "    /* \"allowance.sol\":145:7802  contract AllowanceClaim is AccessControl {... */\n  mstore(0x40, 0x80)\n    /* \"allowance.sol\":2214:2582  constructor(uint8 _requiredApprovals) {... */\n  callvalue\n  dup1\n  iszero\n  tag_1\n  jumpi\n  0x00\n  dup1\n  revert\ntag_1:\n  pop\n  mload(0x40)\n  sub(codesize, bytecodeSize)\n  dup1\n  bytecodeSize\n  dup4\n  codecopy\n  dup2\n  dup2\n  add\n  0x40\n  mstore\n  dup2\n  add\n  swap1\n  tag_2\n  swap2\n  swap1\n  tag_3\n  jump\t// in\ntag_2:\n    /* \"allowance.sol\":2283:2301  _requiredApprovals */\n  dup1\n    /* \"allowance.sol\":2263:2280  requiredApprovals */\n  0x02\n  0x00\n    /* \"allowance.sol\":2263:2301  requiredApprovals = _requiredApprovals */\n  0x0100\n  exp\n  dup2\n  sload\n  dup2\n  0xff\n  mul\n  not\n  and\n  swap1\n  dup4\n  0xff\n  and\n  mul\n  or\n  swap1\n  sstore\n  pop\n    /* \"allowance.sol\":2424:2466  _grantRole(DEFAULT_ADMIN_ROLE, msg.sender) */\n  tag_6\n    /* \"@openzeppelin/contracts/access/AccessControl.sol\":2232:2236  0x00 */\n  0x00\n    /* \"allowance.sol\":2435:2453  DEFAULT_ADMIN_ROLE */\n  dup1\n  shl\n    /* \"allowance.sol\":2455:2465  msg.sender */\n  caller\n    /* \"allowance.sol\":2424:2434  _grantRole */\n  shl(0x20, tag_7)\n    /* \"allowance.sol\":2424:2466  _grantRole(DEFAULT_ADMIN_ROLE, msg.sender) */\n  0x20\n  shr\n  jump\t// in\ntag_6:\n  pop\n    /* \"allowance.sol\":2538:2574  grantRole(REVIEWER_ROLE, msg.sender) */\n  tag_8\n    /* \"allowance.sol\":315:341  keccak256(\"REVIEWER_ROLE\") */\n  0xc10c77be35aff266144ed64c26a1fa104bae2f284ae99ac4a34203454704a185\n    /* \"allowance.sol\":2563:2573  msg.sender */\n  caller\n    /* \"allowance.sol\":2538:2547  grantRole */\n  shl(0x20, tag_9)\n    /* \"allowance.sol\":2538:2574  grantRole(REVIEWER_ROLE, msg.sender) */\n  0x20\n  shr\n  jump\t// in\ntag_8:\n    /* \"allowance.sol\":2214:2582  constructor(uint8 _requiredApprovals) {... */\n  pop\n    /* \"allowance.sol\":145:7802  contract AllowanceClaim is AccessControl {... */\n  jump(tag_10)\n    /* \"@openzeppelin/contracts/access/AccessControl.sol\":6179:6495  function _grantRole(bytes32 role, address account) internal virtual returns (bool) {... */\ntag_7:\n    /* \"@openzeppelin/contracts/access/AccessControl.sol\":6256:6260  bool */\n  0x00\n    /* \"@openzeppelin/contracts/access/AccessControl.sol\":6277:6299  hasRole(role, account) */\n  tag_12\n    /* \"@openzeppelin/contracts/access/AccessControl.sol\":6285:6289  role */\n  dup4\n    /* \"@openzeppelin/contracts/access/AccessControl.sol\":6291:6298  account */\n  dup4\n    /* \"@openzeppelin/contracts/access/AccessControl.sol\":6277:6284  hasRole */\n  shl(0x20, tag_13)\n    /* \"@openzeppelin/contracts/access/AccessControl.sol\":6277:6299  hasRole(role, account) */\n  0x20\n  shr\n  jump\t// in\ntag_12:\n    /* \"@openzeppelin/contracts/access/AccessControl.sol\":6272:6489  if (!hasRole(role, account)) {... */\n  tag_14\n  jumpi\n    /* \"@openzeppelin/contracts/access/AccessControl.sol\":6347:6351  true */\n  0x01\n    /* \"@openzeppelin/contracts/access/AccessControl.sol\":6315:6321  _roles */\n  0x00\n    /* \"@openzeppelin/contracts/access/AccessControl.sol\":6315:6327  _roles[role] */\n  dup1\n    /* \"@openzeppelin/contracts/access/AccessControl.sol\":6322:6326  role */\n  dup6\n    /* \"@openzeppelin/contracts/access/AccessControl.sol\":6315:6327  _roles[role] */\n  dup2\n  mstore\n  0x20\n  add\n  swap1\n  dup2\n  mstore\n  0x20\n  add\n  0x00\n  keccak256\n    /* \"@openzeppelin/contracts/access/AccessControl.sol\":6315:6335  _roles[role].hasRole */\n  0x00\n  add\n    /* \"@openzeppelin/contracts/access/AccessControl.sol\":6315:6344  _roles[role].hasRole[account] */\n  0x00\n    /* \"@openzeppelin/contracts/access/AccessControl.sol\":6336:6343  account */\n  dup5\n    /* \"@openzeppelin/contracts/access/AccessControl.sol\":6315:6344  _roles[role].hasRole[account] */\n  0xffffffffffffffffffffffffffffffffffffffff\n  and\n  0xffffffffffffffffffffffffffffffffffffffff\n  and\n  dup2\n  mstore\n  0x20\n  add\n  swap1\n  dup2\n  mstore\n  0x20\n  add\n  0x00\n  keccak256\n  0x00\n    /* \"@openzeppelin/contracts/access/AccessControl.sol\":6315:6351  _roles[role].hasRole[account] = true */\n  0x0100\n  exp\n  dup2\n  sload\n  dup2\n  0xff\n  mul\n  not\n  and\n  swap1\n  dup4\n  iszero\n  iszero\n  mul\n  or\n  swap1\n  sstore\n  pop\n    /* \"@openzeppelin/contracts/access/AccessControl.sol\":6397:6409  _msgSender() */\n  tag_15\n    /* \"@openzeppelin/contracts/access/AccessControl.sol\":6397:6407  _msgSender */\n  shl(0x20, tag_16)\n    /* \"@openzeppelin/contracts/access/AccessControl.sol\":6397:6409  _msgSender() */\n  0x20\n  shr\n  jump\t// in\ntag_15:\n    /* \"@openzeppelin/contracts/access/AccessControl.sol\":6370:6410  RoleGranted(role, account, _msgSender()) */\n  0xffffffffffffffffffffffffffffffffffffffff\n  and\n    /* \"@openzeppelin/contracts/access/AccessControl.sol\":6388:6395  account */\n  dup3\n    /* \"@openzeppelin/contracts/access/AccessControl.sol\":6370:6410  RoleGranted(role, account, _msgSender()) */\n  0xffffffffffffffffffffffffffffffffffffffff\n  and\n    /* \"@openzeppelin/contracts/access/AccessControl.sol\":6382:6386  role */\n  dup5\n    /* \"@openzeppelin/contracts/access/AccessControl.sol\":6370:6410  RoleGranted(role, account, _msgSender()) */\n  0x2f8788117e7eff1d82e926ec794901d17c78024a50270940304540a733656f0d\n  mload(0x40)\n  mload(0x40)\n  dup1\n  swap2\n  sub\n  swap1\n  log4\n    /* \"@openzeppelin/contracts/access/AccessControl.sol\":6431:6435  true */\n  0x01\n    /* \"@openzeppelin/contracts/access/AccessControl.sol\":6424:6435  return true */\n  swap1\n  pop\n  jump(tag_11)\n    /* \"@openzeppelin/contracts/access/AccessControl.sol\":6272:6489  if (!hasRole(role, account)) {... */\ntag_14:\n    /* \"@openzeppelin/contracts/access/AccessControl.sol\":6473:6478  false */\n  0x00\n    /* \"@openzeppelin/contracts/access/AccessControl.sol\":6466:6478  return false */\n  swap1\n  pop\n    /* \"@openzeppelin/contracts/access/AccessControl.sol\":6179:6495  function _grantRole(bytes32 role, address account) internal virtual returns (bool) {... */\ntag_11:\n  swap3\n  swap2\n  pop\n  pop\n  jump\t// out\n    /* \"@openzeppelin/contracts/access/AccessControl.sol\":4226:4362  function grantRole(bytes32 role, address account) public virtual onlyRole(getRoleAdmin(role)) {... */\ntag_9:\n    /* \"@openzeppelin/contracts/access/AccessControl.sol\":4300:4318  getRoleAdmin(role) */\n  tag_18\n    /* \"@openzeppelin/contracts/access/AccessControl.sol\":4313:4317  role */\n  dup3\n    /* \"@openzeppelin/contracts/access/AccessControl.sol\":4300:4312  getRoleAdmin */\n  shl(0x20, tag_19)\n    /* \"@openzeppelin/contracts/access/AccessControl.sol\":4300:4318  getRoleAdmin(role) */\n  0x20\n  shr\n  jump\t// in\ntag_18:\n    /* \"@openzeppelin/contracts/access/AccessControl.sol\":2464:2480  _checkRole(role) */\n  tag_21\n    /* \"@openzeppelin/contracts/access/AccessControl.sol\":2475:2479  role */\n  dup2\n    /* \"@openzeppelin/contracts/access/AccessControl.sol\":2464:2474  _checkRole */\n  shl(0x20, tag_22)\n    /* \"@openzeppelin/contracts/access/AccessControl.sol\":2464:2480  _checkRole(role) */\n  0x20\n  shr\n  jump\t// in\ntag_21:\n    /* \"@openzeppelin/contracts/access/AccessControl.sol\":4330:4355  _grantRole(role, account) */\n  tag_24\n    /* \"@openzeppelin/contracts/access/AccessControl.sol\":4341:4345  role */\n  dup4\n    /* \"@openzeppelin/contracts/access/AccessControl.sol\":4347:4354  account */\n  dup4\n    /* \"@openzeppelin/contracts/access/AccessControl.sol\":4330:4340  _grantRole */\n  shl(0x20, tag_7)\n    /* \"@openzeppelin/contracts/access/AccessControl.sol\":4330:4355  _grantRole(role, account) */\n  0x20\n  shr\n  jump\t// in\ntag_24:\n  pop\n    /* \"@openzeppelin/contracts/access/AccessControl.sol\":4226:4362  function grantRole(bytes32 role, address account) public virtual onlyRole(getRoleAdmin(role)) {... */\n  pop\n  pop\n  pop\n  jump\t// out\n    /* \"@openzeppelin/contracts/access/AccessControl.sol\":2854:2990  function hasRole(bytes32 role, address account) public view virtual returns (bool) {... */\ntag_13:\n    /* \"@openzeppelin/contracts/access/AccessControl.sol\":2931:2935  bool */\n  0x00\n    /* \"@openzeppelin/contracts/access/AccessControl.sol\":2954:2960  _roles */\n  dup1\n    /* \"@openzeppelin/contracts/access/AccessControl.sol\":2954:2966  _roles[role] */\n  0x00\n    /* \"@openzeppelin/contracts/access/AccessControl.sol\":2961:2965  role */\n  dup5\n    /* \"@openzeppelin/contracts/access/AccessControl.sol\":2954:2966  _roles[role] */\n  dup2\n  mstore\n  0x20\n  add\n  swap1\n  dup2\n  mstore\n  0x20\n  add\n  0x00\n  keccak256\n    /* \"@openzeppelin/contracts/access/AccessControl.sol\":2954:2974  _roles[role].hasRole */\n  0x00\n  add\n    /* \"@openzeppelin/contracts/access/AccessControl.sol\":2954:2983  _roles[role].hasRole[account] */\n  0x00\n    /* \"@openzeppelin/contracts/access/AccessControl.sol\":2975:2982  account */\n  dup4\n    /* \"@openzeppelin/contracts/access/AccessControl.sol\":2954:2983  _roles[role].hasRole[account] */\n  0xffffffffffffffffffffffffffffffffffffffff\n  and\n  0xffffffffffffffffffffffffffffffffffffffff\n  and\n  dup2\n  mstore\n  0x20\n  add\n  swap1\n  dup2\n  mstore\n  0x20\n  add\n  0x00\n  keccak256\n  0x00\n  swap1\n  sload\n  swap1\n  0x0100\n  exp\n  swap1\n  div\n  0xff\n  and\n    /* \"@openzeppelin/contracts/access/AccessControl.sol\":2947:2983  return _roles[role].hasRole[account] */\n  swap1\n  pop\n    /* \"@openzeppelin/contracts/access/AccessControl.sol\":2854:2990  function hasRole(bytes32 role, address account) public view virtual returns (bool) {... */\n  swap3\n  swap2\n  pop\n  pop\n  jump\t// out\n    /* \"@openzeppelin/contracts/utils/Context.sol\":656:752  function _msgSender() internal view virtual returns (address) {... */\ntag_16:\n    /* \"@openzeppelin/contracts/utils/Context.sol\":709:716  address */\n  0x00\n    /* \"@openzeppelin/contracts/utils/Context.sol\":735:745  msg.sender */\n  caller\n    /* \"@openzeppelin/contracts/utils/Context.sol\":728:745  return msg.sender */\n  swap1\n  pop\n    /* \"@openzeppelin/contracts/utils/Context.sol\":656:752  function _msgSender() internal view virtual returns (address) {... */\n  swap1\n  jump\t// out\n    /* \"@openzeppelin/contracts/access/AccessControl.sol\":3810:3930  function getRoleAdmin(bytes32 role) public view virtual returns (bytes32) {... */\ntag_19:\n    /* \"@openzeppelin/contracts/access/AccessControl.sol\":3875:3882  bytes32 */\n  0x00\n    /* \"@openzeppelin/contracts/access/AccessControl.sol\":3901:3907  _roles */\n  dup1\n    /* \"@openzeppelin/contracts/access/AccessControl.sol\":3901:3913  _roles[role] */\n  0x00\n    /* \"@openzeppelin/contracts/access/AccessControl.sol\":3908:3912  role */\n  dup4\n    /* \"@openzeppelin/contracts/access/AccessControl.sol\":3901:3913  _roles[role] */\n  dup2\n  mstore\n  0x20\n  add\n  swap1\n  dup2\n  mstore\n  0x20\n  add\n  0x00\n  keccak256\n    /* \"@openzeppelin/contracts/access/AccessControl.sol\":3901:3923  _roles[role].adminRole */\n  0x01\n  add\n  sload\n    /* \"@openzeppelin/contracts/access/AccessControl.sol\":3894:3923  return _roles[role].adminRole */\n  swap1\n  pop\n    /* \"@openzeppelin/contracts/access/AccessControl.sol\":3810:3930  function getRoleAdmin(bytes32 role) public view virtual returns (bytes32) {... */\n  swap2\n  swap1\n  pop\n  jump\t// out\n    /* \"@openzeppelin/contracts/access/AccessControl.sol\":3199:3302  function _checkRole(bytes32 role) internal view virtual {... */\ntag_22:\n    /* \"@openzeppelin/contracts/access/AccessControl.sol\":3265:3295  _checkRole(role, _msgSender()) */\n  tag_29\n    /* \"@openzeppelin/contracts/access/AccessControl.sol\":3276:3280  role */\n  dup2\n    /* \"@openzeppelin/contracts/access/AccessControl.sol\":3282:3294  _msgSender() */\n  tag_30\n    /* \"@openzeppelin/contracts/access/AccessControl.sol\":3282:3292  _msgSender */\n  shl(0x20, tag_16)\n    /* \"@openzeppelin/contracts/access/AccessControl.sol\":3282:3294  _msgSender() */\n  0x20\n  shr\n  jump\t// in\ntag_30:\n    /* \"@openzeppelin/contracts/access/AccessControl.sol\":3265:3275  _checkRole */\n  shl(0x20, tag_31)\n    /* \"@openzeppelin/contracts/access/AccessControl.sol\":3265:3295  _checkRole(role, _msgSender()) */\n  0x20\n  shr\n  jump\t// in\ntag_29:\n    /* \"@openzeppelin/contracts/access/AccessControl.sol\":3199:3302  function _checkRole(bytes32 role) internal view virtual {... */\n  pop\n  jump\t// out\n    /* \"@openzeppelin/contracts/access/AccessControl.sol\":3432:3629  function _checkRole(bytes32 role, address account) internal view virtual {... */\ntag_31:\n    /* \"@openzeppelin/contracts/access/AccessControl.sol\":3520:3542  hasRole(role, account) */\n  tag_33\n    /* \"@openzeppelin/contracts/access/AccessControl.sol\":3528:3532  role */\n  dup3\n    /* \"@openzeppelin/contracts/access/AccessControl.sol\":3534:3541  account */\n  dup3\n    /* \"@openzeppelin/contracts/access/AccessControl.sol\":3520:3527  hasRole */\n  shl(0x20, tag_13)\n    /* \"@openzeppelin/contracts/access/AccessControl.sol\":3520:3542  hasRole(role, account) */\n  0x20\n  shr\n  jump\t// in\ntag_33:\n    /* \"@openzeppelin/contracts/access/AccessControl.sol\":3515:3623  if (!hasRole(role, account)) {... */\n  tag_34\n  jumpi\n    /* \"@openzeppelin/contracts/access/AccessControl.sol\":3598:3605  account */\n  dup1\n    /* \"@openzeppelin/contracts/access/AccessControl.sol\":3607:3611  role */\n  dup3\n    /* \"@openzeppelin/contracts/access/AccessControl.sol\":3565:3612  AccessControlUnauthorizedAccount(account, role) */\n  mload(0x40)\n  0xe2517d3f00000000000000000000000000000000000000000000000000000000\n  dup2\n  mstore\n  0x04\n  add\n  tag_35\n  swap3\n  swap2\n  swap1\n  tag_36\n  jump\t// in\ntag_35:\n  mload(0x40)\n  dup1\n  swap2\n  sub\n  swap1\n  revert\n    /* \"@openzeppelin/contracts/access/AccessControl.sol\":3515:3623  if (!hasRole(role, account)) {... */\ntag_34:\n    /* \"@openzeppelin/contracts/access/AccessControl.sol\":3432:3629  function _checkRole(bytes32 role, address account) internal view virtual {... */\n  pop\n  pop\n  jump\t// out\n    /* \"#utility.yul\":88:205   */\ntag_38:\n    /* \"#utility.yul\":197:198   */\n  0x00\n    /* \"#utility.yul\":194:195   */\n  dup1\n    /* \"#utility.yul\":187:199   */\n  revert\n    /* \"#utility.yul\":334:420   */\ntag_40:\n    /* \"#utility.yul\":369:376   */\n  0x00\n    /* \"#utility.yul\":409:413   */\n  0xff\n    /* \"#utility.yul\":402:407   */\n  dup3\n    /* \"#utility.yul\":398:414   */\n  and\n    /* \"#utility.yul\":387:414   */\n  swap1\n  pop\n    /* \"#utility.yul\":334:420   */\n  swap2\n  swap1\n  pop\n  jump\t// out\n    /* \"#utility.yul\":426:544   */\ntag_41:\n    /* \"#utility.yul\":497:519   */\n  tag_54\n    /* \"#utility.yul\":513:518   */\n  dup2\n    /* \"#utility.yul\":497:519   */\n  tag_40\n  jump\t// in\ntag_54:\n    /* \"#utility.yul\":490:495   */\n  dup2\n    /* \"#utility.yul\":487:520   */\n  eq\n    /* \"#utility.yul\":477:538   */\n  tag_55\n  jumpi\n    /* \"#utility.yul\":534:535   */\n  0x00\n    /* \"#utility.yul\":531:532   */\n  dup1\n    /* \"#utility.yul\":524:536   */\n  revert\n    /* \"#utility.yul\":477:538   */\ntag_55:\n    /* \"#utility.yul\":426:544   */\n  pop\n  jump\t// out\n    /* \"#utility.yul\":550:689   */\ntag_42:\n    /* \"#utility.yul\":605:610   */\n  0x00\n    /* \"#utility.yul\":636:642   */\n  dup2\n    /* \"#utility.yul\":630:643   */\n  mload\n    /* \"#utility.yul\":621:643   */\n  swap1\n  pop\n    /* \"#utility.yul\":652:683   */\n  tag_57\n    /* \"#utility.yul\":677:682   */\n  dup2\n    /* \"#utility.yul\":652:683   */\n  tag_41\n  jump\t// in\ntag_57:\n    /* \"#utility.yul\":550:689   */\n  swap3\n  swap2\n  pop\n  pop\n  jump\t// out\n    /* \"#utility.yul\":695:1042   */\ntag_3:\n    /* \"#utility.yul\":763:769   */\n  0x00\n    /* \"#utility.yul\":812:814   */\n  0x20\n    /* \"#utility.yul\":800:809   */\n  dup3\n    /* \"#utility.yul\":791:798   */\n  dup5\n    /* \"#utility.yul\":787:810   */\n  sub\n    /* \"#utility.yul\":783:815   */\n  slt\n    /* \"#utility.yul\":780:899   */\n  iszero\n  tag_59\n  jumpi\n    /* \"#utility.yul\":818:897   */\n  tag_60\n  tag_38\n  jump\t// in\ntag_60:\n    /* \"#utility.yul\":780:899   */\ntag_59:\n    /* \"#utility.yul\":938:939   */\n  0x00\n    /* \"#utility.yul\":963:1025   */\n  tag_61\n    /* \"#utility.yul\":1017:1024   */\n  dup5\n    /* \"#utility.yul\":1008:1014   */\n  dup3\n    /* \"#utility.yul\":997:1006   */\n  dup6\n    /* \"#utility.yul\":993:1015   */\n  add\n    /* \"#utility.yul\":963:1025   */\n  tag_42\n  jump\t// in\ntag_61:\n    /* \"#utility.yul\":953:1025   */\n  swap2\n  pop\n    /* \"#utility.yul\":909:1035   */\n  pop\n    /* \"#utility.yul\":695:1042   */\n  swap3\n  swap2\n  pop\n  pop\n  jump\t// out\n    /* \"#utility.yul\":1048:1174   */\ntag_43:\n    /* \"#utility.yul\":1085:1092   */\n  0x00\n    /* \"#utility.yul\":1125:1167   */\n  0xffffffffffffffffffffffffffffffffffffffff\n    /* \"#utility.yul\":1118:1123   */\n  dup3\n    /* \"#utility.yul\":1114:1168   */\n  and\n    /* \"#utility.yul\":1103:1168   */\n  swap1\n  pop\n    /* \"#utility.yul\":1048:1174   */\n  swap2\n  swap1\n  pop\n  jump\t// out\n    /* \"#utility.yul\":1180:1276   */\ntag_44:\n    /* \"#utility.yul\":1217:1224   */\n  0x00\n    /* \"#utility.yul\":1246:1270   */\n  tag_64\n    /* \"#utility.yul\":1264:1269   */\n  dup3\n    /* \"#utility.yul\":1246:1270   */\n  tag_43\n  jump\t// in\ntag_64:\n    /* \"#utility.yul\":1235:1270   */\n  swap1\n  pop\n    /* \"#utility.yul\":1180:1276   */\n  swap2\n  swap1\n  pop\n  jump\t// out\n    /* \"#utility.yul\":1282:1400   */\ntag_45:\n    /* \"#utility.yul\":1369:1393   */\n  tag_66\n    /* \"#utility.yul\":1387:1392   */\n  dup2\n    /* \"#utility.yul\":1369:1393   */\n  tag_44\n  jump\t// in\ntag_66:\n    /* \"#utility.yul\":1364:1367   */\n  dup3\n    /* \"#utility.yul\":1357:1394   */\n  mstore\n    /* \"#utility.yul\":1282:1400   */\n  pop\n  pop\n  jump\t// out\n    /* \"#utility.yul\":1406:1483   */\ntag_46:\n    /* \"#utility.yul\":1443:1450   */\n  0x00\n    /* \"#utility.yul\":1472:1477   */\n  dup2\n    /* \"#utility.yul\":1461:1477   */\n  swap1\n  pop\n    /* \"#utility.yul\":1406:1483   */\n  swap2\n  swap1\n  pop\n  jump\t// out\n    /* \"#utility.yul\":1489:1607   */\ntag_47:\n    /* \"#utility.yul\":1576:1600   */\n  tag_69\n    /* \"#utility.yul\":1594:1599   */\n  dup2\n    /* \"#utility.yul\":1576:1600   */\n  tag_46\n  jump\t// in\ntag_69:\n    /* \"#utility.yul\":1571:1574   */\n  dup3\n    /* \"#utility.yul\":1564:1601   */\n  mstore\n    /* \"#utility.yul\":1489:1607   */\n  pop\n  pop\n  jump\t// out\n    /* \"#utility.yul\":1613:1945   */\ntag_36:\n    /* \"#utility.yul\":1734:1738   */\n  0x00\n    /* \"#utility.yul\":1772:1774   */\n  0x40\n    /* \"#utility.yul\":1761:1770   */\n  dup3\n    /* \"#utility.yul\":1757:1775   */\n  add\n    /* \"#utility.yul\":1749:1775   */\n  swap1\n  pop\n    /* \"#utility.yul\":1785:1856   */\n  tag_71\n    /* \"#utility.yul\":1853:1854   */\n  0x00\n    /* \"#utility.yul\":1842:1851   */\n  dup4\n    /* \"#utility.yul\":1838:1855   */\n  add\n    /* \"#utility.yul\":1829:1835   */\n  dup6\n    /* \"#utility.yul\":1785:1856   */\n  tag_45\n  jump\t// in\ntag_71:\n    /* \"#utility.yul\":1866:1938   */\n  tag_72\n    /* \"#utility.yul\":1934:1936   */\n  0x20\n    /* \"#utility.yul\":1923:1932   */\n  dup4\n    /* \"#utility.yul\":1919:1937   */\n  add\n    /* \"#utility.yul\":1910:1916   */\n  dup5\n    /* \"#utility.yul\":1866:1938   */\n  tag_47\n  jump\t// in\ntag_72:\n    /* \"#utility.yul\":1613:1945   */\n  swap4\n  swap3\n  pop\n  pop\n  pop\n  jump\t// out\n    /* \"allowance.sol\":145:7802  contract AllowanceClaim is AccessControl {... */\ntag_10:\n  dataSize(sub_0)\n  dup1\n  dataOffset(sub_0)\n  0x00\n  codecopy\n  0x00\n  return\nstop\n\nsub_0: assembly {\n        /* \"allowance.sol\":145:7802  contract AllowanceClaim is AccessControl {... */\n      mstore(0x40, 0x80)\n      jumpi(tag_1, lt(calldatasize, 0x04))\n      shr(0xe0, calldataload(0x00))\n      dup1\n      0x99c1aadc\n      gt\n      tag_22\n      jumpi\n      dup1\n      0xda41f68e\n      gt\n      tag_23\n      jumpi\n      dup1\n      0xda41f68e\n      eq\n      tag_17\n      jumpi\n      dup1\n      0xdfefadff\n      eq\n      tag_18\n      jumpi\n      dup1\n      0xe2aad4a0\n      eq\n      tag_19\n      jumpi\n      dup1\n      0xf9f8d761\n      eq\n      tag_20\n      jumpi\n      dup1\n      0xfdc6258a\n      eq\n      tag_21\n      jumpi\n      jump(tag_1)\n    tag_23:\n      dup1\n      0x99c1aadc\n      eq\n      tag_12\n      jumpi\n      dup1\n      0xa217fddf\n      eq\n      tag_13\n      jumpi\n      dup1\n      0xab2850da\n      eq\n      tag_14\n      jumpi\n      dup1\n      0xc012c85b\n      eq\n      tag_15\n      jumpi\n      dup1\n      0xd547741f\n      eq\n      tag_16\n      jumpi\n      jump(tag_1)\n    tag_22:\n      dup1\n      0x3519a2f8\n      gt\n      tag_24\n      jumpi\n      dup1\n      0x3519a2f8\n      eq\n      tag_7\n      jumpi\n      dup1\n      0x36568abe\n      eq\n      tag_8\n      jumpi\n      dup1\n      0x3ccfd60b\n      eq\n      tag_9\n      jumpi\n      dup1\n      0x8adac838\n      eq\n      tag_10\n      jumpi\n      dup1\n      0x91d14854\n      eq\n      tag_11\n      jumpi\n      jump(tag_1)\n    tag_24:\n      dup1\n      0x01ffc9a7\n      eq\n      tag_2\n      jumpi\n      dup1\n      0x12065fe0\n      eq\n      tag_3\n      jumpi\n      dup1\n      0x248a9ca3\n      eq\n      tag_4\n      jumpi\n      dup1\n      0x2498a2c0\n      eq\n      tag_5\n      jumpi\n      dup1\n      0x2f2ff15d\n      eq\n      tag_6\n      jumpi\n    tag_1:\n      0x00\n      dup1\n      revert\n        /* \"@openzeppelin/contracts/access/AccessControl.sol\":2565:2767  function supportsInterface(bytes4 interfaceId) public view virtual override returns (bool) {... */\n    tag_2:\n      callvalue\n      dup1\n      iszero\n      tag_25\n      jumpi\n      0x00\n      dup1\n      revert\n    tag_25:\n      pop\n      tag_26\n      0x04\n      dup1\n      calldatasize\n      sub\n      dup2\n      add\n      swap1\n      tag_27\n      swap2\n      swap1\n      tag_28\n      jump\t// in\n    tag_27:\n      tag_29\n      jump\t// in\n    tag_26:\n      mload(0x40)\n      tag_30\n      swap2\n      swap1\n      tag_31\n      jump\t// in\n    tag_30:\n      mload(0x40)\n      dup1\n      swap2\n      sub\n      swap1\n      return\n        /* \"allowance.sol\":2633:2734  function getBalance() external view returns (uint256) {... */\n    tag_3:\n      callvalue\n      dup1\n      iszero\n      tag_32\n      jumpi\n      0x00\n      dup1\n      revert\n    tag_32:\n      pop\n      tag_33\n      tag_34\n      jump\t// in\n    tag_33:\n      mload(0x40)\n      tag_35\n      swap2\n      swap1\n      tag_36\n      jump\t// in\n    tag_35:\n      mload(0x40)\n      dup1\n      swap2\n      sub\n      swap1\n      return\n        /* \"@openzeppelin/contracts/access/AccessControl.sol\":3810:3930  function getRoleAdmin(bytes32 role) public view virtual returns (bytes32) {... */\n    tag_4:\n      callvalue\n      dup1\n      iszero\n      tag_37\n      jumpi\n      0x00\n      dup1\n      revert\n    tag_37:\n      pop\n      tag_38\n      0x04\n      dup1\n      calldatasize\n      sub\n      dup2\n      add\n      swap1\n      tag_39\n      swap2\n      swap1\n      tag_40\n      jump\t// in\n    tag_39:\n      tag_41\n      jump\t// in\n    tag_38:\n      mload(0x40)\n      tag_42\n      swap2\n      swap1\n      tag_43\n      jump\t// in\n    tag_42:\n      mload(0x40)\n      dup1\n      swap2\n      sub\n      swap1\n      return\n        /* \"allowance.sol\":4871:5214  function verifyApplication(uint256 applicationId) public onlyRole(REVIEWER_ROLE) {... */\n    tag_5:\n      callvalue\n      dup1\n      iszero\n      tag_44\n      jumpi\n      0x00\n      dup1\n      revert\n    tag_44:\n      pop\n      tag_45\n      0x04\n      dup1\n      calldatasize\n      sub\n      dup2\n      add\n      swap1\n      tag_46\n      swap2\n      swap1\n      tag_47\n      jump\t// in\n    tag_46:\n      tag_48\n      jump\t// in\n    tag_45:\n      stop\n        /* \"@openzeppelin/contracts/access/AccessControl.sol\":4226:4362  function grantRole(bytes32 role, address account) public virtual onlyRole(getRoleAdmin(role)) {... */\n    tag_6:\n      callvalue\n      dup1\n      iszero\n      tag_49\n      jumpi\n      0x00\n      dup1\n      revert\n    tag_49:\n      pop\n      tag_50\n      0x04\n      dup1\n      calldatasize\n      sub\n      dup2\n      add\n      swap1\n      tag_51\n      swap2\n      swap1\n      tag_52\n      jump\t// in\n    tag_51:\n      tag_53\n      jump\t// in\n    tag_50:\n      stop\n        /* \"allowance.sol\":2829:3261  function fundContract(uint256 amount) external payable onlyRole(DEFAULT_ADMIN_ROLE) {... */\n    tag_7:\n      tag_54\n      0x04\n      dup1\n      calldatasize\n      sub\n      dup2\n      add\n      swap1\n      tag_55\n      swap2\n      swap1\n      tag_47\n      jump\t// in\n    tag_55:\n      tag_56\n      jump\t// in\n    tag_54:\n      stop\n        /* \"@openzeppelin/contracts/access/AccessControl.sol\":5328:5573  function renounceRole(bytes32 role, address callerConfirmation) public virtual {... */\n    tag_8:\n      callvalue\n      dup1\n      iszero\n      tag_57\n      jumpi\n      0x00\n      dup1\n      revert\n    tag_57:\n      pop\n      tag_58\n      0x04\n      dup1\n      calldatasize\n      sub\n      dup2\n      add\n      swap1\n      tag_59\n      swap2\n      swap1\n      tag_52\n      jump\t// in\n    tag_59:\n      tag_60\n      jump\t// in\n    tag_58:\n      stop\n        /* \"allowance.sol\":3343:3572  function withdraw() external onlyRole(DEFAULT_ADMIN_ROLE) {... */\n    tag_9:\n      callvalue\n      dup1\n      iszero\n      tag_61\n      jumpi\n      0x00\n      dup1\n      revert\n    tag_61:\n      pop\n      tag_62\n      tag_63\n      jump\t// in\n    tag_62:\n      stop\n        /* \"allowance.sol\":4000:4807  function submitApplication(string memory _ic, uint256 _amount) public returns (uint256) {... */\n    tag_10:\n      callvalue\n      dup1\n      iszero\n      tag_64\n      jumpi\n      0x00\n      dup1\n      revert\n    tag_64:\n      pop\n      tag_65\n      0x04\n      dup1\n      calldatasize\n      sub\n      dup2\n      add\n      swap1\n      tag_66\n      swap2\n      swap1\n      tag_67\n      jump\t// in\n    tag_66:\n      tag_68\n      jump\t// in\n    tag_65:\n      mload(0x40)\n      tag_69\n      swap2\n      swap1\n      tag_36\n      jump\t// in\n    tag_69:\n      mload(0x40)\n      dup1\n      swap2\n      sub\n      swap1\n      return\n        /* \"@openzeppelin/contracts/access/AccessControl.sol\":2854:2990  function hasRole(bytes32 role, address account) public view virtual returns (bool) {... */\n    tag_11:\n      callvalue\n      dup1\n      iszero\n      tag_70\n      jumpi\n      0x00\n      dup1\n      revert\n    tag_70:\n      pop\n      tag_71\n      0x04\n      dup1\n      calldatasize\n      sub\n      dup2\n      add\n      swap1\n      tag_72\n      swap2\n      swap1\n      tag_52\n      jump\t// in\n    tag_72:\n      tag_73\n      jump\t// in\n    tag_71:\n      mload(0x40)\n      tag_74\n      swap2\n      swap1\n      tag_31\n      jump\t// in\n    tag_74:\n      mload(0x40)\n      dup1\n      swap2\n      sub\n      swap1\n      return\n        /* \"allowance.sol\":1235:1265  uint8 public requiredApprovals */\n    tag_12:\n      callvalue\n      dup1\n      iszero\n      tag_75\n      jumpi\n      0x00\n      dup1\n      revert\n    tag_75:\n      pop\n      tag_76\n      tag_77\n      jump\t// in\n    tag_76:\n      mload(0x40)\n      tag_78\n      swap2\n      swap1\n      tag_79\n      jump\t// in\n    tag_78:\n      mload(0x40)\n      dup1\n      swap2\n      sub\n      swap1\n      return\n        /* \"@openzeppelin/contracts/access/AccessControl.sol\":2187:2236  bytes32 public constant DEFAULT_ADMIN_ROLE = 0x00 */\n    tag_13:\n      callvalue\n      dup1\n      iszero\n      tag_80\n      jumpi\n      0x00\n      dup1\n      revert\n    tag_80:\n      pop\n      tag_81\n      tag_82\n      jump\t// in\n    tag_81:\n      mload(0x40)\n      tag_83\n      swap2\n      swap1\n      tag_43\n      jump\t// in\n    tag_83:\n      mload(0x40)\n      dup1\n      swap2\n      sub\n      swap1\n      return\n        /* \"allowance.sol\":1530:1591  mapping(uint256 => mapping(address => bool)) public approvals */\n    tag_14:\n      callvalue\n      dup1\n      iszero\n      tag_84\n      jumpi\n      0x00\n      dup1\n      revert\n    tag_84:\n      pop\n      tag_85\n      0x04\n      dup1\n      calldatasize\n      sub\n      dup2\n      add\n      swap1\n      tag_86\n      swap2\n      swap1\n      tag_87\n      jump\t// in\n    tag_86:\n      tag_88\n      jump\t// in\n    tag_85:\n      mload(0x40)\n      tag_89\n      swap2\n      swap1\n      tag_31\n      jump\t// in\n    tag_89:\n      mload(0x40)\n      dup1\n      swap2\n      sub\n      swap1\n      return\n        /* \"allowance.sol\":5286:6403  function signApplication(uint256 applicationId) public onlyRole(REVIEWER_ROLE) {... */\n    tag_15:\n      callvalue\n      dup1\n      iszero\n      tag_90\n      jumpi\n      0x00\n      dup1\n      revert\n    tag_90:\n      pop\n      tag_91\n      0x04\n      dup1\n      calldatasize\n      sub\n      dup2\n      add\n      swap1\n      tag_92\n      swap2\n      swap1\n      tag_47\n      jump\t// in\n    tag_92:\n      tag_93\n      jump\t// in\n    tag_91:\n      stop\n        /* \"@openzeppelin/contracts/access/AccessControl.sol\":4642:4780  function revokeRole(bytes32 role, address account) public virtual onlyRole(getRoleAdmin(role)) {... */\n    tag_16:\n      callvalue\n      dup1\n      iszero\n      tag_94\n      jumpi\n      0x00\n      dup1\n      revert\n    tag_94:\n      pop\n      tag_95\n      0x04\n      dup1\n      calldatasize\n      sub\n      dup2\n      add\n      swap1\n      tag_96\n      swap2\n      swap1\n      tag_52\n      jump\t// in\n    tag_96:\n      tag_97\n      jump\t// in\n    tag_95:\n      stop\n        /* \"allowance.sol\":3813:3918  function grantReviewerRole(address account) external {... */\n    tag_17:\n      callvalue\n      dup1\n      iszero\n      tag_98\n      jumpi\n      0x00\n      dup1\n      revert\n    tag_98:\n      pop\n      tag_99\n      0x04\n      dup1\n      calldatasize\n      sub\n      dup2\n      add\n      swap1\n      tag_100\n      swap2\n      swap1\n      tag_101\n      jump\t// in\n    tag_100:\n      tag_102\n      jump\t// in\n    tag_99:\n      stop\n        /* \"allowance.sol\":1356:1407  mapping(uint256 => Application) public applications */\n    tag_18:\n      callvalue\n      dup1\n      iszero\n      tag_103\n      jumpi\n      0x00\n      dup1\n      revert\n    tag_103:\n      pop\n      tag_104\n      0x04\n      dup1\n      calldatasize\n      sub\n      dup2\n      add\n      swap1\n      tag_105\n      swap2\n      swap1\n      tag_47\n      jump\t// in\n    tag_105:\n      tag_106\n      jump\t// in\n    tag_104:\n      mload(0x40)\n      tag_107\n      swap9\n      swap8\n      swap7\n      swap6\n      swap5\n      swap4\n      swap3\n      swap2\n      swap1\n      tag_108\n      jump\t// in\n    tag_107:\n      mload(0x40)\n      dup1\n      swap2\n      sub\n      swap1\n      return\n        /* \"allowance.sol\":1131:1162  uint256 public applicationCount */\n    tag_19:\n      callvalue\n      dup1\n      iszero\n      tag_109\n      jumpi\n      0x00\n      dup1\n      revert\n    tag_109:\n      pop\n      tag_110\n      tag_111\n      jump\t// in\n    tag_110:\n      mload(0x40)\n      tag_112\n      swap2\n      swap1\n      tag_36\n      jump\t// in\n    tag_112:\n      mload(0x40)\n      dup1\n      swap2\n      sub\n      swap1\n      return\n        /* \"allowance.sol\":6478:7799  function claimAllowance(uint256 applicationId) public {... */\n    tag_20:\n      callvalue\n      dup1\n      iszero\n      tag_113\n      jumpi\n      0x00\n      dup1\n      revert\n    tag_113:\n      pop\n      tag_114\n      0x04\n      dup1\n      calldatasize\n      sub\n      dup2\n      add\n      swap1\n      tag_115\n      swap2\n      swap1\n      tag_47\n      jump\t// in\n    tag_115:\n      tag_116\n      jump\t// in\n    tag_114:\n      stop\n        /* \"allowance.sol\":3630:3751  function isReviewer(address account) public view returns (bool) {... */\n    tag_21:\n      callvalue\n      dup1\n      iszero\n      tag_117\n      jumpi\n      0x00\n      dup1\n      revert\n    tag_117:\n      pop\n      tag_118\n      0x04\n      dup1\n      calldatasize\n      sub\n      dup2\n      add\n      swap1\n      tag_119\n      swap2\n      swap1\n      tag_101\n      jump\t// in\n    tag_119:\n      tag_120\n      jump\t// in\n    tag_118:\n      mload(0x40)\n      tag_121\n      swap2\n      swap1\n      tag_31\n      jump\t// in\n    tag_121:\n      mload(0x40)\n      dup1\n      swap2\n      sub\n      swap1\n      return\n        /* \"@openzeppelin/contracts/access/AccessControl.sol\":2565:2767  function supportsInterface(bytes4 interfaceId) public view virtual override returns (bool) {... */\n    tag_29:\n        /* \"@openzeppelin/contracts/access/AccessControl.sol\":2650:2654  bool */\n      0x00\n        /* \"@openzeppelin/contracts/access/AccessControl.sol\":2688:2720  type(IAccessControl).interfaceId */\n      0x7965db0b00000000000000000000000000000000000000000000000000000000\n        /* \"@openzeppelin/contracts/access/AccessControl.sol\":2673:2720  interfaceId == type(IAccessControl).interfaceId */\n      not(0xffffffffffffffffffffffffffffffffffffffffffffffffffffffff)\n      and\n        /* \"@openzeppelin/contracts/access/AccessControl.sol\":2673:2684  interfaceId */\n      dup3\n        /* \"@openzeppelin/contracts/access/AccessControl.sol\":2673:2720  interfaceId == type(IAccessControl).interfaceId */\n      not(0xffffffffffffffffffffffffffffffffffffffffffffffffffffffff)\n      and\n      eq\n        /* \"@openzeppelin/contracts/access/AccessControl.sol\":2673:2760  interfaceId == type(IAccessControl).interfaceId || super.supportsInterface(interfaceId) */\n      dup1\n      tag_123\n      jumpi\n      pop\n        /* \"@openzeppelin/contracts/access/AccessControl.sol\":2724:2760  super.supportsInterface(interfaceId) */\n      tag_124\n        /* \"@openzeppelin/contracts/access/AccessControl.sol\":2748:2759  interfaceId */\n      dup3\n        /* \"@openzeppelin/contracts/access/AccessControl.sol\":2724:2747  super.supportsInterface */\n      tag_125\n        /* \"@openzeppelin/contracts/access/AccessControl.sol\":2724:2760  super.supportsInterface(interfaceId) */\n      jump\t// in\n    tag_124:\n        /* \"@openzeppelin/contracts/access/AccessControl.sol\":2673:2760  interfaceId == type(IAccessControl).interfaceId || super.supportsInterface(interfaceId) */\n    tag_123:\n        /* \"@openzeppelin/contracts/access/AccessControl.sol\":2666:2760  return interfaceId == type(IAccessControl).interfaceId || super.supportsInterface(interfaceId) */\n      swap1\n      pop\n        /* \"@openzeppelin/contracts/access/AccessControl.sol\":2565:2767  function supportsInterface(bytes4 interfaceId) public view virtual override returns (bool) {... */\n      swap2\n      swap1\n      pop\n      jump\t// out\n        /* \"allowance.sol\":2633:2734  function getBalance() external view returns (uint256) {... */\n    tag_34:\n        /* \"allowance.sol\":2678:2685  uint256 */\n      0x00\n        /* \"allowance.sol\":2705:2726  address(this).balance */\n      selfbalance\n        /* \"allowance.sol\":2698:2726  return address(this).balance */\n      swap1\n      pop\n        /* \"allowance.sol\":2633:2734  function getBalance() external view returns (uint256) {... */\n      swap1\n      jump\t// out\n        /* \"@openzeppelin/contracts/access/AccessControl.sol\":3810:3930  function getRoleAdmin(bytes32 role) public view virtual returns (bytes32) {... */\n    tag_41:\n        /* \"@openzeppelin/contracts/access/AccessControl.sol\":3875:3882  bytes32 */\n      0x00\n        /* \"@openzeppelin/contracts/access/AccessControl.sol\":3901:3907  _roles */\n      dup1\n        /* \"@openzeppelin/contracts/access/AccessControl.sol\":3901:3913  _roles[role] */\n      0x00\n        /* \"@openzeppelin/contracts/access/AccessControl.sol\":3908:3912  role */\n      dup4\n        /* \"@openzeppelin/contracts/access/AccessControl.sol\":3901:3913  _roles[role] */\n      dup2\n      mstore\n      0x20\n      add\n      swap1\n      dup2\n      mstore\n      0x20\n      add\n      0x00\n      keccak256\n        /* \"@openzeppelin/contracts/access/AccessControl.sol\":3901:3923  _roles[role].adminRole */\n      0x01\n      add\n      sload\n        /* \"@openzeppelin/contracts/access/AccessControl.sol\":3894:3923  return _roles[role].adminRole */\n      swap1\n      pop\n        /* \"@openzeppelin/contracts/access/AccessControl.sol\":3810:3930  function getRoleAdmin(bytes32 role) public view virtual returns (bytes32) {... */\n      swap2\n      swap1\n      pop\n      jump\t// out\n        /* \"allowance.sol\":4871:5214  function verifyApplication(uint256 applicationId) public onlyRole(REVIEWER_ROLE) {... */\n    tag_48:\n        /* \"allowance.sol\":315:341  keccak256(\"REVIEWER_ROLE\") */\n      0xc10c77be35aff266144ed64c26a1fa104bae2f284ae99ac4a34203454704a185\n        /* \"@openzeppelin/contracts/access/AccessControl.sol\":2464:2480  _checkRole(role) */\n      tag_129\n        /* \"@openzeppelin/contracts/access/AccessControl.sol\":2475:2479  role */\n      dup2\n        /* \"@openzeppelin/contracts/access/AccessControl.sol\":2464:2474  _checkRole */\n      tag_130\n        /* \"@openzeppelin/contracts/access/AccessControl.sol\":2464:2480  _checkRole(role) */\n      jump\t// in\n    tag_129:\n        /* \"allowance.sol\":5002:5006  true */\n      0x01\n        /* \"allowance.sol\":4963:4975  applications */\n      0x03\n        /* \"allowance.sol\":4963:4990  applications[applicationId] */\n      0x00\n        /* \"allowance.sol\":4976:4989  applicationId */\n      dup5\n        /* \"allowance.sol\":4963:4990  applications[applicationId] */\n      dup2\n      mstore\n      0x20\n      add\n      swap1\n      dup2\n      mstore\n      0x20\n      add\n      0x00\n      keccak256\n        /* \"allowance.sol\":4963:4999  applications[applicationId].verified */\n      0x03\n      add\n      0x00\n        /* \"allowance.sol\":4963:5006  applications[applicationId].verified = true */\n      0x0100\n      exp\n      dup2\n      sload\n      dup2\n      0xff\n      mul\n      not\n      and\n      swap1\n      dup4\n      iszero\n      iszero\n      mul\n      or\n      swap1\n      sstore\n      pop\n        /* \"allowance.sol\":5172:5206  ApplicationVerified(applicationId) */\n      0x1299ae81563fe5de048c2767e3dd7f74c5d1895f3bc9e566bd92a5175f790036\n        /* \"allowance.sol\":5192:5205  applicationId */\n      dup3\n        /* \"allowance.sol\":5172:5206  ApplicationVerified(applicationId) */\n      mload(0x40)\n      tag_132\n      swap2\n      swap1\n      tag_36\n      jump\t// in\n    tag_132:\n      mload(0x40)\n      dup1\n      swap2\n      sub\n      swap1\n      log1\n        /* \"allowance.sol\":4871:5214  function verifyApplication(uint256 applicationId) public onlyRole(REVIEWER_ROLE) {... */\n      pop\n      pop\n      jump\t// out\n        /* \"@openzeppelin/contracts/access/AccessControl.sol\":4226:4362  function grantRole(bytes32 role, address account) public virtual onlyRole(getRoleAdmin(role)) {... */\n    tag_53:\n        /* \"@openzeppelin/contracts/access/AccessControl.sol\":4300:4318  getRoleAdmin(role) */\n      tag_133\n        /* \"@openzeppelin/contracts/access/AccessControl.sol\":4313:4317  role */\n      dup3\n        /* \"@openzeppelin/contracts/access/AccessControl.sol\":4300:4312  getRoleAdmin */\n      tag_41\n        /* \"@openzeppelin/contracts/access/AccessControl.sol\":4300:4318  getRoleAdmin(role) */\n      jump\t// in\n    tag_133:\n        /* \"@openzeppelin/contracts/access/AccessControl.sol\":2464:2480  _checkRole(role) */\n      tag_135\n        /* \"@openzeppelin/contracts/access/AccessControl.sol\":2475:2479  role */\n      dup2\n        /* \"@openzeppelin/contracts/access/AccessControl.sol\":2464:2474  _checkRole */\n      tag_130\n        /* \"@openzeppelin/contracts/access/AccessControl.sol\":2464:2480  _checkRole(role) */\n      jump\t// in\n    tag_135:\n        /* \"@openzeppelin/contracts/access/AccessControl.sol\":4330:4355  _grantRole(role, account) */\n      tag_137\n        /* \"@openzeppelin/contracts/access/AccessControl.sol\":4341:4345  role */\n      dup4\n        /* \"@openzeppelin/contracts/access/AccessControl.sol\":4347:4354  account */\n      dup4\n        /* \"@openzeppelin/contracts/access/AccessControl.sol\":4330:4340  _grantRole */\n      tag_138\n        /* \"@openzeppelin/contracts/access/AccessControl.sol\":4330:4355  _grantRole(role, account) */\n      jump\t// in\n    tag_137:\n      pop\n        /* \"@openzeppelin/contracts/access/AccessControl.sol\":4226:4362  function grantRole(bytes32 role, address account) public virtual onlyRole(getRoleAdmin(role)) {... */\n      pop\n      pop\n      pop\n      jump\t// out\n        /* \"allowance.sol\":2829:3261  function fundContract(uint256 amount) external payable onlyRole(DEFAULT_ADMIN_ROLE) {... */\n    tag_56:\n        /* \"@openzeppelin/contracts/access/AccessControl.sol\":2232:2236  0x00 */\n      0x00\n        /* \"allowance.sol\":2893:2911  DEFAULT_ADMIN_ROLE */\n      dup1\n      shl\n        /* \"@openzeppelin/contracts/access/AccessControl.sol\":2464:2480  _checkRole(role) */\n      tag_140\n        /* \"@openzeppelin/contracts/access/AccessControl.sol\":2475:2479  role */\n      dup2\n        /* \"@openzeppelin/contracts/access/AccessControl.sol\":2464:2474  _checkRole */\n      tag_130\n        /* \"@openzeppelin/contracts/access/AccessControl.sol\":2464:2480  _checkRole(role) */\n      jump\t// in\n    tag_140:\n        /* \"allowance.sol\":3021:3022  0 */\n      0x00\n        /* \"allowance.sol\":3012:3018  amount */\n      dup3\n        /* \"allowance.sol\":3012:3022  amount > 0 */\n      gt\n        /* \"allowance.sol\":3004:3059  require(amount > 0, \"Amount must be greater than zero\") */\n      tag_142\n      jumpi\n      mload(0x40)\n      0x08c379a000000000000000000000000000000000000000000000000000000000\n      dup2\n      mstore\n      0x04\n      add\n      tag_143\n      swap1\n      tag_144\n      jump\t// in\n    tag_143:\n      mload(0x40)\n      dup1\n      swap2\n      sub\n      swap1\n      revert\n    tag_142:\n        /* \"allowance.sol\":3090:3091  0 */\n      0x00\n        /* \"allowance.sol\":3078:3087  msg.value */\n      callvalue\n        /* \"allowance.sol\":3078:3091  msg.value > 0 */\n      gt\n        /* \"allowance.sol\":3070:3119  require(msg.value > 0, \"Must send Ether to fund\") */\n      tag_145\n      jumpi\n      mload(0x40)\n      0x08c379a000000000000000000000000000000000000000000000000000000000\n      dup2\n      mstore\n      0x04\n      add\n      tag_146\n      swap1\n      tag_147\n      jump\t// in\n    tag_146:\n      mload(0x40)\n      dup1\n      swap2\n      sub\n      swap1\n      revert\n    tag_145:\n        /* \"allowance.sol\":3151:3157  amount */\n      dup2\n        /* \"allowance.sol\":3138:3147  msg.value */\n      callvalue\n        /* \"allowance.sol\":3138:3157  msg.value == amount */\n      eq\n        /* \"allowance.sol\":3130:3208  require(msg.value == amount, \"Sent value does not match the specified amount\") */\n      tag_148\n      jumpi\n      mload(0x40)\n      0x08c379a000000000000000000000000000000000000000000000000000000000\n      dup2\n      mstore\n      0x04\n      add\n      tag_149\n      swap1\n      tag_150\n      jump\t// in\n    tag_149:\n      mload(0x40)\n      dup1\n      swap2\n      sub\n      swap1\n      revert\n    tag_148:\n        /* \"allowance.sol\":3231:3241  msg.sender */\n      caller\n        /* \"allowance.sol\":3224:3253  Funded(msg.sender, msg.value) */\n      0xffffffffffffffffffffffffffffffffffffffff\n      and\n      0x5af8184bef8e4b45eb9f6ed7734d04da38ced226495548f46e0c8ff8d7d9a524\n        /* \"allowance.sol\":3243:3252  msg.value */\n      callvalue\n        /* \"allowance.sol\":3224:3253  Funded(msg.sender, msg.value) */\n      mload(0x40)\n      tag_151\n      swap2\n      swap1\n      tag_36\n      jump\t// in\n    tag_151:\n      mload(0x40)\n      dup1\n      swap2\n      sub\n      swap1\n      log2\n        /* \"allowance.sol\":2829:3261  function fundContract(uint256 amount) external payable onlyRole(DEFAULT_ADMIN_ROLE) {... */\n      pop\n      pop\n      jump\t// out\n        /* \"@openzeppelin/contracts/access/AccessControl.sol\":5328:5573  function renounceRole(bytes32 role, address callerConfirmation) public virtual {... */\n    tag_60:\n        /* \"@openzeppelin/contracts/access/AccessControl.sol\":5443:5455  _msgSender() */\n      tag_153\n        /* \"@openzeppelin/contracts/access/AccessControl.sol\":5443:5453  _msgSender */\n      tag_154\n        /* \"@openzeppelin/contracts/access/AccessControl.sol\":5443:5455  _msgSender() */\n      jump\t// in\n    tag_153:\n        /* \"@openzeppelin/contracts/access/AccessControl.sol\":5421:5455  callerConfirmation != _msgSender() */\n      0xffffffffffffffffffffffffffffffffffffffff\n      and\n        /* \"@openzeppelin/contracts/access/AccessControl.sol\":5421:5439  callerConfirmation */\n      dup2\n        /* \"@openzeppelin/contracts/access/AccessControl.sol\":5421:5455  callerConfirmation != _msgSender() */\n      0xffffffffffffffffffffffffffffffffffffffff\n      and\n      eq\n        /* \"@openzeppelin/contracts/access/AccessControl.sol\":5417:5519  if (callerConfirmation != _msgSender()) {... */\n      tag_155\n      jumpi\n        /* \"@openzeppelin/contracts/access/AccessControl.sol\":5478:5508  AccessControlBadConfirmation() */\n      mload(0x40)\n      0x6697b23200000000000000000000000000000000000000000000000000000000\n      dup2\n      mstore\n      0x04\n      add\n      mload(0x40)\n      dup1\n      swap2\n      sub\n      swap1\n      revert\n        /* \"@openzeppelin/contracts/access/AccessControl.sol\":5417:5519  if (callerConfirmation != _msgSender()) {... */\n    tag_155:\n        /* \"@openzeppelin/contracts/access/AccessControl.sol\":5529:5566  _revokeRole(role, callerConfirmation) */\n      tag_156\n        /* \"@openzeppelin/contracts/access/AccessControl.sol\":5541:5545  role */\n      dup3\n        /* \"@openzeppelin/contracts/access/AccessControl.sol\":5547:5565  callerConfirmation */\n      dup3\n        /* \"@openzeppelin/contracts/access/AccessControl.sol\":5529:5540  _revokeRole */\n      tag_157\n        /* \"@openzeppelin/contracts/access/AccessControl.sol\":5529:5566  _revokeRole(role, callerConfirmation) */\n      jump\t// in\n    tag_156:\n      pop\n        /* \"@openzeppelin/contracts/access/AccessControl.sol\":5328:5573  function renounceRole(bytes32 role, address callerConfirmation) public virtual {... */\n      pop\n      pop\n      jump\t// out\n        /* \"allowance.sol\":3343:3572  function withdraw() external onlyRole(DEFAULT_ADMIN_ROLE) {... */\n    tag_63:\n        /* \"@openzeppelin/contracts/access/AccessControl.sol\":2232:2236  0x00 */\n      0x00\n        /* \"allowance.sol\":3381:3399  DEFAULT_ADMIN_ROLE */\n      dup1\n      shl\n        /* \"@openzeppelin/contracts/access/AccessControl.sol\":2464:2480  _checkRole(role) */\n      tag_159\n        /* \"@openzeppelin/contracts/access/AccessControl.sol\":2475:2479  role */\n      dup2\n        /* \"@openzeppelin/contracts/access/AccessControl.sol\":2464:2474  _checkRole */\n      tag_130\n        /* \"@openzeppelin/contracts/access/AccessControl.sol\":2464:2480  _checkRole(role) */\n      jump\t// in\n    tag_159:\n        /* \"allowance.sol\":3444:3445  0 */\n      0x00\n        /* \"allowance.sol\":3420:3441  address(this).balance */\n      selfbalance\n        /* \"allowance.sol\":3420:3445  address(this).balance > 0 */\n      gt\n        /* \"allowance.sol\":3412:3468  require(address(this).balance > 0, \"No funds available\") */\n      tag_161\n      jumpi\n      mload(0x40)\n      0x08c379a000000000000000000000000000000000000000000000000000000000\n      dup2\n      mstore\n      0x04\n      add\n      tag_162\n      swap1\n      tag_163\n      jump\t// in\n    tag_162:\n      mload(0x40)\n      dup1\n      swap2\n      sub\n      swap1\n      revert\n    tag_161:\n        /* \"allowance.sol\":3479:3493  uint256 amount */\n      0x00\n        /* \"allowance.sol\":3496:3517  address(this).balance */\n      selfbalance\n        /* \"allowance.sol\":3479:3517  uint256 amount = address(this).balance */\n      swap1\n      pop\n        /* \"allowance.sol\":3536:3546  msg.sender */\n      caller\n        /* \"allowance.sol\":3528:3556  payable(msg.sender).transfer */\n      0xffffffffffffffffffffffffffffffffffffffff\n      and\n        /* \"allowance.sol\":3528:3564  payable(msg.sender).transfer(amount) */\n      0x08fc\n        /* \"allowance.sol\":3557:3563  amount */\n      dup3\n        /* \"allowance.sol\":3528:3564  payable(msg.sender).transfer(amount) */\n      swap1\n      dup2\n      iszero\n      mul\n      swap1\n      mload(0x40)\n      0x00\n      mload(0x40)\n      dup1\n      dup4\n      sub\n      dup2\n      dup6\n      dup9\n      dup9\n      call\n      swap4\n      pop\n      pop\n      pop\n      pop\n      iszero\n      dup1\n      iszero\n      tag_165\n      jumpi\n      returndatasize\n      0x00\n      dup1\n      returndatacopy\n      revert(0x00, returndatasize)\n    tag_165:\n      pop\n        /* \"allowance.sol\":3401:3572  {... */\n      pop\n        /* \"allowance.sol\":3343:3572  function withdraw() external onlyRole(DEFAULT_ADMIN_ROLE) {... */\n      pop\n      jump\t// out\n        /* \"allowance.sol\":4000:4807  function submitApplication(string memory _ic, uint256 _amount) public returns (uint256) {... */\n    tag_68:\n        /* \"allowance.sol\":4079:4086  uint256 */\n      0x00\n        /* \"allowance.sol\":4099:4115  applicationCount */\n      0x01\n      0x00\n        /* \"allowance.sol\":4099:4117  applicationCount++ */\n      dup2\n      sload\n      dup1\n      swap3\n      swap2\n      swap1\n      tag_167\n      swap1\n      tag_168\n      jump\t// in\n    tag_167:\n      swap2\n      swap1\n      pop\n      sstore\n      pop\n        /* \"allowance.sol\":4276:4561  Application({... */\n      mload(0x40)\n      dup1\n      0x0100\n      add\n      0x40\n      mstore\n      dup1\n        /* \"allowance.sol\":4314:4324  msg.sender */\n      caller\n        /* \"allowance.sol\":4276:4561  Application({... */\n      0xffffffffffffffffffffffffffffffffffffffff\n      and\n      dup2\n      mstore\n      0x20\n      add\n        /* \"allowance.sol\":4343:4346  _ic */\n      dup5\n        /* \"allowance.sol\":4276:4561  Application({... */\n      dup2\n      mstore\n      0x20\n      add\n        /* \"allowance.sol\":4369:4376  _amount */\n      dup4\n        /* \"allowance.sol\":4276:4561  Application({... */\n      dup2\n      mstore\n      0x20\n      add\n        /* \"allowance.sol\":4428:4433  false */\n      0x00\n        /* \"allowance.sol\":4276:4561  Application({... */\n      iszero\n      iszero\n      dup2\n      mstore\n      0x20\n      add\n        /* \"allowance.sol\":4459:4460  0 */\n      0x00\n        /* \"allowance.sol\":4276:4561  Application({... */\n      0xff\n      and\n      dup2\n      mstore\n      0x20\n      add\n        /* \"allowance.sol\":4485:4490  false */\n      0x00\n        /* \"allowance.sol\":4276:4561  Application({... */\n      iszero\n      iszero\n      dup2\n      mstore\n      0x20\n      add\n        /* \"allowance.sol\":4515:4520  false */\n      0x00\n        /* \"allowance.sol\":4276:4561  Application({... */\n      iszero\n      iszero\n      dup2\n      mstore\n      0x20\n      add\n        /* \"allowance.sol\":4544:4549  false */\n      0x00\n        /* \"allowance.sol\":4276:4561  Application({... */\n      iszero\n      iszero\n      dup2\n      mstore\n      pop\n        /* \"allowance.sol\":4243:4255  applications */\n      0x03\n        /* \"allowance.sol\":4243:4273  applications[applicationCount] */\n      0x00\n        /* \"allowance.sol\":4256:4272  applicationCount */\n      sload(0x01)\n        /* \"allowance.sol\":4243:4273  applications[applicationCount] */\n      dup2\n      mstore\n      0x20\n      add\n      swap1\n      dup2\n      mstore\n      0x20\n      add\n      0x00\n      keccak256\n        /* \"allowance.sol\":4243:4561  applications[applicationCount] = Application({... */\n      0x00\n      dup3\n      add\n      mload\n      dup2\n      0x00\n      add\n      exp(0x0100, 0x00)\n      dup2\n      sload\n      dup2\n      0xffffffffffffffffffffffffffffffffffffffff\n      mul\n      not\n      and\n      swap1\n      dup4\n      0xffffffffffffffffffffffffffffffffffffffff\n      and\n      mul\n      or\n      swap1\n      sstore\n      pop\n      0x20\n      dup3\n      add\n      mload\n      dup2\n      0x01\n      add\n      swap1\n      dup2\n      tag_169\n      swap2\n      swap1\n      tag_170\n      jump\t// in\n    tag_169:\n      pop\n      0x40\n      dup3\n      add\n      mload\n      dup2\n      0x02\n      add\n      sstore\n      0x60\n      dup3\n      add\n      mload\n      dup2\n      0x03\n      add\n      exp(0x0100, 0x00)\n      dup2\n      sload\n      dup2\n      0xff\n      mul\n      not\n      and\n      swap1\n      dup4\n      iszero\n      iszero\n      mul\n      or\n      swap1\n      sstore\n      pop\n      0x80\n      dup3\n      add\n      mload\n      dup2\n      0x03\n      add\n      exp(0x0100, 0x01)\n      dup2\n      sload\n      dup2\n      0xff\n      mul\n      not\n      and\n      swap1\n      dup4\n      0xff\n      and\n      mul\n      or\n      swap1\n      sstore\n      pop\n      0xa0\n      dup3\n      add\n      mload\n      dup2\n      0x03\n      add\n      exp(0x0100, 0x02)\n      dup2\n      sload\n      dup2\n      0xff\n      mul\n      not\n      and\n      swap1\n      dup4\n      iszero\n      iszero\n      mul\n      or\n      swap1\n      sstore\n      pop\n      0xc0\n      dup3\n      add\n      mload\n      dup2\n      0x03\n      add\n      exp(0x0100, 0x03)\n      dup2\n      sload\n      dup2\n      0xff\n      mul\n      not\n      and\n      swap1\n      dup4\n      iszero\n      iszero\n      mul\n      or\n      swap1\n      sstore\n      pop\n      0xe0\n      dup3\n      add\n      mload\n      dup2\n      0x03\n      add\n      exp(0x0100, 0x04)\n      dup2\n      sload\n      dup2\n      0xff\n      mul\n      not\n      and\n      swap1\n      dup4\n      iszero\n      iszero\n      mul\n      or\n      swap1\n      sstore\n      pop\n      swap1\n      pop\n      pop\n        /* \"allowance.sol\":4646:4705  ApplicationSubmitted(applicationCount, msg.sender, _amount) */\n      0xdb0b522b8234f730c26780fc877f0d063689be4bc7d6aacb12b40df8440eb043\n        /* \"allowance.sol\":4667:4683  applicationCount */\n      sload(0x01)\n        /* \"allowance.sol\":4685:4695  msg.sender */\n      caller\n        /* \"allowance.sol\":4697:4704  _amount */\n      dup5\n        /* \"allowance.sol\":4646:4705  ApplicationSubmitted(applicationCount, msg.sender, _amount) */\n      mload(0x40)\n      tag_171\n      swap4\n      swap3\n      swap2\n      swap1\n      tag_172\n      jump\t// in\n    tag_171:\n      mload(0x40)\n      dup1\n      swap2\n      sub\n      swap1\n      log1\n        /* \"allowance.sol\":4783:4799  applicationCount */\n      sload(0x01)\n        /* \"allowance.sol\":4776:4799  return applicationCount */\n      swap1\n      pop\n        /* \"allowance.sol\":4000:4807  function submitApplication(string memory _ic, uint256 _amount) public returns (uint256) {... */\n      swap3\n      swap2\n      pop\n      pop\n      jump\t// out\n        /* \"@openzeppelin/contracts/access/AccessControl.sol\":2854:2990  function hasRole(bytes32 role, address account) public view virtual returns (bool) {... */\n    tag_73:\n        /* \"@openzeppelin/contracts/access/AccessControl.sol\":2931:2935  bool */\n      0x00\n        /* \"@openzeppelin/contracts/access/AccessControl.sol\":2954:2960  _roles */\n      dup1\n        /* \"@openzeppelin/contracts/access/AccessControl.sol\":2954:2966  _roles[role] */\n      0x00\n        /* \"@openzeppelin/contracts/access/AccessControl.sol\":2961:2965  role */\n      dup5\n        /* \"@openzeppelin/contracts/access/AccessControl.sol\":2954:2966  _roles[role] */\n      dup2\n      mstore\n      0x20\n      add\n      swap1\n      dup2\n      mstore\n      0x20\n      add\n      0x00\n      keccak256\n        /* \"@openzeppelin/contracts/access/AccessControl.sol\":2954:2974  _roles[role].hasRole */\n      0x00\n      add\n        /* \"@openzeppelin/contracts/access/AccessControl.sol\":2954:2983  _roles[role].hasRole[account] */\n      0x00\n        /* \"@openzeppelin/contracts/access/AccessControl.sol\":2975:2982  account */\n      dup4\n        /* \"@openzeppelin/contracts/access/AccessControl.sol\":2954:2983  _roles[role].hasRole[account] */\n      0xffffffffffffffffffffffffffffffffffffffff\n      and\n      0xffffffffffffffffffffffffffffffffffffffff\n      and\n      dup2\n      mstore\n      0x20\n      add\n      swap1\n      dup2\n      mstore\n      0x20\n      add\n      0x00\n      keccak256\n      0x00\n      swap1\n      sload\n      swap1\n      0x0100\n      exp\n      swap1\n      div\n      0xff\n      and\n        /* \"@openzeppelin/contracts/access/AccessControl.sol\":2947:2983  return _roles[role].hasRole[account] */\n      swap1\n      pop\n        /* \"@openzeppelin/contracts/access/AccessControl.sol\":2854:2990  function hasRole(bytes32 role, address account) public view virtual returns (bool) {... */\n      swap3\n      swap2\n      pop\n      pop\n      jump\t// out\n        /* \"allowance.sol\":1235:1265  uint8 public requiredApprovals */\n    tag_77:\n      0x02\n      0x00\n      swap1\n      sload\n      swap1\n      0x0100\n      exp\n      swap1\n      div\n      0xff\n      and\n      dup2\n      jump\t// out\n        /* \"@openzeppelin/contracts/access/AccessControl.sol\":2187:2236  bytes32 public constant DEFAULT_ADMIN_ROLE = 0x00 */\n    tag_82:\n        /* \"@openzeppelin/contracts/access/AccessControl.sol\":2232:2236  0x00 */\n      0x00\n        /* \"@openzeppelin/contracts/access/AccessControl.sol\":2187:2236  bytes32 public constant DEFAULT_ADMIN_ROLE = 0x00 */\n      dup1\n      shl\n      dup2\n      jump\t// out\n        /* \"allowance.sol\":1530:1591  mapping(uint256 => mapping(address => bool)) public approvals */\n    tag_88:\n      mstore(0x20, 0x04)\n      dup2\n      0x00\n      mstore\n      mstore(0x20, keccak256(0x00, 0x40))\n      dup1\n      0x00\n      mstore\n      keccak256(0x00, 0x40)\n      0x00\n      swap2\n      pop\n      swap2\n      pop\n      swap1\n      sload\n      swap1\n      0x0100\n      exp\n      swap1\n      div\n      0xff\n      and\n      dup2\n      jump\t// out\n        /* \"allowance.sol\":5286:6403  function signApplication(uint256 applicationId) public onlyRole(REVIEWER_ROLE) {... */\n    tag_93:\n        /* \"allowance.sol\":315:341  keccak256(\"REVIEWER_ROLE\") */\n      0xc10c77be35aff266144ed64c26a1fa104bae2f284ae99ac4a34203454704a185\n        /* \"@openzeppelin/contracts/access/AccessControl.sol\":2464:2480  _checkRole(role) */\n      tag_175\n        /* \"@openzeppelin/contracts/access/AccessControl.sol\":2475:2479  role */\n      dup2\n        /* \"@openzeppelin/contracts/access/AccessControl.sol\":2464:2474  _checkRole */\n      tag_130\n        /* \"@openzeppelin/contracts/access/AccessControl.sol\":2464:2480  _checkRole(role) */\n      jump\t// in\n    tag_175:\n        /* \"allowance.sol\":5461:5473  applications */\n      0x03\n        /* \"allowance.sol\":5461:5488  applications[applicationId] */\n      0x00\n        /* \"allowance.sol\":5474:5487  applicationId */\n      dup4\n        /* \"allowance.sol\":5461:5488  applications[applicationId] */\n      dup2\n      mstore\n      0x20\n      add\n      swap1\n      dup2\n      mstore\n      0x20\n      add\n      0x00\n      keccak256\n        /* \"allowance.sol\":5461:5497  applications[applicationId].verified */\n      0x03\n      add\n      0x00\n      swap1\n      sload\n      swap1\n      0x0100\n      exp\n      swap1\n      div\n      0xff\n      and\n        /* \"allowance.sol\":5453:5530  require(applications[applicationId].verified, \"Application not verified yet\") */\n      tag_177\n      jumpi\n      mload(0x40)\n      0x08c379a000000000000000000000000000000000000000000000000000000000\n      dup2\n      mstore\n      0x04\n      add\n      tag_178\n      swap1\n      tag_179\n      jump\t// in\n    tag_178:\n      mload(0x40)\n      dup1\n      swap2\n      sub\n      swap1\n      revert\n    tag_177:\n        /* \"allowance.sol\":5624:5633  approvals */\n      0x04\n        /* \"allowance.sol\":5624:5648  approvals[applicationId] */\n      0x00\n        /* \"allowance.sol\":5634:5647  applicationId */\n      dup4\n        /* \"allowance.sol\":5624:5648  approvals[applicationId] */\n      dup2\n      mstore\n      0x20\n      add\n      swap1\n      dup2\n      mstore\n      0x20\n      add\n      0x00\n      keccak256\n        /* \"allowance.sol\":5624:5660  approvals[applicationId][msg.sender] */\n      0x00\n        /* \"allowance.sol\":5649:5659  msg.sender */\n      caller\n        /* \"allowance.sol\":5624:5660  approvals[applicationId][msg.sender] */\n      0xffffffffffffffffffffffffffffffffffffffff\n      and\n      0xffffffffffffffffffffffffffffffffffffffff\n      and\n      dup2\n      mstore\n      0x20\n      add\n      swap1\n      dup2\n      mstore\n      0x20\n      add\n      0x00\n      keccak256\n      0x00\n      swap1\n      sload\n      swap1\n      0x0100\n      exp\n      swap1\n      div\n      0xff\n      and\n        /* \"allowance.sol\":5623:5660  !approvals[applicationId][msg.sender] */\n      iszero\n        /* \"allowance.sol\":5615:5679  require(!approvals[applicationId][msg.sender], \"Already signed\") */\n      tag_180\n      jumpi\n      mload(0x40)\n      0x08c379a000000000000000000000000000000000000000000000000000000000\n      dup2\n      mstore\n      0x04\n      add\n      tag_181\n      swap1\n      tag_182\n      jump\t// in\n    tag_181:\n      mload(0x40)\n      dup1\n      swap2\n      sub\n      swap1\n      revert\n    tag_180:\n        /* \"allowance.sol\":5799:5803  true */\n      0x01\n        /* \"allowance.sol\":5760:5769  approvals */\n      0x04\n        /* \"allowance.sol\":5760:5784  approvals[applicationId] */\n      0x00\n        /* \"allowance.sol\":5770:5783  applicationId */\n      dup5\n        /* \"allowance.sol\":5760:5784  approvals[applicationId] */\n      dup2\n      mstore\n      0x20\n      add\n      swap1\n      dup2\n      mstore\n      0x20\n      add\n      0x00\n      keccak256\n        /* \"allowance.sol\":5760:5796  approvals[applicationId][msg.sender] */\n      0x00\n        /* \"allowance.sol\":5785:5795  msg.sender */\n      caller\n        /* \"allowance.sol\":5760:5796  approvals[applicationId][msg.sender] */\n      0xffffffffffffffffffffffffffffffffffffffff\n      and\n      0xffffffffffffffffffffffffffffffffffffffff\n      and\n      dup2\n      mstore\n      0x20\n      add\n      swap1\n      dup2\n      mstore\n      0x20\n      add\n      0x00\n      keccak256\n      0x00\n        /* \"allowance.sol\":5760:5803  approvals[applicationId][msg.sender] = true */\n      0x0100\n      exp\n      dup2\n      sload\n      dup2\n      0xff\n      mul\n      not\n      and\n      swap1\n      dup4\n      iszero\n      iszero\n      mul\n      or\n      swap1\n      sstore\n      pop\n        /* \"allowance.sol\":5814:5826  applications */\n      0x03\n        /* \"allowance.sol\":5814:5841  applications[applicationId] */\n      0x00\n        /* \"allowance.sol\":5827:5840  applicationId */\n      dup4\n        /* \"allowance.sol\":5814:5841  applications[applicationId] */\n      dup2\n      mstore\n      0x20\n      add\n      swap1\n      dup2\n      mstore\n      0x20\n      add\n      0x00\n      keccak256\n        /* \"allowance.sol\":5814:5851  applications[applicationId].approvals */\n      0x03\n      add\n      0x01\n        /* \"allowance.sol\":5814:5853  applications[applicationId].approvals++ */\n      dup2\n      dup2\n      swap1\n      sload\n      swap1\n      0x0100\n      exp\n      swap1\n      div\n      0xff\n      and\n      dup1\n      swap3\n      swap2\n      swap1\n      tag_183\n      swap1\n      tag_184\n      jump\t// in\n    tag_183:\n      swap2\n      swap1\n      0x0100\n      exp\n      dup2\n      sload\n      dup2\n      0xff\n      mul\n      not\n      and\n      swap1\n      dup4\n      0xff\n      and\n      mul\n      or\n      swap1\n      sstore\n      pop\n      pop\n        /* \"allowance.sol\":5975:6019  ApplicationSigned(applicationId, msg.sender) */\n      0xf6952ff82f1d25c8c35077810d20e5acecc58ac1fe196cb90103969b9c2f6ac2\n        /* \"allowance.sol\":5993:6006  applicationId */\n      dup3\n        /* \"allowance.sol\":6008:6018  msg.sender */\n      caller\n        /* \"allowance.sol\":5975:6019  ApplicationSigned(applicationId, msg.sender) */\n      mload(0x40)\n      tag_185\n      swap3\n      swap2\n      swap1\n      tag_186\n      jump\t// in\n    tag_185:\n      mload(0x40)\n      dup1\n      swap2\n      sub\n      swap1\n      log1\n        /* \"allowance.sol\":6170:6187  requiredApprovals */\n      0x02\n      0x00\n      swap1\n      sload\n      swap1\n      0x0100\n      exp\n      swap1\n      div\n      0xff\n      and\n        /* \"allowance.sol\":6129:6187  applications[applicationId].approvals >= requiredApprovals */\n      0xff\n      and\n        /* \"allowance.sol\":6129:6141  applications */\n      0x03\n        /* \"allowance.sol\":6129:6156  applications[applicationId] */\n      0x00\n        /* \"allowance.sol\":6142:6155  applicationId */\n      dup5\n        /* \"allowance.sol\":6129:6156  applications[applicationId] */\n      dup2\n      mstore\n      0x20\n      add\n      swap1\n      dup2\n      mstore\n      0x20\n      add\n      0x00\n      keccak256\n        /* \"allowance.sol\":6129:6166  applications[applicationId].approvals */\n      0x03\n      add\n      0x01\n      swap1\n      sload\n      swap1\n      0x0100\n      exp\n      swap1\n      div\n      0xff\n      and\n        /* \"allowance.sol\":6129:6187  applications[applicationId].approvals >= requiredApprovals */\n      0xff\n      and\n      lt\n        /* \"allowance.sol\":6125:6396  if (applications[applicationId].approvals >= requiredApprovals) {... */\n      tag_187\n      jumpi\n        /* \"allowance.sol\":6243:6247  true */\n      0x01\n        /* \"allowance.sol\":6204:6216  applications */\n      0x03\n        /* \"allowance.sol\":6204:6231  applications[applicationId] */\n      0x00\n        /* \"allowance.sol\":6217:6230  applicationId */\n      dup5\n        /* \"allowance.sol\":6204:6231  applications[applicationId] */\n      dup2\n      mstore\n      0x20\n      add\n      swap1\n      dup2\n      mstore\n      0x20\n      add\n      0x00\n      keccak256\n        /* \"allowance.sol\":6204:6240  applications[applicationId].approved */\n      0x03\n      add\n      0x02\n        /* \"allowance.sol\":6204:6247  applications[applicationId].approved = true */\n      0x0100\n      exp\n      dup2\n      sload\n      dup2\n      0xff\n      mul\n      not\n      and\n      swap1\n      dup4\n      iszero\n      iszero\n      mul\n      or\n      swap1\n      sstore\n      pop\n        /* \"allowance.sol\":6350:6384  ApplicationApproved(applicationId) */\n      0x18592c970423719446e8cd1db0f88689331b2c81690e4d59376e8481e36b65ee\n        /* \"allowance.sol\":6370:6383  applicationId */\n      dup3\n        /* \"allowance.sol\":6350:6384  ApplicationApproved(applicationId) */\n      mload(0x40)\n      tag_188\n      swap2\n      swap1\n      tag_36\n      jump\t// in\n    tag_188:\n      mload(0x40)\n      dup1\n      swap2\n      sub\n      swap1\n      log1\n        /* \"allowance.sol\":6125:6396  if (applications[applicationId].approvals >= requiredApprovals) {... */\n    tag_187:\n        /* \"allowance.sol\":5286:6403  function signApplication(uint256 applicationId) public onlyRole(REVIEWER_ROLE) {... */\n      pop\n      pop\n      jump\t// out\n        /* \"@openzeppelin/contracts/access/AccessControl.sol\":4642:4780  function revokeRole(bytes32 role, address account) public virtual onlyRole(getRoleAdmin(role)) {... */\n    tag_97:\n        /* \"@openzeppelin/contracts/access/AccessControl.sol\":4717:4735  getRoleAdmin(role) */\n      tag_189\n        /* \"@openzeppelin/contracts/access/AccessControl.sol\":4730:4734  role */\n      dup3\n        /* \"@openzeppelin/contracts/access/AccessControl.sol\":4717:4729  getRoleAdmin */\n      tag_41\n        /* \"@openzeppelin/contracts/access/AccessControl.sol\":4717:4735  getRoleAdmin(role) */\n      jump\t// in\n    tag_189:\n        /* \"@openzeppelin/contracts/access/AccessControl.sol\":2464:2480  _checkRole(role) */\n      tag_191\n        /* \"@openzeppelin/contracts/access/AccessControl.sol\":2475:2479  role */\n      dup2\n        /* \"@openzeppelin/contracts/access/AccessControl.sol\":2464:2474  _checkRole */\n      tag_130\n        /* \"@openzeppelin/contracts/access/AccessControl.sol\":2464:2480  _checkRole(role) */\n      jump\t// in\n    tag_191:\n        /* \"@openzeppelin/contracts/access/AccessControl.sol\":4747:4773  _revokeRole(role, account) */\n      tag_193\n        /* \"@openzeppelin/contracts/access/AccessControl.sol\":4759:4763  role */\n      dup4\n        /* \"@openzeppelin/contracts/access/AccessControl.sol\":4765:4772  account */\n      dup4\n        /* \"@openzeppelin/contracts/access/AccessControl.sol\":4747:4758  _revokeRole */\n      tag_157\n        /* \"@openzeppelin/contracts/access/AccessControl.sol\":4747:4773  _revokeRole(role, account) */\n      jump\t// in\n    tag_193:\n      pop\n        /* \"@openzeppelin/contracts/access/AccessControl.sol\":4642:4780  function revokeRole(bytes32 role, address account) public virtual onlyRole(getRoleAdmin(role)) {... */\n      pop\n      pop\n      pop\n      jump\t// out\n        /* \"allowance.sol\":3813:3918  function grantReviewerRole(address account) external {... */\n    tag_102:\n        /* \"allowance.sol\":3877:3910  grantRole(REVIEWER_ROLE, account) */\n      tag_195\n        /* \"allowance.sol\":315:341  keccak256(\"REVIEWER_ROLE\") */\n      0xc10c77be35aff266144ed64c26a1fa104bae2f284ae99ac4a34203454704a185\n        /* \"allowance.sol\":3902:3909  account */\n      dup3\n        /* \"allowance.sol\":3877:3886  grantRole */\n      tag_53\n        /* \"allowance.sol\":3877:3910  grantRole(REVIEWER_ROLE, account) */\n      jump\t// in\n    tag_195:\n        /* \"allowance.sol\":3813:3918  function grantReviewerRole(address account) external {... */\n      pop\n      jump\t// out\n        /* \"allowance.sol\":1356:1407  mapping(uint256 => Application) public applications */\n    tag_106:\n      mstore(0x20, 0x03)\n      dup1\n      0x00\n      mstore\n      keccak256(0x00, 0x40)\n      0x00\n      swap2\n      pop\n      swap1\n      pop\n      dup1\n      0x00\n      add\n      0x00\n      swap1\n      sload\n      swap1\n      0x0100\n      exp\n      swap1\n      div\n      0xffffffffffffffffffffffffffffffffffffffff\n      and\n      swap1\n      dup1\n      0x01\n      add\n      dup1\n      sload\n      tag_196\n      swap1\n      tag_197\n      jump\t// in\n    tag_196:\n      dup1\n      0x1f\n      add\n      0x20\n      dup1\n      swap2\n      div\n      mul\n      0x20\n      add\n      mload(0x40)\n      swap1\n      dup2\n      add\n      0x40\n      mstore\n      dup1\n      swap3\n      swap2\n      swap1\n      dup2\n      dup2\n      mstore\n      0x20\n      add\n      dup3\n      dup1\n      sload\n      tag_198\n      swap1\n      tag_197\n      jump\t// in\n    tag_198:\n      dup1\n      iszero\n      tag_199\n      jumpi\n      dup1\n      0x1f\n      lt\n      tag_200\n      jumpi\n      0x0100\n      dup1\n      dup4\n      sload\n      div\n      mul\n      dup4\n      mstore\n      swap2\n      0x20\n      add\n      swap2\n      jump(tag_199)\n    tag_200:\n      dup3\n      add\n      swap2\n      swap1\n      0x00\n      mstore\n      keccak256(0x00, 0x20)\n      swap1\n    tag_201:\n      dup2\n      sload\n      dup2\n      mstore\n      swap1\n      0x01\n      add\n      swap1\n      0x20\n      add\n      dup1\n      dup4\n      gt\n      tag_201\n      jumpi\n      dup3\n      swap1\n      sub\n      0x1f\n      and\n      dup3\n      add\n      swap2\n    tag_199:\n      pop\n      pop\n      pop\n      pop\n      pop\n      swap1\n      dup1\n      0x02\n      add\n      sload\n      swap1\n      dup1\n      0x03\n      add\n      0x00\n      swap1\n      sload\n      swap1\n      0x0100\n      exp\n      swap1\n      div\n      0xff\n      and\n      swap1\n      dup1\n      0x03\n      add\n      0x01\n      swap1\n      sload\n      swap1\n      0x0100\n      exp\n      swap1\n      div\n      0xff\n      and\n      swap1\n      dup1\n      0x03\n      add\n      0x02\n      swap1\n      sload\n      swap1\n      0x0100\n      exp\n      swap1\n      div\n      0xff\n      and\n      swap1\n      dup1\n      0x03\n      add\n      0x03\n      swap1\n      sload\n      swap1\n      0x0100\n      exp\n      swap1\n      div\n      0xff\n      and\n      swap1\n      dup1\n      0x03\n      add\n      0x04\n      swap1\n      sload\n      swap1\n      0x0100\n      exp\n      swap1\n      div\n      0xff\n      and\n      swap1\n      pop\n      dup9\n      jump\t// out\n        /* \"allowance.sol\":1131:1162  uint256 public applicationCount */\n    tag_111:\n      sload(0x01)\n      dup2\n      jump\t// out\n        /* \"allowance.sol\":6478:7799  function claimAllowance(uint256 applicationId) public {... */\n    tag_116:\n        /* \"allowance.sol\":6598:6628  Application memory application */\n      0x00\n        /* \"allowance.sol\":6631:6643  applications */\n      0x03\n        /* \"allowance.sol\":6631:6658  applications[applicationId] */\n      0x00\n        /* \"allowance.sol\":6644:6657  applicationId */\n      dup4\n        /* \"allowance.sol\":6631:6658  applications[applicationId] */\n      dup2\n      mstore\n      0x20\n      add\n      swap1\n      dup2\n      mstore\n      0x20\n      add\n      0x00\n      keccak256\n        /* \"allowance.sol\":6598:6658  Application memory application = applications[applicationId] */\n      mload(0x40)\n      dup1\n      0x0100\n      add\n      0x40\n      mstore\n      swap1\n      dup2\n      0x00\n      dup3\n      add\n      0x00\n      swap1\n      sload\n      swap1\n      0x0100\n      exp\n      swap1\n      div\n      0xffffffffffffffffffffffffffffffffffffffff\n      and\n      0xffffffffffffffffffffffffffffffffffffffff\n      and\n      0xffffffffffffffffffffffffffffffffffffffff\n      and\n      dup2\n      mstore\n      0x20\n      add\n      0x01\n      dup3\n      add\n      dup1\n      sload\n      tag_203\n      swap1\n      tag_197\n      jump\t// in\n    tag_203:\n      dup1\n      0x1f\n      add\n      0x20\n      dup1\n      swap2\n      div\n      mul\n      0x20\n      add\n      mload(0x40)\n      swap1\n      dup2\n      add\n      0x40\n      mstore\n      dup1\n      swap3\n      swap2\n      swap1\n      dup2\n      dup2\n      mstore\n      0x20\n      add\n      dup3\n      dup1\n      sload\n      tag_204\n      swap1\n      tag_197\n      jump\t// in\n    tag_204:\n      dup1\n      iszero\n      tag_205\n      jumpi\n      dup1\n      0x1f\n      lt\n      tag_206\n      jumpi\n      0x0100\n      dup1\n      dup4\n      sload\n      div\n      mul\n      dup4\n      mstore\n      swap2\n      0x20\n      add\n      swap2\n      jump(tag_205)\n    tag_206:\n      dup3\n      add\n      swap2\n      swap1\n      0x00\n      mstore\n      keccak256(0x00, 0x20)\n      swap1\n    tag_207:\n      dup2\n      sload\n      dup2\n      mstore\n      swap1\n      0x01\n      add\n      swap1\n      0x20\n      add\n      dup1\n      dup4\n      gt\n      tag_207\n      jumpi\n      dup3\n      swap1\n      sub\n      0x1f\n      and\n      dup3\n      add\n      swap2\n    tag_205:\n      pop\n      pop\n      pop\n      pop\n      pop\n      dup2\n      mstore\n      0x20\n      add\n      0x02\n      dup3\n      add\n      sload\n      dup2\n      mstore\n      0x20\n      add\n      0x03\n      dup3\n      add\n      0x00\n      swap1\n      sload\n      swap1\n      0x0100\n      exp\n      swap1\n      div\n      0xff\n      and\n      iszero\n      iszero\n      iszero\n      iszero\n      dup2\n      mstore\n      0x20\n      add\n      0x03\n      dup3\n      add\n      0x01\n      swap1\n      sload\n      swap1\n      0x0100\n      exp\n      swap1\n      div\n      0xff\n      and\n      0xff\n      and\n      0xff\n      and\n      dup2\n      mstore\n      0x20\n      add\n      0x03\n      dup3\n      add\n      0x02\n      swap1\n      sload\n      swap1\n      0x0100\n      exp\n      swap1\n      div\n      0xff\n      and\n      iszero\n      iszero\n      iszero\n      iszero\n      dup2\n      mstore\n      0x20\n      add\n      0x03\n      dup3\n      add\n      0x03\n      swap1\n      sload\n      swap1\n      0x0100\n      exp\n      swap1\n      div\n      0xff\n      and\n      iszero\n      iszero\n      iszero\n      iszero\n      dup2\n      mstore\n      0x20\n      add\n      0x03\n      dup3\n      add\n      0x04\n      swap1\n      sload\n      swap1\n      0x0100\n      exp\n      swap1\n      div\n      0xff\n      and\n      iszero\n      iszero\n      iszero\n      iszero\n      dup2\n      mstore\n      pop\n      pop\n      swap1\n      pop\n        /* \"allowance.sol\":6863:6873  msg.sender */\n      caller\n        /* \"allowance.sol\":6838:6873  application.applicant == msg.sender */\n      0xffffffffffffffffffffffffffffffffffffffff\n      and\n        /* \"allowance.sol\":6838:6849  application */\n      dup2\n        /* \"allowance.sol\":6838:6859  application.applicant */\n      0x00\n      add\n      mload\n        /* \"allowance.sol\":6838:6873  application.applicant == msg.sender */\n      0xffffffffffffffffffffffffffffffffffffffff\n      and\n      eq\n        /* \"allowance.sol\":6830:6930  require(application.applicant == msg.sender, \"Only wallet that submitted the application can claim\") */\n      tag_208\n      jumpi\n      mload(0x40)\n      0x08c379a000000000000000000000000000000000000000000000000000000000\n      dup2\n      mstore\n      0x04\n      add\n      tag_209\n      swap1\n      tag_210\n      jump\t// in\n    tag_209:\n      mload(0x40)\n      dup1\n      swap2\n      sub\n      swap1\n      revert\n    tag_208:\n        /* \"allowance.sol\":7020:7031  application */\n      dup1\n        /* \"allowance.sol\":7020:7040  application.approved */\n      0xa0\n      add\n      mload\n        /* \"allowance.sol\":7012:7069  require(application.approved, \"Application not approved\") */\n      tag_211\n      jumpi\n      mload(0x40)\n      0x08c379a000000000000000000000000000000000000000000000000000000000\n      dup2\n      mstore\n      0x04\n      add\n      tag_212\n      swap1\n      tag_213\n      jump\t// in\n    tag_212:\n      mload(0x40)\n      dup1\n      swap2\n      sub\n      swap1\n      revert\n    tag_211:\n        /* \"allowance.sol\":7153:7164  application */\n      dup1\n        /* \"allowance.sol\":7153:7172  application.claimed */\n      0xe0\n      add\n      mload\n        /* \"allowance.sol\":7152:7172  !application.claimed */\n      iszero\n        /* \"allowance.sol\":7144:7202  require(!application.claimed, \"Allowance already claimed\") */\n      tag_214\n      jumpi\n      mload(0x40)\n      0x08c379a000000000000000000000000000000000000000000000000000000000\n      dup2\n      mstore\n      0x04\n      add\n      tag_215\n      swap1\n      tag_216\n      jump\t// in\n    tag_215:\n      mload(0x40)\n      dup1\n      swap2\n      sub\n      swap1\n      revert\n    tag_214:\n        /* \"allowance.sol\":7392:7403  application */\n      dup1\n        /* \"allowance.sol\":7392:7410  application.amount */\n      0x40\n      add\n      mload\n        /* \"allowance.sol\":7367:7388  address(this).balance */\n      selfbalance\n        /* \"allowance.sol\":7367:7410  address(this).balance >= application.amount */\n      lt\n      iszero\n        /* \"allowance.sol\":7359:7433  require(address(this).balance >= application.amount, \"Insufficient funds\") */\n      tag_217\n      jumpi\n      mload(0x40)\n      0x08c379a000000000000000000000000000000000000000000000000000000000\n      dup2\n      mstore\n      0x04\n      add\n      tag_218\n      swap1\n      tag_219\n      jump\t// in\n    tag_218:\n      mload(0x40)\n      dup1\n      swap2\n      sub\n      swap1\n      revert\n    tag_217:\n        /* \"allowance.sol\":7537:7541  true */\n      0x01\n        /* \"allowance.sol\":7515:7526  application */\n      dup2\n        /* \"allowance.sol\":7515:7534  application.claimed */\n      0xe0\n      add\n        /* \"allowance.sol\":7515:7541  application.claimed = true */\n      swap1\n      iszero\n      iszero\n      swap1\n      dup2\n      iszero\n      iszero\n      dup2\n      mstore\n      pop\n      pop\n        /* \"allowance.sol\":7619:7629  msg.sender */\n      caller\n        /* \"allowance.sol\":7611:7639  payable(msg.sender).transfer */\n      0xffffffffffffffffffffffffffffffffffffffff\n      and\n        /* \"allowance.sol\":7611:7659  payable(msg.sender).transfer(application.amount) */\n      0x08fc\n        /* \"allowance.sol\":7640:7651  application */\n      dup3\n        /* \"allowance.sol\":7640:7658  application.amount */\n      0x40\n      add\n      mload\n        /* \"allowance.sol\":7611:7659  payable(msg.sender).transfer(application.amount) */\n      swap1\n      dup2\n      iszero\n      mul\n      swap1\n      mload(0x40)\n      0x00\n      mload(0x40)\n      dup1\n      dup4\n      sub\n      dup2\n      dup6\n      dup9\n      dup9\n      call\n      swap4\n      pop\n      pop\n      pop\n      pop\n      iszero\n      dup1\n      iszero\n      tag_221\n      jumpi\n      returndatasize\n      0x00\n      dup1\n      returndatacopy\n      revert(0x00, returndatasize)\n    tag_221:\n      pop\n        /* \"allowance.sol\":7728:7791  AllowanceClaimed(applicationId, msg.sender, application.amount) */\n      0x4c6d437bd8a94149f3ed73f0a111d5355bfeac87bb0fc41f0347452b26780f4f\n        /* \"allowance.sol\":7745:7758  applicationId */\n      dup3\n        /* \"allowance.sol\":7760:7770  msg.sender */\n      caller\n        /* \"allowance.sol\":7772:7783  application */\n      dup4\n        /* \"allowance.sol\":7772:7790  application.amount */\n      0x40\n      add\n      mload\n        /* \"allowance.sol\":7728:7791  AllowanceClaimed(applicationId, msg.sender, application.amount) */\n      mload(0x40)\n      tag_222\n      swap4\n      swap3\n      swap2\n      swap1\n      tag_172\n      jump\t// in\n    tag_222:\n      mload(0x40)\n      dup1\n      swap2\n      sub\n      swap1\n      log1\n        /* \"allowance.sol\":6532:7799  {... */\n      pop\n        /* \"allowance.sol\":6478:7799  function claimAllowance(uint256 applicationId) public {... */\n      pop\n      jump\t// out\n        /* \"allowance.sol\":3630:3751  function isReviewer(address account) public view returns (bool) {... */\n    tag_120:\n        /* \"allowance.sol\":3688:3692  bool */\n      0x00\n        /* \"allowance.sol\":3712:3743  hasRole(REVIEWER_ROLE, account) */\n      tag_224\n        /* \"allowance.sol\":315:341  keccak256(\"REVIEWER_ROLE\") */\n      0xc10c77be35aff266144ed64c26a1fa104bae2f284ae99ac4a34203454704a185\n        /* \"allowance.sol\":3735:3742  account */\n      dup4\n        /* \"allowance.sol\":3712:3719  hasRole */\n      tag_73\n        /* \"allowance.sol\":3712:3743  hasRole(REVIEWER_ROLE, account) */\n      jump\t// in\n    tag_224:\n        /* \"allowance.sol\":3705:3743  return hasRole(REVIEWER_ROLE, account) */\n      swap1\n      pop\n        /* \"allowance.sol\":3630:3751  function isReviewer(address account) public view returns (bool) {... */\n      swap2\n      swap1\n      pop\n      jump\t// out\n        /* \"@openzeppelin/contracts/utils/introspection/ERC165.sol\":762:908  function supportsInterface(bytes4 interfaceId) public view virtual returns (bool) {... */\n    tag_125:\n        /* \"@openzeppelin/contracts/utils/introspection/ERC165.sol\":838:842  bool */\n      0x00\n        /* \"@openzeppelin/contracts/utils/introspection/ERC165.sol\":876:901  type(IERC165).interfaceId */\n      0x01ffc9a700000000000000000000000000000000000000000000000000000000\n        /* \"@openzeppelin/contracts/utils/introspection/ERC165.sol\":861:901  interfaceId == type(IERC165).interfaceId */\n      not(0xffffffffffffffffffffffffffffffffffffffffffffffffffffffff)\n      and\n        /* \"@openzeppelin/contracts/utils/introspection/ERC165.sol\":861:872  interfaceId */\n      dup3\n        /* \"@openzeppelin/contracts/utils/introspection/ERC165.sol\":861:901  interfaceId == type(IERC165).interfaceId */\n      not(0xffffffffffffffffffffffffffffffffffffffffffffffffffffffff)\n      and\n      eq\n        /* \"@openzeppelin/contracts/utils/introspection/ERC165.sol\":854:901  return interfaceId == type(IERC165).interfaceId */\n      swap1\n      pop\n        /* \"@openzeppelin/contracts/utils/introspection/ERC165.sol\":762:908  function supportsInterface(bytes4 interfaceId) public view virtual returns (bool) {... */\n      swap2\n      swap1\n      pop\n      jump\t// out\n        /* \"@openzeppelin/contracts/access/AccessControl.sol\":3199:3302  function _checkRole(bytes32 role) internal view virtual {... */\n    tag_130:\n        /* \"@openzeppelin/contracts/access/AccessControl.sol\":3265:3295  _checkRole(role, _msgSender()) */\n      tag_227\n        /* \"@openzeppelin/contracts/access/AccessControl.sol\":3276:3280  role */\n      dup2\n        /* \"@openzeppelin/contracts/access/AccessControl.sol\":3282:3294  _msgSender() */\n      tag_228\n        /* \"@openzeppelin/contracts/access/AccessControl.sol\":3282:3292  _msgSender */\n      tag_154\n        /* \"@openzeppelin/contracts/access/AccessControl.sol\":3282:3294  _msgSender() */\n      jump\t// in\n    tag_228:\n        /* \"@openzeppelin/contracts/access/AccessControl.sol\":3265:3275  _checkRole */\n      tag_229\n        /* \"@openzeppelin/contracts/access/AccessControl.sol\":3265:3295  _checkRole(role, _msgSender()) */\n      jump\t// in\n    tag_227:\n        /* \"@openzeppelin/contracts/access/AccessControl.sol\":3199:3302  function _checkRole(bytes32 role) internal view virtual {... */\n      pop\n      jump\t// out\n        /* \"@openzeppelin/contracts/access/AccessControl.sol\":6179:6495  function _grantRole(bytes32 role, address account) internal virtual returns (bool) {... */\n    tag_138:\n        /* \"@openzeppelin/contracts/access/AccessControl.sol\":6256:6260  bool */\n      0x00\n        /* \"@openzeppelin/contracts/access/AccessControl.sol\":6277:6299  hasRole(role, account) */\n      tag_231\n        /* \"@openzeppelin/contracts/access/AccessControl.sol\":6285:6289  role */\n      dup4\n        /* \"@openzeppelin/contracts/access/AccessControl.sol\":6291:6298  account */\n      dup4\n        /* \"@openzeppelin/contracts/access/AccessControl.sol\":6277:6284  hasRole */\n      tag_73\n        /* \"@openzeppelin/contracts/access/AccessControl.sol\":6277:6299  hasRole(role, account) */\n      jump\t// in\n    tag_231:\n        /* \"@openzeppelin/contracts/access/AccessControl.sol\":6272:6489  if (!hasRole(role, account)) {... */\n      tag_232\n      jumpi\n        /* \"@openzeppelin/contracts/access/AccessControl.sol\":6347:6351  true */\n      0x01\n        /* \"@openzeppelin/contracts/access/AccessControl.sol\":6315:6321  _roles */\n      0x00\n        /* \"@openzeppelin/contracts/access/AccessControl.sol\":6315:6327  _roles[role] */\n      dup1\n        /* \"@openzeppelin/contracts/access/AccessControl.sol\":6322:6326  role */\n      dup6\n        /* \"@openzeppelin/contracts/access/AccessControl.sol\":6315:6327  _roles[role] */\n      dup2\n      mstore\n      0x20\n      add\n      swap1\n      dup2\n      mstore\n      0x20\n      add\n      0x00\n      keccak256\n        /* \"@openzeppelin/contracts/access/AccessControl.sol\":6315:6335  _roles[role].hasRole */\n      0x00\n      add\n        /* \"@openzeppelin/contracts/access/AccessControl.sol\":6315:6344  _roles[role].hasRole[account] */\n      0x00\n        /* \"@openzeppelin/contracts/access/AccessControl.sol\":6336:6343  account */\n      dup5\n        /* \"@openzeppelin/contracts/access/AccessControl.sol\":6315:6344  _roles[role].hasRole[account] */\n      0xffffffffffffffffffffffffffffffffffffffff\n      and\n      0xffffffffffffffffffffffffffffffffffffffff\n      and\n      dup2\n      mstore\n      0x20\n      add\n      swap1\n      dup2\n      mstore\n      0x20\n      add\n      0x00\n      keccak256\n      0x00\n        /* \"@openzeppelin/contracts/access/AccessControl.sol\":6315:6351  _roles[role].hasRole[account] = true */\n      0x0100\n      exp\n      dup2\n      sload\n      dup2\n      0xff\n      mul\n      not\n      and\n      swap1\n      dup4\n      iszero\n      iszero\n      mul\n      or\n      swap1\n      sstore\n      pop\n        /* \"@openzeppelin/contracts/access/AccessControl.sol\":6397:6409  _msgSender() */\n      tag_233\n        /* \"@openzeppelin/contracts/access/AccessControl.sol\":6397:6407  _msgSender */\n      tag_154\n        /* \"@openzeppelin/contracts/access/AccessControl.sol\":6397:6409  _msgSender() */\n      jump\t// in\n    tag_233:\n        /* \"@openzeppelin/contracts/access/AccessControl.sol\":6370:6410  RoleGranted(role, account, _msgSender()) */\n      0xffffffffffffffffffffffffffffffffffffffff\n      and\n        /* \"@openzeppelin/contracts/access/AccessControl.sol\":6388:6395  account */\n      dup3\n        /* \"@openzeppelin/contracts/access/AccessControl.sol\":6370:6410  RoleGranted(role, account, _msgSender()) */\n      0xffffffffffffffffffffffffffffffffffffffff\n      and\n        /* \"@openzeppelin/contracts/access/AccessControl.sol\":6382:6386  role */\n      dup5\n        /* \"@openzeppelin/contracts/access/AccessControl.sol\":6370:6410  RoleGranted(role, account, _msgSender()) */\n      0x2f8788117e7eff1d82e926ec794901d17c78024a50270940304540a733656f0d\n      mload(0x40)\n      mload(0x40)\n      dup1\n      swap2\n      sub\n      swap1\n      log4\n        /* \"@openzeppelin/contracts/access/AccessControl.sol\":6431:6435  true */\n      0x01\n        /* \"@openzeppelin/contracts/access/AccessControl.sol\":6424:6435  return true */\n      swap1\n      pop\n      jump(tag_230)\n        /* \"@openzeppelin/contracts/access/AccessControl.sol\":6272:6489  if (!hasRole(role, account)) {... */\n    tag_232:\n        /* \"@openzeppelin/contracts/access/AccessControl.sol\":6473:6478  false */\n      0x00\n        /* \"@openzeppelin/contracts/access/AccessControl.sol\":6466:6478  return false */\n      swap1\n      pop\n        /* \"@openzeppelin/contracts/access/AccessControl.sol\":6179:6495  function _grantRole(bytes32 role, address account) internal virtual returns (bool) {... */\n    tag_230:\n      swap3\n      swap2\n      pop\n      pop\n      jump\t// out\n        /* \"@openzeppelin/contracts/utils/Context.sol\":656:752  function _msgSender() internal view virtual returns (address) {... */\n    tag_154:\n        /* \"@openzeppelin/contracts/utils/Context.sol\":709:716  address */\n      0x00\n        /* \"@openzeppelin/contracts/utils/Context.sol\":735:745  msg.sender */\n      caller\n        /* \"@openzeppelin/contracts/utils/Context.sol\":728:745  return msg.sender */\n      swap1\n      pop\n        /* \"@openzeppelin/contracts/utils/Context.sol\":656:752  function _msgSender() internal view virtual returns (address) {... */\n      swap1\n      jump\t// out\n        /* \"@openzeppelin/contracts/access/AccessControl.sol\":6730:7047  function _revokeRole(bytes32 role, address account) internal virtual returns (bool) {... */\n    tag_157:\n        /* \"@openzeppelin/contracts/access/AccessControl.sol\":6808:6812  bool */\n      0x00\n        /* \"@openzeppelin/contracts/access/AccessControl.sol\":6828:6850  hasRole(role, account) */\n      tag_237\n        /* \"@openzeppelin/contracts/access/AccessControl.sol\":6836:6840  role */\n      dup4\n        /* \"@openzeppelin/contracts/access/AccessControl.sol\":6842:6849  account */\n      dup4\n        /* \"@openzeppelin/contracts/access/AccessControl.sol\":6828:6835  hasRole */\n      tag_73\n        /* \"@openzeppelin/contracts/access/AccessControl.sol\":6828:6850  hasRole(role, account) */\n      jump\t// in\n    tag_237:\n        /* \"@openzeppelin/contracts/access/AccessControl.sol\":6824:7041  if (hasRole(role, account)) {... */\n      iszero\n      tag_238\n      jumpi\n        /* \"@openzeppelin/contracts/access/AccessControl.sol\":6898:6903  false */\n      0x00\n        /* \"@openzeppelin/contracts/access/AccessControl.sol\":6866:6872  _roles */\n      dup1\n        /* \"@openzeppelin/contracts/access/AccessControl.sol\":6866:6878  _roles[role] */\n      0x00\n        /* \"@openzeppelin/contracts/access/AccessControl.sol\":6873:6877  role */\n      dup6\n        /* \"@openzeppelin/contracts/access/AccessControl.sol\":6866:6878  _roles[role] */\n      dup2\n      mstore\n      0x20\n      add\n      swap1\n      dup2\n      mstore\n      0x20\n      add\n      0x00\n      keccak256\n        /* \"@openzeppelin/contracts/access/AccessControl.sol\":6866:6886  _roles[role].hasRole */\n      0x00\n      add\n        /* \"@openzeppelin/contracts/access/AccessControl.sol\":6866:6895  _roles[role].hasRole[account] */\n      0x00\n        /* \"@openzeppelin/contracts/access/AccessControl.sol\":6887:6894  account */\n      dup5\n        /* \"@openzeppelin/contracts/access/AccessControl.sol\":6866:6895  _roles[role].hasRole[account] */\n      0xffffffffffffffffffffffffffffffffffffffff\n      and\n      0xffffffffffffffffffffffffffffffffffffffff\n      and\n      dup2\n      mstore\n      0x20\n      add\n      swap1\n      dup2\n      mstore\n      0x20\n      add\n      0x00\n      keccak256\n      0x00\n        /* \"@openzeppelin/contracts/access/AccessControl.sol\":6866:6903  _roles[role].hasRole[account] = false */\n      0x0100\n      exp\n      dup2\n      sload\n      dup2\n      0xff\n      mul\n      not\n      and\n      swap1\n      dup4\n      iszero\n      iszero\n      mul\n      or\n      swap1\n      sstore\n      pop\n        /* \"@openzeppelin/contracts/access/AccessControl.sol\":6949:6961  _msgSender() */\n      tag_239\n        /* \"@openzeppelin/contracts/access/AccessControl.sol\":6949:6959  _msgSender */\n      tag_154\n        /* \"@openzeppelin/contracts/access/AccessControl.sol\":6949:6961  _msgSender() */\n      jump\t// in\n    tag_239:\n        /* \"@openzeppelin/contracts/access/AccessControl.sol\":6922:6962  RoleRevoked(role, account, _msgSender()) */\n      0xffffffffffffffffffffffffffffffffffffffff\n      and\n        /* \"@openzeppelin/contracts/access/AccessControl.sol\":6940:6947  account */\n      dup3\n        /* \"@openzeppelin/contracts/access/AccessControl.sol\":6922:6962  RoleRevoked(role, account, _msgSender()) */\n      0xffffffffffffffffffffffffffffffffffffffff\n      and\n        /* \"@openzeppelin/contracts/access/AccessControl.sol\":6934:6938  role */\n      dup5\n        /* \"@openzeppelin/contracts/access/AccessControl.sol\":6922:6962  RoleRevoked(role, account, _msgSender()) */\n      0xf6391f5c32d9c69d2a47ea670b442974b53935d1edc7fd64eb21e047a839171b\n      mload(0x40)\n      mload(0x40)\n      dup1\n      swap2\n      sub\n      swap1\n      log4\n        /* \"@openzeppelin/contracts/access/AccessControl.sol\":6983:6987  true */\n      0x01\n        /* \"@openzeppelin/contracts/access/AccessControl.sol\":6976:6987  return true */\n      swap1\n      pop\n      jump(tag_236)\n        /* \"@openzeppelin/contracts/access/AccessControl.sol\":6824:7041  if (hasRole(role, account)) {... */\n    tag_238:\n        /* \"@openzeppelin/contracts/access/AccessControl.sol\":7025:7030  false */\n      0x00\n        /* \"@openzeppelin/contracts/access/AccessControl.sol\":7018:7030  return false */\n      swap1\n      pop\n        /* \"@openzeppelin/contracts/access/AccessControl.sol\":6730:7047  function _revokeRole(bytes32 role, address account) internal virtual returns (bool) {... */\n    tag_236:\n      swap3\n      swap2\n      pop\n      pop\n      jump\t// out\n        /* \"@openzeppelin/contracts/access/AccessControl.sol\":3432:3629  function _checkRole(bytes32 role, address account) internal view virtual {... */\n    tag_229:\n        /* \"@openzeppelin/contracts/access/AccessControl.sol\":3520:3542  hasRole(role, account) */\n      tag_242\n        /* \"@openzeppelin/contracts/access/AccessControl.sol\":3528:3532  role */\n      dup3\n        /* \"@openzeppelin/contracts/access/AccessControl.sol\":3534:3541  account */\n      dup3\n        /* \"@openzeppelin/contracts/access/AccessControl.sol\":3520:3527  hasRole */\n      tag_73\n        /* \"@openzeppelin/contracts/access/AccessControl.sol\":3520:3542  hasRole(role, account) */\n      jump\t// in\n    tag_242:\n        /* \"@openzeppelin/contracts/access/AccessControl.sol\":3515:3623  if (!hasRole(role, account)) {... */\n      tag_243\n      jumpi\n        /* \"@openzeppelin/contracts/access/AccessControl.sol\":3598:3605  account */\n      dup1\n        /* \"@openzeppelin/contracts/access/AccessControl.sol\":3607:3611  role */\n      dup3\n        /* \"@openzeppelin/contracts/access/AccessControl.sol\":3565:3612  AccessControlUnauthorizedAccount(account, role) */\n      mload(0x40)\n      0xe2517d3f00000000000000000000000000000000000000000000000000000000\n      dup2\n      mstore\n      0x04\n      add\n      tag_244\n      swap3\n      swap2\n      swap1\n      tag_245\n      jump\t// in\n    tag_244:\n      mload(0x40)\n      dup1\n      swap2\n      sub\n      swap1\n      revert\n        /* \"@openzeppelin/contracts/access/AccessControl.sol\":3515:3623  if (!hasRole(role, account)) {... */\n    tag_243:\n        /* \"@openzeppelin/contracts/access/AccessControl.sol\":3432:3629  function _checkRole(bytes32 role, address account) internal view virtual {... */\n      pop\n      pop\n      jump\t// out\n        /* \"#utility.yul\":7:82   */\n    tag_246:\n        /* \"#utility.yul\":40:46   */\n      0x00\n        /* \"#utility.yul\":73:75   */\n      0x40\n        /* \"#utility.yul\":67:76   */\n      mload\n        /* \"#utility.yul\":57:76   */\n      swap1\n      pop\n        /* \"#utility.yul\":7:82   */\n      swap1\n      jump\t// out\n        /* \"#utility.yul\":88:205   */\n    tag_247:\n        /* \"#utility.yul\":197:198   */\n      0x00\n        /* \"#utility.yul\":194:195   */\n      dup1\n        /* \"#utility.yul\":187:199   */\n      revert\n        /* \"#utility.yul\":211:328   */\n    tag_248:\n        /* \"#utility.yul\":320:321   */\n      0x00\n        /* \"#utility.yul\":317:318   */\n      dup1\n        /* \"#utility.yul\":310:322   */\n      revert\n        /* \"#utility.yul\":334:483   */\n    tag_249:\n        /* \"#utility.yul\":370:377   */\n      0x00\n        /* \"#utility.yul\":410:476   */\n      0xffffffff00000000000000000000000000000000000000000000000000000000\n        /* \"#utility.yul\":403:408   */\n      dup3\n        /* \"#utility.yul\":399:477   */\n      and\n        /* \"#utility.yul\":388:477   */\n      swap1\n      pop\n        /* \"#utility.yul\":334:483   */\n      swap2\n      swap1\n      pop\n      jump\t// out\n        /* \"#utility.yul\":489:609   */\n    tag_250:\n        /* \"#utility.yul\":561:584   */\n      tag_326\n        /* \"#utility.yul\":578:583   */\n      dup2\n        /* \"#utility.yul\":561:584   */\n      tag_249\n      jump\t// in\n    tag_326:\n        /* \"#utility.yul\":554:559   */\n      dup2\n        /* \"#utility.yul\":551:585   */\n      eq\n        /* \"#utility.yul\":541:603   */\n      tag_327\n      jumpi\n        /* \"#utility.yul\":599:600   */\n      0x00\n        /* \"#utility.yul\":596:597   */\n      dup1\n        /* \"#utility.yul\":589:601   */\n      revert\n        /* \"#utility.yul\":541:603   */\n    tag_327:\n        /* \"#utility.yul\":489:609   */\n      pop\n      jump\t// out\n        /* \"#utility.yul\":615:752   */\n    tag_251:\n        /* \"#utility.yul\":660:665   */\n      0x00\n        /* \"#utility.yul\":698:704   */\n      dup2\n        /* \"#utility.yul\":685:705   */\n      calldataload\n        /* \"#utility.yul\":676:705   */\n      swap1\n      pop\n        /* \"#utility.yul\":714:746   */\n      tag_329\n        /* \"#utility.yul\":740:745   */\n      dup2\n        /* \"#utility.yul\":714:746   */\n      tag_250\n      jump\t// in\n    tag_329:\n        /* \"#utility.yul\":615:752   */\n      swap3\n      swap2\n      pop\n      pop\n      jump\t// out\n        /* \"#utility.yul\":758:1085   */\n    tag_28:\n        /* \"#utility.yul\":816:822   */\n      0x00\n        /* \"#utility.yul\":865:867   */\n      0x20\n        /* \"#utility.yul\":853:862   */\n      dup3\n        /* \"#utility.yul\":844:851   */\n      dup5\n        /* \"#utility.yul\":840:863   */\n      sub\n        /* \"#utility.yul\":836:868   */\n      slt\n        /* \"#utility.yul\":833:952   */\n      iszero\n      tag_331\n      jumpi\n        /* \"#utility.yul\":871:950   */\n      tag_332\n      tag_247\n      jump\t// in\n    tag_332:\n        /* \"#utility.yul\":833:952   */\n    tag_331:\n        /* \"#utility.yul\":991:992   */\n      0x00\n        /* \"#utility.yul\":1016:1068   */\n      tag_333\n        /* \"#utility.yul\":1060:1067   */\n      dup5\n        /* \"#utility.yul\":1051:1057   */\n      dup3\n        /* \"#utility.yul\":1040:1049   */\n      dup6\n        /* \"#utility.yul\":1036:1058   */\n      add\n        /* \"#utility.yul\":1016:1068   */\n      tag_251\n      jump\t// in\n    tag_333:\n        /* \"#utility.yul\":1006:1068   */\n      swap2\n      pop\n        /* \"#utility.yul\":962:1078   */\n      pop\n        /* \"#utility.yul\":758:1085   */\n      swap3\n      swap2\n      pop\n      pop\n      jump\t// out\n        /* \"#utility.yul\":1091:1181   */\n    tag_252:\n        /* \"#utility.yul\":1125:1132   */\n      0x00\n        /* \"#utility.yul\":1168:1173   */\n      dup2\n        /* \"#utility.yul\":1161:1174   */\n      iszero\n        /* \"#utility.yul\":1154:1175   */\n      iszero\n        /* \"#utility.yul\":1143:1175   */\n      swap1\n      pop\n        /* \"#utility.yul\":1091:1181   */\n      swap2\n      swap1\n      pop\n      jump\t// out\n        /* \"#utility.yul\":1187:1296   */\n    tag_253:\n        /* \"#utility.yul\":1268:1289   */\n      tag_336\n        /* \"#utility.yul\":1283:1288   */\n      dup2\n        /* \"#utility.yul\":1268:1289   */\n      tag_252\n      jump\t// in\n    tag_336:\n        /* \"#utility.yul\":1263:1266   */\n      dup3\n        /* \"#utility.yul\":1256:1290   */\n      mstore\n        /* \"#utility.yul\":1187:1296   */\n      pop\n      pop\n      jump\t// out\n        /* \"#utility.yul\":1302:1512   */\n    tag_31:\n        /* \"#utility.yul\":1389:1393   */\n      0x00\n        /* \"#utility.yul\":1427:1429   */\n      0x20\n        /* \"#utility.yul\":1416:1425   */\n      dup3\n        /* \"#utility.yul\":1412:1430   */\n      add\n        /* \"#utility.yul\":1404:1430   */\n      swap1\n      pop\n        /* \"#utility.yul\":1440:1505   */\n      tag_338\n        /* \"#utility.yul\":1502:1503   */\n      0x00\n        /* \"#utility.yul\":1491:1500   */\n      dup4\n        /* \"#utility.yul\":1487:1504   */\n      add\n        /* \"#utility.yul\":1478:1484   */\n      dup5\n        /* \"#utility.yul\":1440:1505   */\n      tag_253\n      jump\t// in\n    tag_338:\n        /* \"#utility.yul\":1302:1512   */\n      swap3\n      swap2\n      pop\n      pop\n      jump\t// out\n        /* \"#utility.yul\":1518:1595   */\n    tag_254:\n        /* \"#utility.yul\":1555:1562   */\n      0x00\n        /* \"#utility.yul\":1584:1589   */\n      dup2\n        /* \"#utility.yul\":1573:1589   */\n      swap1\n      pop\n        /* \"#utility.yul\":1518:1595   */\n      swap2\n      swap1\n      pop\n      jump\t// out\n        /* \"#utility.yul\":1601:1719   */\n    tag_255:\n        /* \"#utility.yul\":1688:1712   */\n      tag_341\n        /* \"#utility.yul\":1706:1711   */\n      dup2\n        /* \"#utility.yul\":1688:1712   */\n      tag_254\n      jump\t// in\n    tag_341:\n        /* \"#utility.yul\":1683:1686   */\n      dup3\n        /* \"#utility.yul\":1676:1713   */\n      mstore\n        /* \"#utility.yul\":1601:1719   */\n      pop\n      pop\n      jump\t// out\n        /* \"#utility.yul\":1725:1947   */\n    tag_36:\n        /* \"#utility.yul\":1818:1822   */\n      0x00\n        /* \"#utility.yul\":1856:1858   */\n      0x20\n        /* \"#utility.yul\":1845:1854   */\n      dup3\n        /* \"#utility.yul\":1841:1859   */\n      add\n        /* \"#utility.yul\":1833:1859   */\n      swap1\n      pop\n        /* \"#utility.yul\":1869:1940   */\n      tag_343\n        /* \"#utility.yul\":1937:1938   */\n      0x00\n        /* \"#utility.yul\":1926:1935   */\n      dup4\n        /* \"#utility.yul\":1922:1939   */\n      add\n        /* \"#utility.yul\":1913:1919   */\n      dup5\n        /* \"#utility.yul\":1869:1940   */\n      tag_255\n      jump\t// in\n    tag_343:\n        /* \"#utility.yul\":1725:1947   */\n      swap3\n      swap2\n      pop\n      pop\n      jump\t// out\n        /* \"#utility.yul\":1953:2030   */\n    tag_256:\n        /* \"#utility.yul\":1990:1997   */\n      0x00\n        /* \"#utility.yul\":2019:2024   */\n      dup2\n        /* \"#utility.yul\":2008:2024   */\n      swap1\n      pop\n        /* \"#utility.yul\":1953:2030   */\n      swap2\n      swap1\n      pop\n      jump\t// out\n        /* \"#utility.yul\":2036:2158   */\n    tag_257:\n        /* \"#utility.yul\":2109:2133   */\n      tag_346\n        /* \"#utility.yul\":2127:2132   */\n      dup2\n        /* \"#utility.yul\":2109:2133   */\n      tag_256\n      jump\t// in\n    tag_346:\n        /* \"#utility.yul\":2102:2107   */\n      dup2\n        /* \"#utility.yul\":2099:2134   */\n      eq\n        /* \"#utility.yul\":2089:2152   */\n      tag_347\n      jumpi\n        /* \"#utility.yul\":2148:2149   */\n      0x00\n        /* \"#utility.yul\":2145:2146   */\n      dup1\n        /* \"#utility.yul\":2138:2150   */\n      revert\n        /* \"#utility.yul\":2089:2152   */\n    tag_347:\n        /* \"#utility.yul\":2036:2158   */\n      pop\n      jump\t// out\n        /* \"#utility.yul\":2164:2303   */\n    tag_258:\n        /* \"#utility.yul\":2210:2215   */\n      0x00\n        /* \"#utility.yul\":2248:2254   */\n      dup2\n        /* \"#utility.yul\":2235:2255   */\n      calldataload\n        /* \"#utility.yul\":2226:2255   */\n      swap1\n      pop\n        /* \"#utility.yul\":2264:2297   */\n      tag_349\n        /* \"#utility.yul\":2291:2296   */\n      dup2\n        /* \"#utility.yul\":2264:2297   */\n      tag_257\n      jump\t// in\n    tag_349:\n        /* \"#utility.yul\":2164:2303   */\n      swap3\n      swap2\n      pop\n      pop\n      jump\t// out\n        /* \"#utility.yul\":2309:2638   */\n    tag_40:\n        /* \"#utility.yul\":2368:2374   */\n      0x00\n        /* \"#utility.yul\":2417:2419   */\n      0x20\n        /* \"#utility.yul\":2405:2414   */\n      dup3\n        /* \"#utility.yul\":2396:2403   */\n      dup5\n        /* \"#utility.yul\":2392:2415   */\n      sub\n        /* \"#utility.yul\":2388:2420   */\n      slt\n        /* \"#utility.yul\":2385:2504   */\n      iszero\n      tag_351\n      jumpi\n        /* \"#utility.yul\":2423:2502   */\n      tag_352\n      tag_247\n      jump\t// in\n    tag_352:\n        /* \"#utility.yul\":2385:2504   */\n    tag_351:\n        /* \"#utility.yul\":2543:2544   */\n      0x00\n        /* \"#utility.yul\":2568:2621   */\n      tag_353\n        /* \"#utility.yul\":2613:2620   */\n      dup5\n        /* \"#utility.yul\":2604:2610   */\n      dup3\n        /* \"#utility.yul\":2593:2602   */\n      dup6\n        /* \"#utility.yul\":2589:2611   */\n      add\n        /* \"#utility.yul\":2568:2621   */\n      tag_258\n      jump\t// in\n    tag_353:\n        /* \"#utility.yul\":2558:2621   */\n      swap2\n      pop\n        /* \"#utility.yul\":2514:2631   */\n      pop\n        /* \"#utility.yul\":2309:2638   */\n      swap3\n      swap2\n      pop\n      pop\n      jump\t// out\n        /* \"#utility.yul\":2644:2762   */\n    tag_259:\n        /* \"#utility.yul\":2731:2755   */\n      tag_355\n        /* \"#utility.yul\":2749:2754   */\n      dup2\n        /* \"#utility.yul\":2731:2755   */\n      tag_256\n      jump\t// in\n    tag_355:\n        /* \"#utility.yul\":2726:2729   */\n      dup3\n        /* \"#utility.yul\":2719:2756   */\n      mstore\n        /* \"#utility.yul\":2644:2762   */\n      pop\n      pop\n      jump\t// out\n        /* \"#utility.yul\":2768:2990   */\n    tag_43:\n        /* \"#utility.yul\":2861:2865   */\n      0x00\n        /* \"#utility.yul\":2899:2901   */\n      0x20\n        /* \"#utility.yul\":2888:2897   */\n      dup3\n        /* \"#utility.yul\":2884:2902   */\n      add\n        /* \"#utility.yul\":2876:2902   */\n      swap1\n      pop\n        /* \"#utility.yul\":2912:2983   */\n      tag_357\n        /* \"#utility.yul\":2980:2981   */\n      0x00\n        /* \"#utility.yul\":2969:2978   */\n      dup4\n        /* \"#utility.yul\":2965:2982   */\n      add\n        /* \"#utility.yul\":2956:2962   */\n      dup5\n        /* \"#utility.yul\":2912:2983   */\n      tag_259\n      jump\t// in\n    tag_357:\n        /* \"#utility.yul\":2768:2990   */\n      swap3\n      swap2\n      pop\n      pop\n      jump\t// out\n        /* \"#utility.yul\":2996:3118   */\n    tag_260:\n        /* \"#utility.yul\":3069:3093   */\n      tag_359\n        /* \"#utility.yul\":3087:3092   */\n      dup2\n        /* \"#utility.yul\":3069:3093   */\n      tag_254\n      jump\t// in\n    tag_359:\n        /* \"#utility.yul\":3062:3067   */\n      dup2\n        /* \"#utility.yul\":3059:3094   */\n      eq\n        /* \"#utility.yul\":3049:3112   */\n      tag_360\n      jumpi\n        /* \"#utility.yul\":3108:3109   */\n      0x00\n        /* \"#utility.yul\":3105:3106   */\n      dup1\n        /* \"#utility.yul\":3098:3110   */\n      revert\n        /* \"#utility.yul\":3049:3112   */\n    tag_360:\n        /* \"#utility.yul\":2996:3118   */\n      pop\n      jump\t// out\n        /* \"#utility.yul\":3124:3263   */\n    tag_261:\n        /* \"#utility.yul\":3170:3175   */\n      0x00\n        /* \"#utility.yul\":3208:3214   */\n      dup2\n        /* \"#utility.yul\":3195:3215   */\n      calldataload\n        /* \"#utility.yul\":3186:3215   */\n      swap1\n      pop\n        /* \"#utility.yul\":3224:3257   */\n      tag_362\n        /* \"#utility.yul\":3251:3256   */\n      dup2\n        /* \"#utility.yul\":3224:3257   */\n      tag_260\n      jump\t// in\n    tag_362:\n        /* \"#utility.yul\":3124:3263   */\n      swap3\n      swap2\n      pop\n      pop\n      jump\t// out\n        /* \"#utility.yul\":3269:3598   */\n    tag_47:\n        /* \"#utility.yul\":3328:3334   */\n      0x00\n        /* \"#utility.yul\":3377:3379   */\n      0x20\n        /* \"#utility.yul\":3365:3374   */\n      dup3\n        /* \"#utility.yul\":3356:3363   */\n      dup5\n        /* \"#utility.yul\":3352:3375   */\n      sub\n        /* \"#utility.yul\":3348:3380   */\n      slt\n        /* \"#utility.yul\":3345:3464   */\n      iszero\n      tag_364\n      jumpi\n        /* \"#utility.yul\":3383:3462   */\n      tag_365\n      tag_247\n      jump\t// in\n    tag_365:\n        /* \"#utility.yul\":3345:3464   */\n    tag_364:\n        /* \"#utility.yul\":3503:3504   */\n      0x00\n        /* \"#utility.yul\":3528:3581   */\n      tag_366\n        /* \"#utility.yul\":3573:3580   */\n      dup5\n        /* \"#utility.yul\":3564:3570   */\n      dup3\n        /* \"#utility.yul\":3553:3562   */\n      dup6\n        /* \"#utility.yul\":3549:3571   */\n      add\n        /* \"#utility.yul\":3528:3581   */\n      tag_261\n      jump\t// in\n    tag_366:\n        /* \"#utility.yul\":3518:3581   */\n      swap2\n      pop\n        /* \"#utility.yul\":3474:3591   */\n      pop\n        /* \"#utility.yul\":3269:3598   */\n      swap3\n      swap2\n      pop\n      pop\n      jump\t// out\n        /* \"#utility.yul\":3604:3730   */\n    tag_262:\n        /* \"#utility.yul\":3641:3648   */\n      0x00\n        /* \"#utility.yul\":3681:3723   */\n      0xffffffffffffffffffffffffffffffffffffffff\n        /* \"#utility.yul\":3674:3679   */\n      dup3\n        /* \"#utility.yul\":3670:3724   */\n      and\n        /* \"#utility.yul\":3659:3724   */\n      swap1\n      pop\n        /* \"#utility.yul\":3604:3730   */\n      swap2\n      swap1\n      pop\n      jump\t// out\n        /* \"#utility.yul\":3736:3832   */\n    tag_263:\n        /* \"#utility.yul\":3773:3780   */\n      0x00\n        /* \"#utility.yul\":3802:3826   */\n      tag_369\n        /* \"#utility.yul\":3820:3825   */\n      dup3\n        /* \"#utility.yul\":3802:3826   */\n      tag_262\n      jump\t// in\n    tag_369:\n        /* \"#utility.yul\":3791:3826   */\n      swap1\n      pop\n        /* \"#utility.yul\":3736:3832   */\n      swap2\n      swap1\n      pop\n      jump\t// out\n        /* \"#utility.yul\":3838:3960   */\n    tag_264:\n        /* \"#utility.yul\":3911:3935   */\n      tag_371\n        /* \"#utility.yul\":3929:3934   */\n      dup2\n        /* \"#utility.yul\":3911:3935   */\n      tag_263\n      jump\t// in\n    tag_371:\n        /* \"#utility.yul\":3904:3909   */\n      dup2\n        /* \"#utility.yul\":3901:3936   */\n      eq\n        /* \"#utility.yul\":3891:3954   */\n      tag_372\n      jumpi\n        /* \"#utility.yul\":3950:3951   */\n      0x00\n        /* \"#utility.yul\":3947:3948   */\n      dup1\n        /* \"#utility.yul\":3940:3952   */\n      revert\n        /* \"#utility.yul\":3891:3954   */\n    tag_372:\n        /* \"#utility.yul\":3838:3960   */\n      pop\n      jump\t// out\n        /* \"#utility.yul\":3966:4105   */\n    tag_265:\n        /* \"#utility.yul\":4012:4017   */\n      0x00\n        /* \"#utility.yul\":4050:4056   */\n      dup2\n        /* \"#utility.yul\":4037:4057   */\n      calldataload\n        /* \"#utility.yul\":4028:4057   */\n      swap1\n      pop\n        /* \"#utility.yul\":4066:4099   */\n      tag_374\n        /* \"#utility.yul\":4093:4098   */\n      dup2\n        /* \"#utility.yul\":4066:4099   */\n      tag_264\n      jump\t// in\n    tag_374:\n        /* \"#utility.yul\":3966:4105   */\n      swap3\n      swap2\n      pop\n      pop\n      jump\t// out\n        /* \"#utility.yul\":4111:4585   */\n    tag_52:\n        /* \"#utility.yul\":4179:4185   */\n      0x00\n        /* \"#utility.yul\":4187:4193   */\n      dup1\n        /* \"#utility.yul\":4236:4238   */\n      0x40\n        /* \"#utility.yul\":4224:4233   */\n      dup4\n        /* \"#utility.yul\":4215:4222   */\n      dup6\n        /* \"#utility.yul\":4211:4234   */\n      sub\n        /* \"#utility.yul\":4207:4239   */\n      slt\n        /* \"#utility.yul\":4204:4323   */\n      iszero\n      tag_376\n      jumpi\n        /* \"#utility.yul\":4242:4321   */\n      tag_377\n      tag_247\n      jump\t// in\n    tag_377:\n        /* \"#utility.yul\":4204:4323   */\n    tag_376:\n        /* \"#utility.yul\":4362:4363   */\n      0x00\n        /* \"#utility.yul\":4387:4440   */\n      tag_378\n        /* \"#utility.yul\":4432:4439   */\n      dup6\n        /* \"#utility.yul\":4423:4429   */\n      dup3\n        /* \"#utility.yul\":4412:4421   */\n      dup7\n        /* \"#utility.yul\":4408:4430   */\n      add\n        /* \"#utility.yul\":4387:4440   */\n      tag_258\n      jump\t// in\n    tag_378:\n        /* \"#utility.yul\":4377:4440   */\n      swap3\n      pop\n        /* \"#utility.yul\":4333:4450   */\n      pop\n        /* \"#utility.yul\":4489:4491   */\n      0x20\n        /* \"#utility.yul\":4515:4568   */\n      tag_379\n        /* \"#utility.yul\":4560:4567   */\n      dup6\n        /* \"#utility.yul\":4551:4557   */\n      dup3\n        /* \"#utility.yul\":4540:4549   */\n      dup7\n        /* \"#utility.yul\":4536:4558   */\n      add\n        /* \"#utility.yul\":4515:4568   */\n      tag_265\n      jump\t// in\n    tag_379:\n        /* \"#utility.yul\":4505:4568   */\n      swap2\n      pop\n        /* \"#utility.yul\":4460:4578   */\n      pop\n        /* \"#utility.yul\":4111:4585   */\n      swap3\n      pop\n      swap3\n      swap1\n      pop\n      jump\t// out\n        /* \"#utility.yul\":4591:4708   */\n    tag_266:\n        /* \"#utility.yul\":4700:4701   */\n      0x00\n        /* \"#utility.yul\":4697:4698   */\n      dup1\n        /* \"#utility.yul\":4690:4702   */\n      revert\n        /* \"#utility.yul\":4714:4831   */\n    tag_267:\n        /* \"#utility.yul\":4823:4824   */\n      0x00\n        /* \"#utility.yul\":4820:4821   */\n      dup1\n        /* \"#utility.yul\":4813:4825   */\n      revert\n        /* \"#utility.yul\":4837:4939   */\n    tag_268:\n        /* \"#utility.yul\":4878:4884   */\n      0x00\n        /* \"#utility.yul\":4929:4931   */\n      0x1f\n        /* \"#utility.yul\":4925:4932   */\n      not\n        /* \"#utility.yul\":4920:4922   */\n      0x1f\n        /* \"#utility.yul\":4913:4918   */\n      dup4\n        /* \"#utility.yul\":4909:4923   */\n      add\n        /* \"#utility.yul\":4905:4933   */\n      and\n        /* \"#utility.yul\":4895:4933   */\n      swap1\n      pop\n        /* \"#utility.yul\":4837:4939   */\n      swap2\n      swap1\n      pop\n      jump\t// out\n        /* \"#utility.yul\":4945:5125   */\n    tag_269:\n        /* \"#utility.yul\":4993:5070   */\n      0x4e487b7100000000000000000000000000000000000000000000000000000000\n        /* \"#utility.yul\":4990:4991   */\n      0x00\n        /* \"#utility.yul\":4983:5071   */\n      mstore\n        /* \"#utility.yul\":5090:5094   */\n      0x41\n        /* \"#utility.yul\":5087:5088   */\n      0x04\n        /* \"#utility.yul\":5080:5095   */\n      mstore\n        /* \"#utility.yul\":5114:5118   */\n      0x24\n        /* \"#utility.yul\":5111:5112   */\n      0x00\n        /* \"#utility.yul\":5104:5119   */\n      revert\n        /* \"#utility.yul\":5131:5412   */\n    tag_270:\n        /* \"#utility.yul\":5214:5241   */\n      tag_385\n        /* \"#utility.yul\":5236:5240   */\n      dup3\n        /* \"#utility.yul\":5214:5241   */\n      tag_268\n      jump\t// in\n    tag_385:\n        /* \"#utility.yul\":5206:5212   */\n      dup2\n        /* \"#utility.yul\":5202:5242   */\n      add\n        /* \"#utility.yul\":5344:5350   */\n      dup2\n        /* \"#utility.yul\":5332:5342   */\n      dup2\n        /* \"#utility.yul\":5329:5351   */\n      lt\n        /* \"#utility.yul\":5308:5326   */\n      0xffffffffffffffff\n        /* \"#utility.yul\":5296:5306   */\n      dup3\n        /* \"#utility.yul\":5293:5327   */\n      gt\n        /* \"#utility.yul\":5290:5352   */\n      or\n        /* \"#utility.yul\":5287:5375   */\n      iszero\n      tag_386\n      jumpi\n        /* \"#utility.yul\":5355:5373   */\n      tag_387\n      tag_269\n      jump\t// in\n    tag_387:\n        /* \"#utility.yul\":5287:5375   */\n    tag_386:\n        /* \"#utility.yul\":5395:5405   */\n      dup1\n        /* \"#utility.yul\":5391:5393   */\n      0x40\n        /* \"#utility.yul\":5384:5406   */\n      mstore\n        /* \"#utility.yul\":5174:5412   */\n      pop\n        /* \"#utility.yul\":5131:5412   */\n      pop\n      pop\n      jump\t// out\n        /* \"#utility.yul\":5418:5547   */\n    tag_271:\n        /* \"#utility.yul\":5452:5458   */\n      0x00\n        /* \"#utility.yul\":5479:5499   */\n      tag_389\n      tag_246\n      jump\t// in\n    tag_389:\n        /* \"#utility.yul\":5469:5499   */\n      swap1\n      pop\n        /* \"#utility.yul\":5508:5541   */\n      tag_390\n        /* \"#utility.yul\":5536:5540   */\n      dup3\n        /* \"#utility.yul\":5528:5534   */\n      dup3\n        /* \"#utility.yul\":5508:5541   */\n      tag_270\n      jump\t// in\n    tag_390:\n        /* \"#utility.yul\":5418:5547   */\n      swap2\n      swap1\n      pop\n      jump\t// out\n        /* \"#utility.yul\":5553:5861   */\n    tag_272:\n        /* \"#utility.yul\":5615:5619   */\n      0x00\n        /* \"#utility.yul\":5705:5723   */\n      0xffffffffffffffff\n        /* \"#utility.yul\":5697:5703   */\n      dup3\n        /* \"#utility.yul\":5694:5724   */\n      gt\n        /* \"#utility.yul\":5691:5747   */\n      iszero\n      tag_392\n      jumpi\n        /* \"#utility.yul\":5727:5745   */\n      tag_393\n      tag_269\n      jump\t// in\n    tag_393:\n        /* \"#utility.yul\":5691:5747   */\n    tag_392:\n        /* \"#utility.yul\":5765:5794   */\n      tag_394\n        /* \"#utility.yul\":5787:5793   */\n      dup3\n        /* \"#utility.yul\":5765:5794   */\n      tag_268\n      jump\t// in\n    tag_394:\n        /* \"#utility.yul\":5757:5794   */\n      swap1\n      pop\n        /* \"#utility.yul\":5849:5853   */\n      0x20\n        /* \"#utility.yul\":5843:5847   */\n      dup2\n        /* \"#utility.yul\":5839:5854   */\n      add\n        /* \"#utility.yul\":5831:5854   */\n      swap1\n      pop\n        /* \"#utility.yul\":5553:5861   */\n      swap2\n      swap1\n      pop\n      jump\t// out\n        /* \"#utility.yul\":5867:6015   */\n    tag_273:\n        /* \"#utility.yul\":5965:5971   */\n      dup3\n        /* \"#utility.yul\":5960:5963   */\n      dup2\n        /* \"#utility.yul\":5955:5958   */\n      dup4\n        /* \"#utility.yul\":5942:5972   */\n      calldatacopy\n        /* \"#utility.yul\":6006:6007   */\n      0x00\n        /* \"#utility.yul\":5997:6003   */\n      dup4\n        /* \"#utility.yul\":5992:5995   */\n      dup4\n        /* \"#utility.yul\":5988:6004   */\n      add\n        /* \"#utility.yul\":5981:6008   */\n      mstore\n        /* \"#utility.yul\":5867:6015   */\n      pop\n      pop\n      pop\n      jump\t// out\n        /* \"#utility.yul\":6021:6446   */\n    tag_274:\n        /* \"#utility.yul\":6099:6104   */\n      0x00\n        /* \"#utility.yul\":6124:6190   */\n      tag_397\n        /* \"#utility.yul\":6140:6189   */\n      tag_398\n        /* \"#utility.yul\":6182:6188   */\n      dup5\n        /* \"#utility.yul\":6140:6189   */\n      tag_272\n      jump\t// in\n    tag_398:\n        /* \"#utility.yul\":6124:6190   */\n      tag_271\n      jump\t// in\n    tag_397:\n        /* \"#utility.yul\":6115:6190   */\n      swap1\n      pop\n        /* \"#utility.yul\":6213:6219   */\n      dup3\n        /* \"#utility.yul\":6206:6211   */\n      dup2\n        /* \"#utility.yul\":6199:6220   */\n      mstore\n        /* \"#utility.yul\":6251:6255   */\n      0x20\n        /* \"#utility.yul\":6244:6249   */\n      dup2\n        /* \"#utility.yul\":6240:6256   */\n      add\n        /* \"#utility.yul\":6289:6292   */\n      dup5\n        /* \"#utility.yul\":6280:6286   */\n      dup5\n        /* \"#utility.yul\":6275:6278   */\n      dup5\n        /* \"#utility.yul\":6271:6287   */\n      add\n        /* \"#utility.yul\":6268:6293   */\n      gt\n        /* \"#utility.yul\":6265:6377   */\n      iszero\n      tag_399\n      jumpi\n        /* \"#utility.yul\":6296:6375   */\n      tag_400\n      tag_267\n      jump\t// in\n    tag_400:\n        /* \"#utility.yul\":6265:6377   */\n    tag_399:\n        /* \"#utility.yul\":6386:6440   */\n      tag_401\n        /* \"#utility.yul\":6433:6439   */\n      dup5\n        /* \"#utility.yul\":6428:6431   */\n      dup3\n        /* \"#utility.yul\":6423:6426   */\n      dup6\n        /* \"#utility.yul\":6386:6440   */\n      tag_273\n      jump\t// in\n    tag_401:\n        /* \"#utility.yul\":6105:6446   */\n      pop\n        /* \"#utility.yul\":6021:6446   */\n      swap4\n      swap3\n      pop\n      pop\n      pop\n      jump\t// out\n        /* \"#utility.yul\":6466:6806   */\n    tag_275:\n        /* \"#utility.yul\":6522:6527   */\n      0x00\n        /* \"#utility.yul\":6571:6574   */\n      dup3\n        /* \"#utility.yul\":6564:6568   */\n      0x1f\n        /* \"#utility.yul\":6556:6562   */\n      dup4\n        /* \"#utility.yul\":6552:6569   */\n      add\n        /* \"#utility.yul\":6548:6575   */\n      slt\n        /* \"#utility.yul\":6538:6660   */\n      tag_403\n      jumpi\n        /* \"#utility.yul\":6579:6658   */\n      tag_404\n      tag_266\n      jump\t// in\n    tag_404:\n        /* \"#utility.yul\":6538:6660   */\n    tag_403:\n        /* \"#utility.yul\":6696:6702   */\n      dup2\n        /* \"#utility.yul\":6683:6703   */\n      calldataload\n        /* \"#utility.yul\":6721:6800   */\n      tag_405\n        /* \"#utility.yul\":6796:6799   */\n      dup5\n        /* \"#utility.yul\":6788:6794   */\n      dup3\n        /* \"#utility.yul\":6781:6785   */\n      0x20\n        /* \"#utility.yul\":6773:6779   */\n      dup7\n        /* \"#utility.yul\":6769:6786   */\n      add\n        /* \"#utility.yul\":6721:6800   */\n      tag_274\n      jump\t// in\n    tag_405:\n        /* \"#utility.yul\":6712:6800   */\n      swap2\n      pop\n        /* \"#utility.yul\":6528:6806   */\n      pop\n        /* \"#utility.yul\":6466:6806   */\n      swap3\n      swap2\n      pop\n      pop\n      jump\t// out\n        /* \"#utility.yul\":6812:7466   */\n    tag_67:\n        /* \"#utility.yul\":6890:6896   */\n      0x00\n        /* \"#utility.yul\":6898:6904   */\n      dup1\n        /* \"#utility.yul\":6947:6949   */\n      0x40\n        /* \"#utility.yul\":6935:6944   */\n      dup4\n        /* \"#utility.yul\":6926:6933   */\n      dup6\n        /* \"#utility.yul\":6922:6945   */\n      sub\n        /* \"#utility.yul\":6918:6950   */\n      slt\n        /* \"#utility.yul\":6915:7034   */\n      iszero\n      tag_407\n      jumpi\n        /* \"#utility.yul\":6953:7032   */\n      tag_408\n      tag_247\n      jump\t// in\n    tag_408:\n        /* \"#utility.yul\":6915:7034   */\n    tag_407:\n        /* \"#utility.yul\":7101:7102   */\n      0x00\n        /* \"#utility.yul\":7090:7099   */\n      dup4\n        /* \"#utility.yul\":7086:7103   */\n      add\n        /* \"#utility.yul\":7073:7104   */\n      calldataload\n        /* \"#utility.yul\":7131:7149   */\n      0xffffffffffffffff\n        /* \"#utility.yul\":7123:7129   */\n      dup2\n        /* \"#utility.yul\":7120:7150   */\n      gt\n        /* \"#utility.yul\":7117:7234   */\n      iszero\n      tag_409\n      jumpi\n        /* \"#utility.yul\":7153:7232   */\n      tag_410\n      tag_248\n      jump\t// in\n    tag_410:\n        /* \"#utility.yul\":7117:7234   */\n    tag_409:\n        /* \"#utility.yul\":7258:7321   */\n      tag_411\n        /* \"#utility.yul\":7313:7320   */\n      dup6\n        /* \"#utility.yul\":7304:7310   */\n      dup3\n        /* \"#utility.yul\":7293:7302   */\n      dup7\n        /* \"#utility.yul\":7289:7311   */\n      add\n        /* \"#utility.yul\":7258:7321   */\n      tag_275\n      jump\t// in\n    tag_411:\n        /* \"#utility.yul\":7248:7321   */\n      swap3\n      pop\n        /* \"#utility.yul\":7044:7331   */\n      pop\n        /* \"#utility.yul\":7370:7372   */\n      0x20\n        /* \"#utility.yul\":7396:7449   */\n      tag_412\n        /* \"#utility.yul\":7441:7448   */\n      dup6\n        /* \"#utility.yul\":7432:7438   */\n      dup3\n        /* \"#utility.yul\":7421:7430   */\n      dup7\n        /* \"#utility.yul\":7417:7439   */\n      add\n        /* \"#utility.yul\":7396:7449   */\n      tag_261\n      jump\t// in\n    tag_412:\n        /* \"#utility.yul\":7386:7449   */\n      swap2\n      pop\n        /* \"#utility.yul\":7341:7459   */\n      pop\n        /* \"#utility.yul\":6812:7466   */\n      swap3\n      pop\n      swap3\n      swap1\n      pop\n      jump\t// out\n        /* \"#utility.yul\":7472:7558   */\n    tag_276:\n        /* \"#utility.yul\":7507:7514   */\n      0x00\n        /* \"#utility.yul\":7547:7551   */\n      0xff\n        /* \"#utility.yul\":7540:7545   */\n      dup3\n        /* \"#utility.yul\":7536:7552   */\n      and\n        /* \"#utility.yul\":7525:7552   */\n      swap1\n      pop\n        /* \"#utility.yul\":7472:7558   */\n      swap2\n      swap1\n      pop\n      jump\t// out\n        /* \"#utility.yul\":7564:7676   */\n    tag_277:\n        /* \"#utility.yul\":7647:7669   */\n      tag_415\n        /* \"#utility.yul\":7663:7668   */\n      dup2\n        /* \"#utility.yul\":7647:7669   */\n      tag_276\n      jump\t// in\n    tag_415:\n        /* \"#utility.yul\":7642:7645   */\n      dup3\n        /* \"#utility.yul\":7635:7670   */\n      mstore\n        /* \"#utility.yul\":7564:7676   */\n      pop\n      pop\n      jump\t// out\n        /* \"#utility.yul\":7682:7896   */\n    tag_79:\n        /* \"#utility.yul\":7771:7775   */\n      0x00\n        /* \"#utility.yul\":7809:7811   */\n      0x20\n        /* \"#utility.yul\":7798:7807   */\n      dup3\n        /* \"#utility.yul\":7794:7812   */\n      add\n        /* \"#utility.yul\":7786:7812   */\n      swap1\n      pop\n        /* \"#utility.yul\":7822:7889   */\n      tag_417\n        /* \"#utility.yul\":7886:7887   */\n      0x00\n        /* \"#utility.yul\":7875:7884   */\n      dup4\n        /* \"#utility.yul\":7871:7888   */\n      add\n        /* \"#utility.yul\":7862:7868   */\n      dup5\n        /* \"#utility.yul\":7822:7889   */\n      tag_277\n      jump\t// in\n    tag_417:\n        /* \"#utility.yul\":7682:7896   */\n      swap3\n      swap2\n      pop\n      pop\n      jump\t// out\n        /* \"#utility.yul\":7902:8376   */\n    tag_87:\n        /* \"#utility.yul\":7970:7976   */\n      0x00\n        /* \"#utility.yul\":7978:7984   */\n      dup1\n        /* \"#utility.yul\":8027:8029   */\n      0x40\n        /* \"#utility.yul\":8015:8024   */\n      dup4\n        /* \"#utility.yul\":8006:8013   */\n      dup6\n        /* \"#utility.yul\":8002:8025   */\n      sub\n        /* \"#utility.yul\":7998:8030   */\n      slt\n        /* \"#utility.yul\":7995:8114   */\n      iszero\n      tag_419\n      jumpi\n        /* \"#utility.yul\":8033:8112   */\n      tag_420\n      tag_247\n      jump\t// in\n    tag_420:\n        /* \"#utility.yul\":7995:8114   */\n    tag_419:\n        /* \"#utility.yul\":8153:8154   */\n      0x00\n        /* \"#utility.yul\":8178:8231   */\n      tag_421\n        /* \"#utility.yul\":8223:8230   */\n      dup6\n        /* \"#utility.yul\":8214:8220   */\n      dup3\n        /* \"#utility.yul\":8203:8212   */\n      dup7\n        /* \"#utility.yul\":8199:8221   */\n      add\n        /* \"#utility.yul\":8178:8231   */\n      tag_261\n      jump\t// in\n    tag_421:\n        /* \"#utility.yul\":8168:8231   */\n      swap3\n      pop\n        /* \"#utility.yul\":8124:8241   */\n      pop\n        /* \"#utility.yul\":8280:8282   */\n      0x20\n        /* \"#utility.yul\":8306:8359   */\n      tag_422\n        /* \"#utility.yul\":8351:8358   */\n      dup6\n        /* \"#utility.yul\":8342:8348   */\n      dup3\n        /* \"#utility.yul\":8331:8340   */\n      dup7\n        /* \"#utility.yul\":8327:8349   */\n      add\n        /* \"#utility.yul\":8306:8359   */\n      tag_265\n      jump\t// in\n    tag_422:\n        /* \"#utility.yul\":8296:8359   */\n      swap2\n      pop\n        /* \"#utility.yul\":8251:8369   */\n      pop\n        /* \"#utility.yul\":7902:8376   */\n      swap3\n      pop\n      swap3\n      swap1\n      pop\n      jump\t// out\n        /* \"#utility.yul\":8382:8711   */\n    tag_101:\n        /* \"#utility.yul\":8441:8447   */\n      0x00\n        /* \"#utility.yul\":8490:8492   */\n      0x20\n        /* \"#utility.yul\":8478:8487   */\n      dup3\n        /* \"#utility.yul\":8469:8476   */\n      dup5\n        /* \"#utility.yul\":8465:8488   */\n      sub\n        /* \"#utility.yul\":8461:8493   */\n      slt\n        /* \"#utility.yul\":8458:8577   */\n      iszero\n      tag_424\n      jumpi\n        /* \"#utility.yul\":8496:8575   */\n      tag_425\n      tag_247\n      jump\t// in\n    tag_425:\n        /* \"#utility.yul\":8458:8577   */\n    tag_424:\n        /* \"#utility.yul\":8616:8617   */\n      0x00\n        /* \"#utility.yul\":8641:8694   */\n      tag_426\n        /* \"#utility.yul\":8686:8693   */\n      dup5\n        /* \"#utility.yul\":8677:8683   */\n      dup3\n        /* \"#utility.yul\":8666:8675   */\n      dup6\n        /* \"#utility.yul\":8662:8684   */\n      add\n        /* \"#utility.yul\":8641:8694   */\n      tag_265\n      jump\t// in\n    tag_426:\n        /* \"#utility.yul\":8631:8694   */\n      swap2\n      pop\n        /* \"#utility.yul\":8587:8704   */\n      pop\n        /* \"#utility.yul\":8382:8711   */\n      swap3\n      swap2\n      pop\n      pop\n      jump\t// out\n        /* \"#utility.yul\":8717:8835   */\n    tag_278:\n        /* \"#utility.yul\":8804:8828   */\n      tag_428\n        /* \"#utility.yul\":8822:8827   */\n      dup2\n        /* \"#utility.yul\":8804:8828   */\n      tag_263\n      jump\t// in\n    tag_428:\n        /* \"#utility.yul\":8799:8802   */\n      dup3\n        /* \"#utility.yul\":8792:8829   */\n      mstore\n        /* \"#utility.yul\":8717:8835   */\n      pop\n      pop\n      jump\t// out\n        /* \"#utility.yul\":8841:8940   */\n    tag_279:\n        /* \"#utility.yul\":8893:8899   */\n      0x00\n        /* \"#utility.yul\":8927:8932   */\n      dup2\n        /* \"#utility.yul\":8921:8933   */\n      mload\n        /* \"#utility.yul\":8911:8933   */\n      swap1\n      pop\n        /* \"#utility.yul\":8841:8940   */\n      swap2\n      swap1\n      pop\n      jump\t// out\n        /* \"#utility.yul\":8946:9115   */\n    tag_280:\n        /* \"#utility.yul\":9030:9041   */\n      0x00\n        /* \"#utility.yul\":9064:9070   */\n      dup3\n        /* \"#utility.yul\":9059:9062   */\n      dup3\n        /* \"#utility.yul\":9052:9071   */\n      mstore\n        /* \"#utility.yul\":9104:9108   */\n      0x20\n        /* \"#utility.yul\":9099:9102   */\n      dup3\n        /* \"#utility.yul\":9095:9109   */\n      add\n        /* \"#utility.yul\":9080:9109   */\n      swap1\n      pop\n        /* \"#utility.yul\":8946:9115   */\n      swap3\n      swap2\n      pop\n      pop\n      jump\t// out\n        /* \"#utility.yul\":9121:9260   */\n    tag_281:\n        /* \"#utility.yul\":9210:9216   */\n      dup3\n        /* \"#utility.yul\":9205:9208   */\n      dup2\n        /* \"#utility.yul\":9200:9203   */\n      dup4\n        /* \"#utility.yul\":9194:9217   */\n      mcopy\n        /* \"#utility.yul\":9251:9252   */\n      0x00\n        /* \"#utility.yul\":9242:9248   */\n      dup4\n        /* \"#utility.yul\":9237:9240   */\n      dup4\n        /* \"#utility.yul\":9233:9249   */\n      add\n        /* \"#utility.yul\":9226:9253   */\n      mstore\n        /* \"#utility.yul\":9121:9260   */\n      pop\n      pop\n      pop\n      jump\t// out\n        /* \"#utility.yul\":9266:9643   */\n    tag_282:\n        /* \"#utility.yul\":9354:9357   */\n      0x00\n        /* \"#utility.yul\":9382:9421   */\n      tag_433\n        /* \"#utility.yul\":9415:9420   */\n      dup3\n        /* \"#utility.yul\":9382:9421   */\n      tag_279\n      jump\t// in\n    tag_433:\n        /* \"#utility.yul\":9437:9508   */\n      tag_434\n        /* \"#utility.yul\":9501:9507   */\n      dup2\n        /* \"#utility.yul\":9496:9499   */\n      dup6\n        /* \"#utility.yul\":9437:9508   */\n      tag_280\n      jump\t// in\n    tag_434:\n        /* \"#utility.yul\":9430:9508   */\n      swap4\n      pop\n        /* \"#utility.yul\":9517:9582   */\n      tag_435\n        /* \"#utility.yul\":9575:9581   */\n      dup2\n        /* \"#utility.yul\":9570:9573   */\n      dup6\n        /* \"#utility.yul\":9563:9567   */\n      0x20\n        /* \"#utility.yul\":9556:9561   */\n      dup7\n        /* \"#utility.yul\":9552:9568   */\n      add\n        /* \"#utility.yul\":9517:9582   */\n      tag_281\n      jump\t// in\n    tag_435:\n        /* \"#utility.yul\":9607:9636   */\n      tag_436\n        /* \"#utility.yul\":9629:9635   */\n      dup2\n        /* \"#utility.yul\":9607:9636   */\n      tag_268\n      jump\t// in\n    tag_436:\n        /* \"#utility.yul\":9602:9605   */\n      dup5\n        /* \"#utility.yul\":9598:9637   */\n      add\n        /* \"#utility.yul\":9591:9637   */\n      swap2\n      pop\n        /* \"#utility.yul\":9358:9643   */\n      pop\n        /* \"#utility.yul\":9266:9643   */\n      swap3\n      swap2\n      pop\n      pop\n      jump\t// out\n        /* \"#utility.yul\":9649:10681   */\n    tag_108:\n        /* \"#utility.yul\":9930:9934   */\n      0x00\n        /* \"#utility.yul\":9968:9971   */\n      0x0100\n        /* \"#utility.yul\":9957:9966   */\n      dup3\n        /* \"#utility.yul\":9953:9972   */\n      add\n        /* \"#utility.yul\":9945:9972   */\n      swap1\n      pop\n        /* \"#utility.yul\":9982:10053   */\n      tag_438\n        /* \"#utility.yul\":10050:10051   */\n      0x00\n        /* \"#utility.yul\":10039:10048   */\n      dup4\n        /* \"#utility.yul\":10035:10052   */\n      add\n        /* \"#utility.yul\":10026:10032   */\n      dup12\n        /* \"#utility.yul\":9982:10053   */\n      tag_278\n      jump\t// in\n    tag_438:\n        /* \"#utility.yul\":10100:10109   */\n      dup2\n        /* \"#utility.yul\":10094:10098   */\n      dup2\n        /* \"#utility.yul\":10090:10110   */\n      sub\n        /* \"#utility.yul\":10085:10087   */\n      0x20\n        /* \"#utility.yul\":10074:10083   */\n      dup4\n        /* \"#utility.yul\":10070:10088   */\n      add\n        /* \"#utility.yul\":10063:10111   */\n      mstore\n        /* \"#utility.yul\":10128:10206   */\n      tag_439\n        /* \"#utility.yul\":10201:10205   */\n      dup2\n        /* \"#utility.yul\":10192:10198   */\n      dup11\n        /* \"#utility.yul\":10128:10206   */\n      tag_282\n      jump\t// in\n    tag_439:\n        /* \"#utility.yul\":10120:10206   */\n      swap1\n      pop\n        /* \"#utility.yul\":10216:10288   */\n      tag_440\n        /* \"#utility.yul\":10284:10286   */\n      0x40\n        /* \"#utility.yul\":10273:10282   */\n      dup4\n        /* \"#utility.yul\":10269:10287   */\n      add\n        /* \"#utility.yul\":10260:10266   */\n      dup10\n        /* \"#utility.yul\":10216:10288   */\n      tag_255\n      jump\t// in\n    tag_440:\n        /* \"#utility.yul\":10298:10364   */\n      tag_441\n        /* \"#utility.yul\":10360:10362   */\n      0x60\n        /* \"#utility.yul\":10349:10358   */\n      dup4\n        /* \"#utility.yul\":10345:10363   */\n      add\n        /* \"#utility.yul\":10336:10342   */\n      dup9\n        /* \"#utility.yul\":10298:10364   */\n      tag_253\n      jump\t// in\n    tag_441:\n        /* \"#utility.yul\":10374:10443   */\n      tag_442\n        /* \"#utility.yul\":10438:10441   */\n      0x80\n        /* \"#utility.yul\":10427:10436   */\n      dup4\n        /* \"#utility.yul\":10423:10442   */\n      add\n        /* \"#utility.yul\":10414:10420   */\n      dup8\n        /* \"#utility.yul\":10374:10443   */\n      tag_277\n      jump\t// in\n    tag_442:\n        /* \"#utility.yul\":10453:10520   */\n      tag_443\n        /* \"#utility.yul\":10515:10518   */\n      0xa0\n        /* \"#utility.yul\":10504:10513   */\n      dup4\n        /* \"#utility.yul\":10500:10519   */\n      add\n        /* \"#utility.yul\":10491:10497   */\n      dup7\n        /* \"#utility.yul\":10453:10520   */\n      tag_253\n      jump\t// in\n    tag_443:\n        /* \"#utility.yul\":10530:10597   */\n      tag_444\n        /* \"#utility.yul\":10592:10595   */\n      0xc0\n        /* \"#utility.yul\":10581:10590   */\n      dup4\n        /* \"#utility.yul\":10577:10596   */\n      add\n        /* \"#utility.yul\":10568:10574   */\n      dup6\n        /* \"#utility.yul\":10530:10597   */\n      tag_253\n      jump\t// in\n    tag_444:\n        /* \"#utility.yul\":10607:10674   */\n      tag_445\n        /* \"#utility.yul\":10669:10672   */\n      0xe0\n        /* \"#utility.yul\":10658:10667   */\n      dup4\n        /* \"#utility.yul\":10654:10673   */\n      add\n        /* \"#utility.yul\":10645:10651   */\n      dup5\n        /* \"#utility.yul\":10607:10674   */\n      tag_253\n      jump\t// in\n    tag_445:\n        /* \"#utility.yul\":9649:10681   */\n      swap10\n      swap9\n      pop\n      pop\n      pop\n      pop\n      pop\n      pop\n      pop\n      pop\n      pop\n      jump\t// out\n        /* \"#utility.yul\":10687:10869   */\n    tag_283:\n        /* \"#utility.yul\":10827:10861   */\n      0x416d6f756e74206d7573742062652067726561746572207468616e207a65726f\n        /* \"#utility.yul\":10823:10824   */\n      0x00\n        /* \"#utility.yul\":10815:10821   */\n      dup3\n        /* \"#utility.yul\":10811:10825   */\n      add\n        /* \"#utility.yul\":10804:10862   */\n      mstore\n        /* \"#utility.yul\":10687:10869   */\n      pop\n      jump\t// out\n        /* \"#utility.yul\":10875:11241   */\n    tag_284:\n        /* \"#utility.yul\":11017:11020   */\n      0x00\n        /* \"#utility.yul\":11038:11105   */\n      tag_448\n        /* \"#utility.yul\":11102:11104   */\n      0x20\n        /* \"#utility.yul\":11097:11100   */\n      dup4\n        /* \"#utility.yul\":11038:11105   */\n      tag_280\n      jump\t// in\n    tag_448:\n        /* \"#utility.yul\":11031:11105   */\n      swap2\n      pop\n        /* \"#utility.yul\":11114:11207   */\n      tag_449\n        /* \"#utility.yul\":11203:11206   */\n      dup3\n        /* \"#utility.yul\":11114:11207   */\n      tag_283\n      jump\t// in\n    tag_449:\n        /* \"#utility.yul\":11232:11234   */\n      0x20\n        /* \"#utility.yul\":11227:11230   */\n      dup3\n        /* \"#utility.yul\":11223:11235   */\n      add\n        /* \"#utility.yul\":11216:11235   */\n      swap1\n      pop\n        /* \"#utility.yul\":10875:11241   */\n      swap2\n      swap1\n      pop\n      jump\t// out\n        /* \"#utility.yul\":11247:11666   */\n    tag_144:\n        /* \"#utility.yul\":11413:11417   */\n      0x00\n        /* \"#utility.yul\":11451:11453   */\n      0x20\n        /* \"#utility.yul\":11440:11449   */\n      dup3\n        /* \"#utility.yul\":11436:11454   */\n      add\n        /* \"#utility.yul\":11428:11454   */\n      swap1\n      pop\n        /* \"#utility.yul\":11500:11509   */\n      dup2\n        /* \"#utility.yul\":11494:11498   */\n      dup2\n        /* \"#utility.yul\":11490:11510   */\n      sub\n        /* \"#utility.yul\":11486:11487   */\n      0x00\n        /* \"#utility.yul\":11475:11484   */\n      dup4\n        /* \"#utility.yul\":11471:11488   */\n      add\n        /* \"#utility.yul\":11464:11511   */\n      mstore\n        /* \"#utility.yul\":11528:11659   */\n      tag_451\n        /* \"#utility.yul\":11654:11658   */\n      dup2\n        /* \"#utility.yul\":11528:11659   */\n      tag_284\n      jump\t// in\n    tag_451:\n        /* \"#utility.yul\":11520:11659   */\n      swap1\n      pop\n        /* \"#utility.yul\":11247:11666   */\n      swap2\n      swap1\n      pop\n      jump\t// out\n        /* \"#utility.yul\":11672:11845   */\n    tag_285:\n        /* \"#utility.yul\":11812:11837   */\n      0x4d7573742073656e6420457468657220746f2066756e64000000000000000000\n        /* \"#utility.yul\":11808:11809   */\n      0x00\n        /* \"#utility.yul\":11800:11806   */\n      dup3\n        /* \"#utility.yul\":11796:11810   */\n      add\n        /* \"#utility.yul\":11789:11838   */\n      mstore\n        /* \"#utility.yul\":11672:11845   */\n      pop\n      jump\t// out\n        /* \"#utility.yul\":11851:12217   */\n    tag_286:\n        /* \"#utility.yul\":11993:11996   */\n      0x00\n        /* \"#utility.yul\":12014:12081   */\n      tag_454\n        /* \"#utility.yul\":12078:12080   */\n      0x17\n        /* \"#utility.yul\":12073:12076   */\n      dup4\n        /* \"#utility.yul\":12014:12081   */\n      tag_280\n      jump\t// in\n    tag_454:\n        /* \"#utility.yul\":12007:12081   */\n      swap2\n      pop\n        /* \"#utility.yul\":12090:12183   */\n      tag_455\n        /* \"#utility.yul\":12179:12182   */\n      dup3\n        /* \"#utility.yul\":12090:12183   */\n      tag_285\n      jump\t// in\n    tag_455:\n        /* \"#utility.yul\":12208:12210   */\n      0x20\n        /* \"#utility.yul\":12203:12206   */\n      dup3\n        /* \"#utility.yul\":12199:12211   */\n      add\n        /* \"#utility.yul\":12192:12211   */\n      swap1\n      pop\n        /* \"#utility.yul\":11851:12217   */\n      swap2\n      swap1\n      pop\n      jump\t// out\n        /* \"#utility.yul\":12223:12642   */\n    tag_147:\n        /* \"#utility.yul\":12389:12393   */\n      0x00\n        /* \"#utility.yul\":12427:12429   */\n      0x20\n        /* \"#utility.yul\":12416:12425   */\n      dup3\n        /* \"#utility.yul\":12412:12430   */\n      add\n        /* \"#utility.yul\":12404:12430   */\n      swap1\n      pop\n        /* \"#utility.yul\":12476:12485   */\n      dup2\n        /* \"#utility.yul\":12470:12474   */\n      dup2\n        /* \"#utility.yul\":12466:12486   */\n      sub\n        /* \"#utility.yul\":12462:12463   */\n      0x00\n        /* \"#utility.yul\":12451:12460   */\n      dup4\n        /* \"#utility.yul\":12447:12464   */\n      add\n        /* \"#utility.yul\":12440:12487   */\n      mstore\n        /* \"#utility.yul\":12504:12635   */\n      tag_457\n        /* \"#utility.yul\":12630:12634   */\n      dup2\n        /* \"#utility.yul\":12504:12635   */\n      tag_286\n      jump\t// in\n    tag_457:\n        /* \"#utility.yul\":12496:12635   */\n      swap1\n      pop\n        /* \"#utility.yul\":12223:12642   */\n      swap2\n      swap1\n      pop\n      jump\t// out\n        /* \"#utility.yul\":12648:12881   */\n    tag_287:\n        /* \"#utility.yul\":12788:12822   */\n      0x53656e742076616c756520646f6573206e6f74206d6174636820746865207370\n        /* \"#utility.yul\":12784:12785   */\n      0x00\n        /* \"#utility.yul\":12776:12782   */\n      dup3\n        /* \"#utility.yul\":12772:12786   */\n      add\n        /* \"#utility.yul\":12765:12823   */\n      mstore\n        /* \"#utility.yul\":12857:12873   */\n      0x6563696669656420616d6f756e74000000000000000000000000000000000000\n        /* \"#utility.yul\":12852:12854   */\n      0x20\n        /* \"#utility.yul\":12844:12850   */\n      dup3\n        /* \"#utility.yul\":12840:12855   */\n      add\n        /* \"#utility.yul\":12833:12874   */\n      mstore\n        /* \"#utility.yul\":12648:12881   */\n      pop\n      jump\t// out\n        /* \"#utility.yul\":12887:13253   */\n    tag_288:\n        /* \"#utility.yul\":13029:13032   */\n      0x00\n        /* \"#utility.yul\":13050:13117   */\n      tag_460\n        /* \"#utility.yul\":13114:13116   */\n      0x2e\n        /* \"#utility.yul\":13109:13112   */\n      dup4\n        /* \"#utility.yul\":13050:13117   */\n      tag_280\n      jump\t// in\n    tag_460:\n        /* \"#utility.yul\":13043:13117   */\n      swap2\n      pop\n        /* \"#utility.yul\":13126:13219   */\n      tag_461\n        /* \"#utility.yul\":13215:13218   */\n      dup3\n        /* \"#utility.yul\":13126:13219   */\n      tag_287\n      jump\t// in\n    tag_461:\n        /* \"#utility.yul\":13244:13246   */\n      0x40\n        /* \"#utility.yul\":13239:13242   */\n      dup3\n        /* \"#utility.yul\":13235:13247   */\n      add\n        /* \"#utility.yul\":13228:13247   */\n      swap1\n      pop\n        /* \"#utility.yul\":12887:13253   */\n      swap2\n      swap1\n      pop\n      jump\t// out\n        /* \"#utility.yul\":13259:13678   */\n    tag_150:\n        /* \"#utility.yul\":13425:13429   */\n      0x00\n        /* \"#utility.yul\":13463:13465   */\n      0x20\n        /* \"#utility.yul\":13452:13461   */\n      dup3\n        /* \"#utility.yul\":13448:13466   */\n      add\n        /* \"#utility.yul\":13440:13466   */\n      swap1\n      pop\n        /* \"#utility.yul\":13512:13521   */\n      dup2\n        /* \"#utility.yul\":13506:13510   */\n      dup2\n        /* \"#utility.yul\":13502:13522   */\n      sub\n        /* \"#utility.yul\":13498:13499   */\n      0x00\n        /* \"#utility.yul\":13487:13496   */\n      dup4\n        /* \"#utility.yul\":13483:13500   */\n      add\n        /* \"#utility.yul\":13476:13523   */\n      mstore\n        /* \"#utility.yul\":13540:13671   */\n      tag_463\n        /* \"#utility.yul\":13666:13670   */\n      dup2\n        /* \"#utility.yul\":13540:13671   */\n      tag_288\n      jump\t// in\n    tag_463:\n        /* \"#utility.yul\":13532:13671   */\n      swap1\n      pop\n        /* \"#utility.yul\":13259:13678   */\n      swap2\n      swap1\n      pop\n      jump\t// out\n        /* \"#utility.yul\":13684:13852   */\n    tag_289:\n        /* \"#utility.yul\":13824:13844   */\n      0x4e6f2066756e647320617661696c61626c650000000000000000000000000000\n        /* \"#utility.yul\":13820:13821   */\n      0x00\n        /* \"#utility.yul\":13812:13818   */\n      dup3\n        /* \"#utility.yul\":13808:13822   */\n      add\n        /* \"#utility.yul\":13801:13845   */\n      mstore\n        /* \"#utility.yul\":13684:13852   */\n      pop\n      jump\t// out\n        /* \"#utility.yul\":13858:14224   */\n    tag_290:\n        /* \"#utility.yul\":14000:14003   */\n      0x00\n        /* \"#utility.yul\":14021:14088   */\n      tag_466\n        /* \"#utility.yul\":14085:14087   */\n      0x12\n        /* \"#utility.yul\":14080:14083   */\n      dup4\n        /* \"#utility.yul\":14021:14088   */\n      tag_280\n      jump\t// in\n    tag_466:\n        /* \"#utility.yul\":14014:14088   */\n      swap2\n      pop\n        /* \"#utility.yul\":14097:14190   */\n      tag_467\n        /* \"#utility.yul\":14186:14189   */\n      dup3\n        /* \"#utility.yul\":14097:14190   */\n      tag_289\n      jump\t// in\n    tag_467:\n        /* \"#utility.yul\":14215:14217   */\n      0x20\n        /* \"#utility.yul\":14210:14213   */\n      dup3\n        /* \"#utility.yul\":14206:14218   */\n      add\n        /* \"#utility.yul\":14199:14218   */\n      swap1\n      pop\n        /* \"#utility.yul\":13858:14224   */\n      swap2\n      swap1\n      pop\n      jump\t// out\n        /* \"#utility.yul\":14230:14649   */\n    tag_163:\n        /* \"#utility.yul\":14396:14400   */\n      0x00\n        /* \"#utility.yul\":14434:14436   */\n      0x20\n        /* \"#utility.yul\":14423:14432   */\n      dup3\n        /* \"#utility.yul\":14419:14437   */\n      add\n        /* \"#utility.yul\":14411:14437   */\n      swap1\n      pop\n        /* \"#utility.yul\":14483:14492   */\n      dup2\n        /* \"#utility.yul\":14477:14481   */\n      dup2\n        /* \"#utility.yul\":14473:14493   */\n      sub\n        /* \"#utility.yul\":14469:14470   */\n      0x00\n        /* \"#utility.yul\":14458:14467   */\n      dup4\n        /* \"#utility.yul\":14454:14471   */\n      add\n        /* \"#utility.yul\":14447:14494   */\n      mstore\n        /* \"#utility.yul\":14511:14642   */\n      tag_469\n        /* \"#utility.yul\":14637:14641   */\n      dup2\n        /* \"#utility.yul\":14511:14642   */\n      tag_290\n      jump\t// in\n    tag_469:\n        /* \"#utility.yul\":14503:14642   */\n      swap1\n      pop\n        /* \"#utility.yul\":14230:14649   */\n      swap2\n      swap1\n      pop\n      jump\t// out\n        /* \"#utility.yul\":14655:14835   */\n    tag_291:\n        /* \"#utility.yul\":14703:14780   */\n      0x4e487b7100000000000000000000000000000000000000000000000000000000\n        /* \"#utility.yul\":14700:14701   */\n      0x00\n        /* \"#utility.yul\":14693:14781   */\n      mstore\n        /* \"#utility.yul\":14800:14804   */\n      0x11\n        /* \"#utility.yul\":14797:14798   */\n      0x04\n        /* \"#utility.yul\":14790:14805   */\n      mstore\n        /* \"#utility.yul\":14824:14828   */\n      0x24\n        /* \"#utility.yul\":14821:14822   */\n      0x00\n        /* \"#utility.yul\":14814:14829   */\n      revert\n        /* \"#utility.yul\":14841:15074   */\n    tag_168:\n        /* \"#utility.yul\":14880:14883   */\n      0x00\n        /* \"#utility.yul\":14903:14927   */\n      tag_472\n        /* \"#utility.yul\":14921:14926   */\n      dup3\n        /* \"#utility.yul\":14903:14927   */\n      tag_254\n      jump\t// in\n    tag_472:\n        /* \"#utility.yul\":14894:14927   */\n      swap2\n      pop\n        /* \"#utility.yul\":14949:15015   */\n      0xffffffffffffffffffffffffffffffffffffffffffffffffffffffffffffffff\n        /* \"#utility.yul\":14942:14947   */\n      dup3\n        /* \"#utility.yul\":14939:15016   */\n      sub\n        /* \"#utility.yul\":14936:15039   */\n      tag_473\n      jumpi\n        /* \"#utility.yul\":15019:15037   */\n      tag_474\n      tag_291\n      jump\t// in\n    tag_474:\n        /* \"#utility.yul\":14936:15039   */\n    tag_473:\n        /* \"#utility.yul\":15066:15067   */\n      0x01\n        /* \"#utility.yul\":15059:15064   */\n      dup3\n        /* \"#utility.yul\":15055:15068   */\n      add\n        /* \"#utility.yul\":15048:15068   */\n      swap1\n      pop\n        /* \"#utility.yul\":14841:15074   */\n      swap2\n      swap1\n      pop\n      jump\t// out\n        /* \"#utility.yul\":15080:15260   */\n    tag_292:\n        /* \"#utility.yul\":15128:15205   */\n      0x4e487b7100000000000000000000000000000000000000000000000000000000\n        /* \"#utility.yul\":15125:15126   */\n      0x00\n        /* \"#utility.yul\":15118:15206   */\n      mstore\n        /* \"#utility.yul\":15225:15229   */\n      0x22\n        /* \"#utility.yul\":15222:15223   */\n      0x04\n        /* \"#utility.yul\":15215:15230   */\n      mstore\n        /* \"#utility.yul\":15249:15253   */\n      0x24\n        /* \"#utility.yul\":15246:15247   */\n      0x00\n        /* \"#utility.yul\":15239:15254   */\n      revert\n        /* \"#utility.yul\":15266:15586   */\n    tag_197:\n        /* \"#utility.yul\":15310:15316   */\n      0x00\n        /* \"#utility.yul\":15347:15348   */\n      0x02\n        /* \"#utility.yul\":15341:15345   */\n      dup3\n        /* \"#utility.yul\":15337:15349   */\n      div\n        /* \"#utility.yul\":15327:15349   */\n      swap1\n      pop\n        /* \"#utility.yul\":15394:15395   */\n      0x01\n        /* \"#utility.yul\":15388:15392   */\n      dup3\n        /* \"#utility.yul\":15384:15396   */\n      and\n        /* \"#utility.yul\":15415:15433   */\n      dup1\n        /* \"#utility.yul\":15405:15486   */\n      tag_477\n      jumpi\n        /* \"#utility.yul\":15471:15475   */\n      0x7f\n        /* \"#utility.yul\":15463:15469   */\n      dup3\n        /* \"#utility.yul\":15459:15476   */\n      and\n        /* \"#utility.yul\":15449:15476   */\n      swap2\n      pop\n        /* \"#utility.yul\":15405:15486   */\n    tag_477:\n        /* \"#utility.yul\":15533:15535   */\n      0x20\n        /* \"#utility.yul\":15525:15531   */\n      dup3\n        /* \"#utility.yul\":15522:15536   */\n      lt\n        /* \"#utility.yul\":15502:15520   */\n      dup2\n        /* \"#utility.yul\":15499:15537   */\n      sub\n        /* \"#utility.yul\":15496:15580   */\n      tag_478\n      jumpi\n        /* \"#utility.yul\":15552:15570   */\n      tag_479\n      tag_292\n      jump\t// in\n    tag_479:\n        /* \"#utility.yul\":15496:15580   */\n    tag_478:\n        /* \"#utility.yul\":15317:15586   */\n      pop\n        /* \"#utility.yul\":15266:15586   */\n      swap2\n      swap1\n      pop\n      jump\t// out\n        /* \"#utility.yul\":15592:15733   */\n    tag_293:\n        /* \"#utility.yul\":15641:15645   */\n      0x00\n        /* \"#utility.yul\":15664:15667   */\n      dup2\n        /* \"#utility.yul\":15656:15667   */\n      swap1\n      pop\n        /* \"#utility.yul\":15687:15690   */\n      dup2\n        /* \"#utility.yul\":15684:15685   */\n      0x00\n        /* \"#utility.yul\":15677:15691   */\n      mstore\n        /* \"#utility.yul\":15721:15725   */\n      0x20\n        /* \"#utility.yul\":15718:15719   */\n      0x00\n        /* \"#utility.yul\":15708:15726   */\n      keccak256\n        /* \"#utility.yul\":15700:15726   */\n      swap1\n      pop\n        /* \"#utility.yul\":15592:15733   */\n      swap2\n      swap1\n      pop\n      jump\t// out\n        /* \"#utility.yul\":15739:15832   */\n    tag_294:\n        /* \"#utility.yul\":15776:15782   */\n      0x00\n        /* \"#utility.yul\":15823:15825   */\n      0x20\n        /* \"#utility.yul\":15818:15820   */\n      0x1f\n        /* \"#utility.yul\":15811:15816   */\n      dup4\n        /* \"#utility.yul\":15807:15821   */\n      add\n        /* \"#utility.yul\":15803:15826   */\n      div\n        /* \"#utility.yul\":15793:15826   */\n      swap1\n      pop\n        /* \"#utility.yul\":15739:15832   */\n      swap2\n      swap1\n      pop\n      jump\t// out\n        /* \"#utility.yul\":15838:15945   */\n    tag_295:\n        /* \"#utility.yul\":15882:15890   */\n      0x00\n        /* \"#utility.yul\":15932:15937   */\n      dup3\n        /* \"#utility.yul\":15926:15930   */\n      dup3\n        /* \"#utility.yul\":15922:15938   */\n      shl\n        /* \"#utility.yul\":15901:15938   */\n      swap1\n      pop\n        /* \"#utility.yul\":15838:15945   */\n      swap3\n      swap2\n      pop\n      pop\n      jump\t// out\n        /* \"#utility.yul\":15951:16344   */\n    tag_296:\n        /* \"#utility.yul\":16020:16026   */\n      0x00\n        /* \"#utility.yul\":16070:16071   */\n      0x08\n        /* \"#utility.yul\":16058:16068   */\n      dup4\n        /* \"#utility.yul\":16054:16072   */\n      mul\n        /* \"#utility.yul\":16093:16190   */\n      tag_484\n        /* \"#utility.yul\":16123:16189   */\n      0xffffffffffffffffffffffffffffffffffffffffffffffffffffffffffffffff\n        /* \"#utility.yul\":16112:16121   */\n      dup3\n        /* \"#utility.yul\":16093:16190   */\n      tag_295\n      jump\t// in\n    tag_484:\n        /* \"#utility.yul\":16211:16250   */\n      tag_485\n        /* \"#utility.yul\":16241:16249   */\n      dup7\n        /* \"#utility.yul\":16230:16239   */\n      dup4\n        /* \"#utility.yul\":16211:16250   */\n      tag_295\n      jump\t// in\n    tag_485:\n        /* \"#utility.yul\":16199:16250   */\n      swap6\n      pop\n        /* \"#utility.yul\":16283:16287   */\n      dup1\n        /* \"#utility.yul\":16279:16288   */\n      not\n        /* \"#utility.yul\":16272:16277   */\n      dup5\n        /* \"#utility.yul\":16268:16289   */\n      and\n        /* \"#utility.yul\":16259:16289   */\n      swap4\n      pop\n        /* \"#utility.yul\":16332:16336   */\n      dup1\n        /* \"#utility.yul\":16322:16330   */\n      dup7\n        /* \"#utility.yul\":16318:16337   */\n      and\n        /* \"#utility.yul\":16311:16316   */\n      dup5\n        /* \"#utility.yul\":16308:16338   */\n      or\n        /* \"#utility.yul\":16298:16338   */\n      swap3\n      pop\n        /* \"#utility.yul\":16027:16344   */\n      pop\n      pop\n        /* \"#utility.yul\":15951:16344   */\n      swap4\n      swap3\n      pop\n      pop\n      pop\n      jump\t// out\n        /* \"#utility.yul\":16350:16410   */\n    tag_297:\n        /* \"#utility.yul\":16378:16381   */\n      0x00\n        /* \"#utility.yul\":16399:16404   */\n      dup2\n        /* \"#utility.yul\":16392:16404   */\n      swap1\n      pop\n        /* \"#utility.yul\":16350:16410   */\n      swap2\n      swap1\n      pop\n      jump\t// out\n        /* \"#utility.yul\":16416:16558   */\n    tag_298:\n        /* \"#utility.yul\":16466:16475   */\n      0x00\n        /* \"#utility.yul\":16499:16552   */\n      tag_488\n        /* \"#utility.yul\":16517:16551   */\n      tag_489\n        /* \"#utility.yul\":16526:16550   */\n      tag_490\n        /* \"#utility.yul\":16544:16549   */\n      dup5\n        /* \"#utility.yul\":16526:16550   */\n      tag_254\n      jump\t// in\n    tag_490:\n        /* \"#utility.yul\":16517:16551   */\n      tag_297\n      jump\t// in\n    tag_489:\n        /* \"#utility.yul\":16499:16552   */\n      tag_254\n      jump\t// in\n    tag_488:\n        /* \"#utility.yul\":16486:16552   */\n      swap1\n      pop\n        /* \"#utility.yul\":16416:16558   */\n      swap2\n      swap1\n      pop\n      jump\t// out\n        /* \"#utility.yul\":16564:16639   */\n    tag_299:\n        /* \"#utility.yul\":16607:16610   */\n      0x00\n        /* \"#utility.yul\":16628:16633   */\n      dup2\n        /* \"#utility.yul\":16621:16633   */\n      swap1\n      pop\n        /* \"#utility.yul\":16564:16639   */\n      swap2\n      swap1\n      pop\n      jump\t// out\n        /* \"#utility.yul\":16645:16914   */\n    tag_300:\n        /* \"#utility.yul\":16755:16794   */\n      tag_493\n        /* \"#utility.yul\":16786:16793   */\n      dup4\n        /* \"#utility.yul\":16755:16794   */\n      tag_298\n      jump\t// in\n    tag_493:\n        /* \"#utility.yul\":16816:16907   */\n      tag_494\n        /* \"#utility.yul\":16865:16906   */\n      tag_495\n        /* \"#utility.yul\":16889:16905   */\n      dup3\n        /* \"#utility.yul\":16865:16906   */\n      tag_299\n      jump\t// in\n    tag_495:\n        /* \"#utility.yul\":16857:16863   */\n      dup5\n        /* \"#utility.yul\":16850:16854   */\n      dup5\n        /* \"#utility.yul\":16844:16855   */\n      sload\n        /* \"#utility.yul\":16816:16907   */\n      tag_296\n      jump\t// in\n    tag_494:\n        /* \"#utility.yul\":16810:16814   */\n      dup3\n        /* \"#utility.yul\":16803:16908   */\n      sstore\n        /* \"#utility.yul\":16721:16914   */\n      pop\n        /* \"#utility.yul\":16645:16914   */\n      pop\n      pop\n      pop\n      jump\t// out\n        /* \"#utility.yul\":16920:16993   */\n    tag_301:\n        /* \"#utility.yul\":16965:16968   */\n      0x00\n        /* \"#utility.yul\":16920:16993   */\n      swap1\n      jump\t// out\n        /* \"#utility.yul\":16999:17188   */\n    tag_302:\n        /* \"#utility.yul\":17076:17108   */\n      tag_498\n      tag_301\n      jump\t// in\n    tag_498:\n        /* \"#utility.yul\":17117:17182   */\n      tag_499\n        /* \"#utility.yul\":17175:17181   */\n      dup2\n        /* \"#utility.yul\":17167:17173   */\n      dup5\n        /* \"#utility.yul\":17161:17165   */\n      dup5\n        /* \"#utility.yul\":17117:17182   */\n      tag_300\n      jump\t// in\n    tag_499:\n        /* \"#utility.yul\":17052:17188   */\n      pop\n        /* \"#utility.yul\":16999:17188   */\n      pop\n      pop\n      jump\t// out\n        /* \"#utility.yul\":17194:17380   */\n    tag_303:\n        /* \"#utility.yul\":17254:17374   */\n    tag_501:\n        /* \"#utility.yul\":17271:17274   */\n      dup2\n        /* \"#utility.yul\":17264:17269   */\n      dup2\n        /* \"#utility.yul\":17261:17275   */\n      lt\n        /* \"#utility.yul\":17254:17374   */\n      iszero\n      tag_503\n      jumpi\n        /* \"#utility.yul\":17325:17364   */\n      tag_504\n        /* \"#utility.yul\":17362:17363   */\n      0x00\n        /* \"#utility.yul\":17355:17360   */\n      dup3\n        /* \"#utility.yul\":17325:17364   */\n      tag_302\n      jump\t// in\n    tag_504:\n        /* \"#utility.yul\":17298:17299   */\n      0x01\n        /* \"#utility.yul\":17291:17296   */\n      dup2\n        /* \"#utility.yul\":17287:17300   */\n      add\n        /* \"#utility.yul\":17278:17300   */\n      swap1\n      pop\n        /* \"#utility.yul\":17254:17374   */\n      jump(tag_501)\n    tag_503:\n        /* \"#utility.yul\":17194:17380   */\n      pop\n      pop\n      jump\t// out\n        /* \"#utility.yul\":17386:17929   */\n    tag_304:\n        /* \"#utility.yul\":17487:17489   */\n      0x1f\n        /* \"#utility.yul\":17482:17485   */\n      dup3\n        /* \"#utility.yul\":17479:17490   */\n      gt\n        /* \"#utility.yul\":17476:17922   */\n      iszero\n      tag_506\n      jumpi\n        /* \"#utility.yul\":17521:17559   */\n      tag_507\n        /* \"#utility.yul\":17553:17558   */\n      dup2\n        /* \"#utility.yul\":17521:17559   */\n      tag_293\n      jump\t// in\n    tag_507:\n        /* \"#utility.yul\":17605:17634   */\n      tag_508\n        /* \"#utility.yul\":17623:17633   */\n      dup5\n        /* \"#utility.yul\":17605:17634   */\n      tag_294\n      jump\t// in\n    tag_508:\n        /* \"#utility.yul\":17595:17603   */\n      dup2\n        /* \"#utility.yul\":17591:17635   */\n      add\n        /* \"#utility.yul\":17788:17790   */\n      0x20\n        /* \"#utility.yul\":17776:17786   */\n      dup6\n        /* \"#utility.yul\":17773:17791   */\n      lt\n        /* \"#utility.yul\":17770:17819   */\n      iszero\n      tag_509\n      jumpi\n        /* \"#utility.yul\":17809:17817   */\n      dup2\n        /* \"#utility.yul\":17794:17817   */\n      swap1\n      pop\n        /* \"#utility.yul\":17770:17819   */\n    tag_509:\n        /* \"#utility.yul\":17832:17912   */\n      tag_510\n        /* \"#utility.yul\":17888:17910   */\n      tag_511\n        /* \"#utility.yul\":17906:17909   */\n      dup6\n        /* \"#utility.yul\":17888:17910   */\n      tag_294\n      jump\t// in\n    tag_511:\n        /* \"#utility.yul\":17878:17886   */\n      dup4\n        /* \"#utility.yul\":17874:17911   */\n      add\n        /* \"#utility.yul\":17861:17872   */\n      dup3\n        /* \"#utility.yul\":17832:17912   */\n      tag_303\n      jump\t// in\n    tag_510:\n        /* \"#utility.yul\":17491:17922   */\n      pop\n      pop\n        /* \"#utility.yul\":17476:17922   */\n    tag_506:\n        /* \"#utility.yul\":17386:17929   */\n      pop\n      pop\n      pop\n      jump\t// out\n        /* \"#utility.yul\":17935:18052   */\n    tag_305:\n        /* \"#utility.yul\":17989:17997   */\n      0x00\n        /* \"#utility.yul\":18039:18044   */\n      dup3\n        /* \"#utility.yul\":18033:18037   */\n      dup3\n        /* \"#utility.yul\":18029:18045   */\n      shr\n        /* \"#utility.yul\":18008:18045   */\n      swap1\n      pop\n        /* \"#utility.yul\":17935:18052   */\n      swap3\n      swap2\n      pop\n      pop\n      jump\t// out\n        /* \"#utility.yul\":18058:18227   */\n    tag_306:\n        /* \"#utility.yul\":18102:18108   */\n      0x00\n        /* \"#utility.yul\":18135:18186   */\n      tag_514\n        /* \"#utility.yul\":18183:18184   */\n      0x00\n        /* \"#utility.yul\":18179:18185   */\n      not\n        /* \"#utility.yul\":18171:18176   */\n      dup5\n        /* \"#utility.yul\":18168:18169   */\n      0x08\n        /* \"#utility.yul\":18164:18177   */\n      mul\n        /* \"#utility.yul\":18135:18186   */\n      tag_305\n      jump\t// in\n    tag_514:\n        /* \"#utility.yul\":18131:18187   */\n      not\n        /* \"#utility.yul\":18216:18220   */\n      dup1\n        /* \"#utility.yul\":18210:18214   */\n      dup4\n        /* \"#utility.yul\":18206:18221   */\n      and\n        /* \"#utility.yul\":18196:18221   */\n      swap2\n      pop\n        /* \"#utility.yul\":18109:18227   */\n      pop\n        /* \"#utility.yul\":18058:18227   */\n      swap3\n      swap2\n      pop\n      pop\n      jump\t// out\n        /* \"#utility.yul\":18232:18527   */\n    tag_307:\n        /* \"#utility.yul\":18308:18312   */\n      0x00\n        /* \"#utility.yul\":18454:18483   */\n      tag_516\n        /* \"#utility.yul\":18479:18482   */\n      dup4\n        /* \"#utility.yul\":18473:18477   */\n      dup4\n        /* \"#utility.yul\":18454:18483   */\n      tag_306\n      jump\t// in\n    tag_516:\n        /* \"#utility.yul\":18446:18483   */\n      swap2\n      pop\n        /* \"#utility.yul\":18516:18519   */\n      dup3\n        /* \"#utility.yul\":18513:18514   */\n      0x02\n        /* \"#utility.yul\":18509:18520   */\n      mul\n        /* \"#utility.yul\":18503:18507   */\n      dup3\n        /* \"#utility.yul\":18500:18521   */\n      or\n        /* \"#utility.yul\":18492:18521   */\n      swap1\n      pop\n        /* \"#utility.yul\":18232:18527   */\n      swap3\n      swap2\n      pop\n      pop\n      jump\t// out\n        /* \"#utility.yul\":18532:19927   */\n    tag_170:\n        /* \"#utility.yul\":18649:18686   */\n      tag_518\n        /* \"#utility.yul\":18682:18685   */\n      dup3\n        /* \"#utility.yul\":18649:18686   */\n      tag_279\n      jump\t// in\n    tag_518:\n        /* \"#utility.yul\":18751:18769   */\n      0xffffffffffffffff\n        /* \"#utility.yul\":18743:18749   */\n      dup2\n        /* \"#utility.yul\":18740:18770   */\n      gt\n        /* \"#utility.yul\":18737:18793   */\n      iszero\n      tag_519\n      jumpi\n        /* \"#utility.yul\":18773:18791   */\n      tag_520\n      tag_269\n      jump\t// in\n    tag_520:\n        /* \"#utility.yul\":18737:18793   */\n    tag_519:\n        /* \"#utility.yul\":18817:18855   */\n      tag_521\n        /* \"#utility.yul\":18849:18853   */\n      dup3\n        /* \"#utility.yul\":18843:18854   */\n      sload\n        /* \"#utility.yul\":18817:18855   */\n      tag_197\n      jump\t// in\n    tag_521:\n        /* \"#utility.yul\":18902:18969   */\n      tag_522\n        /* \"#utility.yul\":18962:18968   */\n      dup3\n        /* \"#utility.yul\":18954:18960   */\n      dup3\n        /* \"#utility.yul\":18948:18952   */\n      dup6\n        /* \"#utility.yul\":18902:18969   */\n      tag_304\n      jump\t// in\n    tag_522:\n        /* \"#utility.yul\":18996:18997   */\n      0x00\n        /* \"#utility.yul\":19020:19024   */\n      0x20\n        /* \"#utility.yul\":19007:19024   */\n      swap1\n      pop\n        /* \"#utility.yul\":19052:19054   */\n      0x1f\n        /* \"#utility.yul\":19044:19050   */\n      dup4\n        /* \"#utility.yul\":19041:19055   */\n      gt\n        /* \"#utility.yul\":19069:19070   */\n      0x01\n        /* \"#utility.yul\":19064:19682   */\n      dup2\n      eq\n      tag_524\n      jumpi\n        /* \"#utility.yul\":19726:19727   */\n      0x00\n        /* \"#utility.yul\":19743:19749   */\n      dup5\n        /* \"#utility.yul\":19740:19817   */\n      iszero\n      tag_525\n      jumpi\n        /* \"#utility.yul\":19792:19801   */\n      dup3\n        /* \"#utility.yul\":19787:19790   */\n      dup8\n        /* \"#utility.yul\":19783:19802   */\n      add\n        /* \"#utility.yul\":19777:19803   */\n      mload\n        /* \"#utility.yul\":19768:19803   */\n      swap1\n      pop\n        /* \"#utility.yul\":19740:19817   */\n    tag_525:\n        /* \"#utility.yul\":19843:19910   */\n      tag_526\n        /* \"#utility.yul\":19903:19909   */\n      dup6\n        /* \"#utility.yul\":19896:19901   */\n      dup3\n        /* \"#utility.yul\":19843:19910   */\n      tag_307\n      jump\t// in\n    tag_526:\n        /* \"#utility.yul\":19837:19841   */\n      dup7\n        /* \"#utility.yul\":19830:19911   */\n      sstore\n        /* \"#utility.yul\":19699:19921   */\n      pop\n        /* \"#utility.yul\":19034:19921   */\n      jump(tag_523)\n        /* \"#utility.yul\":19064:19682   */\n    tag_524:\n        /* \"#utility.yul\":19116:19120   */\n      0x1f\n        /* \"#utility.yul\":19112:19121   */\n      not\n        /* \"#utility.yul\":19104:19110   */\n      dup5\n        /* \"#utility.yul\":19100:19122   */\n      and\n        /* \"#utility.yul\":19150:19187   */\n      tag_527\n        /* \"#utility.yul\":19182:19186   */\n      dup7\n        /* \"#utility.yul\":19150:19187   */\n      tag_293\n      jump\t// in\n    tag_527:\n        /* \"#utility.yul\":19209:19210   */\n      0x00\n        /* \"#utility.yul\":19223:19431   */\n    tag_528:\n        /* \"#utility.yul\":19237:19244   */\n      dup3\n        /* \"#utility.yul\":19234:19235   */\n      dup2\n        /* \"#utility.yul\":19231:19245   */\n      lt\n        /* \"#utility.yul\":19223:19431   */\n      iszero\n      tag_530\n      jumpi\n        /* \"#utility.yul\":19316:19325   */\n      dup5\n        /* \"#utility.yul\":19311:19314   */\n      dup10\n        /* \"#utility.yul\":19307:19326   */\n      add\n        /* \"#utility.yul\":19301:19327   */\n      mload\n        /* \"#utility.yul\":19293:19299   */\n      dup3\n        /* \"#utility.yul\":19286:19328   */\n      sstore\n        /* \"#utility.yul\":19367:19368   */\n      0x01\n        /* \"#utility.yul\":19359:19365   */\n      dup3\n        /* \"#utility.yul\":19355:19369   */\n      add\n        /* \"#utility.yul\":19345:19369   */\n      swap2\n      pop\n        /* \"#utility.yul\":19414:19416   */\n      0x20\n        /* \"#utility.yul\":19403:19412   */\n      dup6\n        /* \"#utility.yul\":19399:19417   */\n      add\n        /* \"#utility.yul\":19386:19417   */\n      swap5\n      pop\n        /* \"#utility.yul\":19260:19264   */\n      0x20\n        /* \"#utility.yul\":19257:19258   */\n      dup2\n        /* \"#utility.yul\":19253:19265   */\n      add\n        /* \"#utility.yul\":19248:19265   */\n      swap1\n      pop\n        /* \"#utility.yul\":19223:19431   */\n      jump(tag_528)\n    tag_530:\n        /* \"#utility.yul\":19459:19465   */\n      dup7\n        /* \"#utility.yul\":19450:19457   */\n      dup4\n        /* \"#utility.yul\":19447:19466   */\n      lt\n        /* \"#utility.yul\":19444:19623   */\n      iszero\n      tag_531\n      jumpi\n        /* \"#utility.yul\":19517:19526   */\n      dup5\n        /* \"#utility.yul\":19512:19515   */\n      dup10\n        /* \"#utility.yul\":19508:19527   */\n      add\n        /* \"#utility.yul\":19502:19528   */\n      mload\n        /* \"#utility.yul\":19560:19608   */\n      tag_532\n        /* \"#utility.yul\":19602:19606   */\n      0x1f\n        /* \"#utility.yul\":19594:19600   */\n      dup10\n        /* \"#utility.yul\":19590:19607   */\n      and\n        /* \"#utility.yul\":19579:19588   */\n      dup3\n        /* \"#utility.yul\":19560:19608   */\n      tag_306\n      jump\t// in\n    tag_532:\n        /* \"#utility.yul\":19552:19558   */\n      dup4\n        /* \"#utility.yul\":19545:19609   */\n      sstore\n        /* \"#utility.yul\":19467:19623   */\n      pop\n        /* \"#utility.yul\":19444:19623   */\n    tag_531:\n        /* \"#utility.yul\":19669:19670   */\n      0x01\n        /* \"#utility.yul\":19665:19666   */\n      0x02\n        /* \"#utility.yul\":19657:19663   */\n      dup9\n        /* \"#utility.yul\":19653:19667   */\n      mul\n        /* \"#utility.yul\":19649:19671   */\n      add\n        /* \"#utility.yul\":19643:19647   */\n      dup9\n        /* \"#utility.yul\":19636:19672   */\n      sstore\n        /* \"#utility.yul\":19071:19682   */\n      pop\n      pop\n      pop\n        /* \"#utility.yul\":19034:19921   */\n    tag_523:\n      pop\n        /* \"#utility.yul\":18624:19927   */\n      pop\n      pop\n      pop\n        /* \"#utility.yul\":18532:19927   */\n      pop\n      pop\n      jump\t// out\n        /* \"#utility.yul\":19933:20375   */\n    tag_172:\n        /* \"#utility.yul\":20082:20086   */\n      0x00\n        /* \"#utility.yul\":20120:20122   */\n      0x60\n        /* \"#utility.yul\":20109:20118   */\n      dup3\n        /* \"#utility.yul\":20105:20123   */\n      add\n        /* \"#utility.yul\":20097:20123   */\n      swap1\n      pop\n        /* \"#utility.yul\":20133:20204   */\n      tag_534\n        /* \"#utility.yul\":20201:20202   */\n      0x00\n        /* \"#utility.yul\":20190:20199   */\n      dup4\n        /* \"#utility.yul\":20186:20203   */\n      add\n        /* \"#utility.yul\":20177:20183   */\n      dup7\n        /* \"#utility.yul\":20133:20204   */\n      tag_255\n      jump\t// in\n    tag_534:\n        /* \"#utility.yul\":20214:20286   */\n      tag_535\n        /* \"#utility.yul\":20282:20284   */\n      0x20\n        /* \"#utility.yul\":20271:20280   */\n      dup4\n        /* \"#utility.yul\":20267:20285   */\n      add\n        /* \"#utility.yul\":20258:20264   */\n      dup6\n        /* \"#utility.yul\":20214:20286   */\n      tag_278\n      jump\t// in\n    tag_535:\n        /* \"#utility.yul\":20296:20368   */\n      tag_536\n        /* \"#utility.yul\":20364:20366   */\n      0x40\n        /* \"#utility.yul\":20353:20362   */\n      dup4\n        /* \"#utility.yul\":20349:20367   */\n      add\n        /* \"#utility.yul\":20340:20346   */\n      dup5\n        /* \"#utility.yul\":20296:20368   */\n      tag_255\n      jump\t// in\n    tag_536:\n        /* \"#utility.yul\":19933:20375   */\n      swap5\n      swap4\n      pop\n      pop\n      pop\n      pop\n      jump\t// out\n        /* \"#utility.yul\":20381:20559   */\n    tag_308:\n        /* \"#utility.yul\":20521:20551   */\n      0x4170706c69636174696f6e206e6f742076657269666965642079657400000000\n        /* \"#utility.yul\":20517:20518   */\n      0x00\n        /* \"#utility.yul\":20509:20515   */\n      dup3\n        /* \"#utility.yul\":20505:20519   */\n      add\n        /* \"#utility.yul\":20498:20552   */\n      mstore\n        /* \"#utility.yul\":20381:20559   */\n      pop\n      jump\t// out\n        /* \"#utility.yul\":20565:20931   */\n    tag_309:\n        /* \"#utility.yul\":20707:20710   */\n      0x00\n        /* \"#utility.yul\":20728:20795   */\n      tag_539\n        /* \"#utility.yul\":20792:20794   */\n      0x1c\n        /* \"#utility.yul\":20787:20790   */\n      dup4\n        /* \"#utility.yul\":20728:20795   */\n      tag_280\n      jump\t// in\n    tag_539:\n        /* \"#utility.yul\":20721:20795   */\n      swap2\n      pop\n        /* \"#utility.yul\":20804:20897   */\n      tag_540\n        /* \"#utility.yul\":20893:20896   */\n      dup3\n        /* \"#utility.yul\":20804:20897   */\n      tag_308\n      jump\t// in\n    tag_540:\n        /* \"#utility.yul\":20922:20924   */\n      0x20\n        /* \"#utility.yul\":20917:20920   */\n      dup3\n        /* \"#utility.yul\":20913:20925   */\n      add\n        /* \"#utility.yul\":20906:20925   */\n      swap1\n      pop\n        /* \"#utility.yul\":20565:20931   */\n      swap2\n      swap1\n      pop\n      jump\t// out\n        /* \"#utility.yul\":20937:21356   */\n    tag_179:\n        /* \"#utility.yul\":21103:21107   */\n      0x00\n        /* \"#utility.yul\":21141:21143   */\n      0x20\n        /* \"#utility.yul\":21130:21139   */\n      dup3\n        /* \"#utility.yul\":21126:21144   */\n      add\n        /* \"#utility.yul\":21118:21144   */\n      swap1\n      pop\n        /* \"#utility.yul\":21190:21199   */\n      dup2\n        /* \"#utility.yul\":21184:21188   */\n      dup2\n        /* \"#utility.yul\":21180:21200   */\n      sub\n        /* \"#utility.yul\":21176:21177   */\n      0x00\n        /* \"#utility.yul\":21165:21174   */\n      dup4\n        /* \"#utility.yul\":21161:21178   */\n      add\n        /* \"#utility.yul\":21154:21201   */\n      mstore\n        /* \"#utility.yul\":21218:21349   */\n      tag_542\n        /* \"#utility.yul\":21344:21348   */\n      dup2\n        /* \"#utility.yul\":21218:21349   */\n      tag_309\n      jump\t// in\n    tag_542:\n        /* \"#utility.yul\":21210:21349   */\n      swap1\n      pop\n        /* \"#utility.yul\":20937:21356   */\n      swap2\n      swap1\n      pop\n      jump\t// out\n        /* \"#utility.yul\":21362:21526   */\n    tag_310:\n        /* \"#utility.yul\":21502:21518   */\n      0x416c7265616479207369676e6564000000000000000000000000000000000000\n        /* \"#utility.yul\":21498:21499   */\n      0x00\n        /* \"#utility.yul\":21490:21496   */\n      dup3\n        /* \"#utility.yul\":21486:21500   */\n      add\n        /* \"#utility.yul\":21479:21519   */\n      mstore\n        /* \"#utility.yul\":21362:21526   */\n      pop\n      jump\t// out\n        /* \"#utility.yul\":21532:21898   */\n    tag_311:\n        /* \"#utility.yul\":21674:21677   */\n      0x00\n        /* \"#utility.yul\":21695:21762   */\n      tag_545\n        /* \"#utility.yul\":21759:21761   */\n      0x0e\n        /* \"#utility.yul\":21754:21757   */\n      dup4\n        /* \"#utility.yul\":21695:21762   */\n      tag_280\n      jump\t// in\n    tag_545:\n        /* \"#utility.yul\":21688:21762   */\n      swap2\n      pop\n        /* \"#utility.yul\":21771:21864   */\n      tag_546\n        /* \"#utility.yul\":21860:21863   */\n      dup3\n        /* \"#utility.yul\":21771:21864   */\n      tag_310\n      jump\t// in\n    tag_546:\n        /* \"#utility.yul\":21889:21891   */\n      0x20\n        /* \"#utility.yul\":21884:21887   */\n      dup3\n        /* \"#utility.yul\":21880:21892   */\n      add\n        /* \"#utility.yul\":21873:21892   */\n      swap1\n      pop\n        /* \"#utility.yul\":21532:21898   */\n      swap2\n      swap1\n      pop\n      jump\t// out\n        /* \"#utility.yul\":21904:22323   */\n    tag_182:\n        /* \"#utility.yul\":22070:22074   */\n      0x00\n        /* \"#utility.yul\":22108:22110   */\n      0x20\n        /* \"#utility.yul\":22097:22106   */\n      dup3\n        /* \"#utility.yul\":22093:22111   */\n      add\n        /* \"#utility.yul\":22085:22111   */\n      swap1\n      pop\n        /* \"#utility.yul\":22157:22166   */\n      dup2\n        /* \"#utility.yul\":22151:22155   */\n      dup2\n        /* \"#utility.yul\":22147:22167   */\n      sub\n        /* \"#utility.yul\":22143:22144   */\n      0x00\n        /* \"#utility.yul\":22132:22141   */\n      dup4\n        /* \"#utility.yul\":22128:22145   */\n      add\n        /* \"#utility.yul\":22121:22168   */\n      mstore\n        /* \"#utility.yul\":22185:22316   */\n      tag_548\n        /* \"#utility.yul\":22311:22315   */\n      dup2\n        /* \"#utility.yul\":22185:22316   */\n      tag_311\n      jump\t// in\n    tag_548:\n        /* \"#utility.yul\":22177:22316   */\n      swap1\n      pop\n        /* \"#utility.yul\":21904:22323   */\n      swap2\n      swap1\n      pop\n      jump\t// out\n        /* \"#utility.yul\":22329:22496   */\n    tag_184:\n        /* \"#utility.yul\":22366:22369   */\n      0x00\n        /* \"#utility.yul\":22389:22411   */\n      tag_550\n        /* \"#utility.yul\":22405:22410   */\n      dup3\n        /* \"#utility.yul\":22389:22411   */\n      tag_276\n      jump\t// in\n    tag_550:\n        /* \"#utility.yul\":22380:22411   */\n      swap2\n      pop\n        /* \"#utility.yul\":22433:22437   */\n      0xff\n        /* \"#utility.yul\":22426:22431   */\n      dup3\n        /* \"#utility.yul\":22423:22438   */\n      sub\n        /* \"#utility.yul\":22420:22461   */\n      tag_551\n      jumpi\n        /* \"#utility.yul\":22441:22459   */\n      tag_552\n      tag_291\n      jump\t// in\n    tag_552:\n        /* \"#utility.yul\":22420:22461   */\n    tag_551:\n        /* \"#utility.yul\":22488:22489   */\n      0x01\n        /* \"#utility.yul\":22481:22486   */\n      dup3\n        /* \"#utility.yul\":22477:22490   */\n      add\n        /* \"#utility.yul\":22470:22490   */\n      swap1\n      pop\n        /* \"#utility.yul\":22329:22496   */\n      swap2\n      swap1\n      pop\n      jump\t// out\n        /* \"#utility.yul\":22502:22834   */\n    tag_186:\n        /* \"#utility.yul\":22623:22627   */\n      0x00\n        /* \"#utility.yul\":22661:22663   */\n      0x40\n        /* \"#utility.yul\":22650:22659   */\n      dup3\n        /* \"#utility.yul\":22646:22664   */\n      add\n        /* \"#utility.yul\":22638:22664   */\n      swap1\n      pop\n        /* \"#utility.yul\":22674:22745   */\n      tag_554\n        /* \"#utility.yul\":22742:22743   */\n      0x00\n        /* \"#utility.yul\":22731:22740   */\n      dup4\n        /* \"#utility.yul\":22727:22744   */\n      add\n        /* \"#utility.yul\":22718:22724   */\n      dup6\n        /* \"#utility.yul\":22674:22745   */\n      tag_255\n      jump\t// in\n    tag_554:\n        /* \"#utility.yul\":22755:22827   */\n      tag_555\n        /* \"#utility.yul\":22823:22825   */\n      0x20\n        /* \"#utility.yul\":22812:22821   */\n      dup4\n        /* \"#utility.yul\":22808:22826   */\n      add\n        /* \"#utility.yul\":22799:22805   */\n      dup5\n        /* \"#utility.yul\":22755:22827   */\n      tag_278\n      jump\t// in\n    tag_555:\n        /* \"#utility.yul\":22502:22834   */\n      swap4\n      swap3\n      pop\n      pop\n      pop\n      jump\t// out\n        /* \"#utility.yul\":22840:23079   */\n    tag_312:\n        /* \"#utility.yul\":22980:23014   */\n      0x4f6e6c792077616c6c65742074686174207375626d6974746564207468652061\n        /* \"#utility.yul\":22976:22977   */\n      0x00\n        /* \"#utility.yul\":22968:22974   */\n      dup3\n        /* \"#utility.yul\":22964:22978   */\n      add\n        /* \"#utility.yul\":22957:23015   */\n      mstore\n        /* \"#utility.yul\":23049:23071   */\n      0x70706c69636174696f6e2063616e20636c61696d000000000000000000000000\n        /* \"#utility.yul\":23044:23046   */\n      0x20\n        /* \"#utility.yul\":23036:23042   */\n      dup3\n        /* \"#utility.yul\":23032:23047   */\n      add\n        /* \"#utility.yul\":23025:23072   */\n      mstore\n        /* \"#utility.yul\":22840:23079   */\n      pop\n      jump\t// out\n        /* \"#utility.yul\":23085:23451   */\n    tag_313:\n        /* \"#utility.yul\":23227:23230   */\n      0x00\n        /* \"#utility.yul\":23248:23315   */\n      tag_558\n        /* \"#utility.yul\":23312:23314   */\n      0x34\n        /* \"#utility.yul\":23307:23310   */\n      dup4\n        /* \"#utility.yul\":23248:23315   */\n      tag_280\n      jump\t// in\n    tag_558:\n        /* \"#utility.yul\":23241:23315   */\n      swap2\n      pop\n        /* \"#utility.yul\":23324:23417   */\n      tag_559\n        /* \"#utility.yul\":23413:23416   */\n      dup3\n        /* \"#utility.yul\":23324:23417   */\n      tag_312\n      jump\t// in\n    tag_559:\n        /* \"#utility.yul\":23442:23444   */\n      0x40\n        /* \"#utility.yul\":23437:23440   */\n      dup3\n        /* \"#utility.yul\":23433:23445   */\n      add\n        /* \"#utility.yul\":23426:23445   */\n      swap1\n      pop\n        /* \"#utility.yul\":23085:23451   */\n      swap2\n      swap1\n      pop\n      jump\t// out\n        /* \"#utility.yul\":23457:23876   */\n    tag_210:\n        /* \"#utility.yul\":23623:23627   */\n      0x00\n        /* \"#utility.yul\":23661:23663   */\n      0x20\n        /* \"#utility.yul\":23650:23659   */\n      dup3\n        /* \"#utility.yul\":23646:23664   */\n      add\n        /* \"#utility.yul\":23638:23664   */\n      swap1\n      pop\n        /* \"#utility.yul\":23710:23719   */\n      dup2\n        /* \"#utility.yul\":23704:23708   */\n      dup2\n        /* \"#utility.yul\":23700:23720   */\n      sub\n        /* \"#utility.yul\":23696:23697   */\n      0x00\n        /* \"#utility.yul\":23685:23694   */\n      dup4\n        /* \"#utility.yul\":23681:23698   */\n      add\n        /* \"#utility.yul\":23674:23721   */\n      mstore\n        /* \"#utility.yul\":23738:23869   */\n      tag_561\n        /* \"#utility.yul\":23864:23868   */\n      dup2\n        /* \"#utility.yul\":23738:23869   */\n      tag_313\n      jump\t// in\n    tag_561:\n        /* \"#utility.yul\":23730:23869   */\n      swap1\n      pop\n        /* \"#utility.yul\":23457:23876   */\n      swap2\n      swap1\n      pop\n      jump\t// out\n        /* \"#utility.yul\":23882:24056   */\n    tag_314:\n        /* \"#utility.yul\":24022:24048   */\n      0x4170706c69636174696f6e206e6f7420617070726f7665640000000000000000\n        /* \"#utility.yul\":24018:24019   */\n      0x00\n        /* \"#utility.yul\":24010:24016   */\n      dup3\n        /* \"#utility.yul\":24006:24020   */\n      add\n        /* \"#utility.yul\":23999:24049   */\n      mstore\n        /* \"#utility.yul\":23882:24056   */\n      pop\n      jump\t// out\n        /* \"#utility.yul\":24062:24428   */\n    tag_315:\n        /* \"#utility.yul\":24204:24207   */\n      0x00\n        /* \"#utility.yul\":24225:24292   */\n      tag_564\n        /* \"#utility.yul\":24289:24291   */\n      0x18\n        /* \"#utility.yul\":24284:24287   */\n      dup4\n        /* \"#utility.yul\":24225:24292   */\n      tag_280\n      jump\t// in\n    tag_564:\n        /* \"#utility.yul\":24218:24292   */\n      swap2\n      pop\n        /* \"#utility.yul\":24301:24394   */\n      tag_565\n        /* \"#utility.yul\":24390:24393   */\n      dup3\n        /* \"#utility.yul\":24301:24394   */\n      tag_314\n      jump\t// in\n    tag_565:\n        /* \"#utility.yul\":24419:24421   */\n      0x20\n        /* \"#utility.yul\":24414:24417   */\n      dup3\n        /* \"#utility.yul\":24410:24422   */\n      add\n        /* \"#utility.yul\":24403:24422   */\n      swap1\n      pop\n        /* \"#utility.yul\":24062:24428   */\n      swap2\n      swap1\n      pop\n      jump\t// out\n        /* \"#utility.yul\":24434:24853   */\n    tag_213:\n        /* \"#utility.yul\":24600:24604   */\n      0x00\n        /* \"#utility.yul\":24638:24640   */\n      0x20\n        /* \"#utility.yul\":24627:24636   */\n      dup3\n        /* \"#utility.yul\":24623:24641   */\n      add\n        /* \"#utility.yul\":24615:24641   */\n      swap1\n      pop\n        /* \"#utility.yul\":24687:24696   */\n      dup2\n        /* \"#utility.yul\":24681:24685   */\n      dup2\n        /* \"#utility.yul\":24677:24697   */\n      sub\n        /* \"#utility.yul\":24673:24674   */\n      0x00\n        /* \"#utility.yul\":24662:24671   */\n      dup4\n        /* \"#utility.yul\":24658:24675   */\n      add\n        /* \"#utility.yul\":24651:24698   */\n      mstore\n        /* \"#utility.yul\":24715:24846   */\n      tag_567\n        /* \"#utility.yul\":24841:24845   */\n      dup2\n        /* \"#utility.yul\":24715:24846   */\n      tag_315\n      jump\t// in\n    tag_567:\n        /* \"#utility.yul\":24707:24846   */\n      swap1\n      pop\n        /* \"#utility.yul\":24434:24853   */\n      swap2\n      swap1\n      pop\n      jump\t// out\n        /* \"#utility.yul\":24859:25034   */\n    tag_316:\n        /* \"#utility.yul\":24999:25026   */\n      0x416c6c6f77616e636520616c726561647920636c61696d656400000000000000\n        /* \"#utility.yul\":24995:24996   */\n      0x00\n        /* \"#utility.yul\":24987:24993   */\n      dup3\n        /* \"#utility.yul\":24983:24997   */\n      add\n        /* \"#utility.yul\":24976:25027   */\n      mstore\n        /* \"#utility.yul\":24859:25034   */\n      pop\n      jump\t// out\n        /* \"#utility.yul\":25040:25406   */\n    tag_317:\n        /* \"#utility.yul\":25182:25185   */\n      0x00\n        /* \"#utility.yul\":25203:25270   */\n      tag_570\n        /* \"#utility.yul\":25267:25269   */\n      0x19\n        /* \"#utility.yul\":25262:25265   */\n      dup4\n        /* \"#utility.yul\":25203:25270   */\n      tag_280\n      jump\t// in\n    tag_570:\n        /* \"#utility.yul\":25196:25270   */\n      swap2\n      pop\n        /* \"#utility.yul\":25279:25372   */\n      tag_571\n        /* \"#utility.yul\":25368:25371   */\n      dup3\n        /* \"#utility.yul\":25279:25372   */\n      tag_316\n      jump\t// in\n    tag_571:\n        /* \"#utility.yul\":25397:25399   */\n      0x20\n        /* \"#utility.yul\":25392:25395   */\n      dup3\n        /* \"#utility.yul\":25388:25400   */\n      add\n        /* \"#utility.yul\":25381:25400   */\n      swap1\n      pop\n        /* \"#utility.yul\":25040:25406   */\n      swap2\n      swap1\n      pop\n      jump\t// out\n        /* \"#utility.yul\":25412:25831   */\n    tag_216:\n        /* \"#utility.yul\":25578:25582   */\n      0x00\n        /* \"#utility.yul\":25616:25618   */\n      0x20\n        /* \"#utility.yul\":25605:25614   */\n      dup3\n        /* \"#utility.yul\":25601:25619   */\n      add\n        /* \"#utility.yul\":25593:25619   */\n      swap1\n      pop\n        /* \"#utility.yul\":25665:25674   */\n      dup2\n        /* \"#utility.yul\":25659:25663   */\n      dup2\n        /* \"#utility.yul\":25655:25675   */\n      sub\n        /* \"#utility.yul\":25651:25652   */\n      0x00\n        /* \"#utility.yul\":25640:25649   */\n      dup4\n        /* \"#utility.yul\":25636:25653   */\n      add\n        /* \"#utility.yul\":25629:25676   */\n      mstore\n        /* \"#utility.yul\":25693:25824   */\n      tag_573\n        /* \"#utility.yul\":25819:25823   */\n      dup2\n        /* \"#utility.yul\":25693:25824   */\n      tag_317\n      jump\t// in\n    tag_573:\n        /* \"#utility.yul\":25685:25824   */\n      swap1\n      pop\n        /* \"#utility.yul\":25412:25831   */\n      swap2\n      swap1\n      pop\n      jump\t// out\n        /* \"#utility.yul\":25837:26005   */\n    tag_318:\n        /* \"#utility.yul\":25977:25997   */\n      0x496e73756666696369656e742066756e64730000000000000000000000000000\n        /* \"#utility.yul\":25973:25974   */\n      0x00\n        /* \"#utility.yul\":25965:25971   */\n      dup3\n        /* \"#utility.yul\":25961:25975   */\n      add\n        /* \"#utility.yul\":25954:25998   */\n      mstore\n        /* \"#utility.yul\":25837:26005   */\n      pop\n      jump\t// out\n        /* \"#utility.yul\":26011:26377   */\n    tag_319:\n        /* \"#utility.yul\":26153:26156   */\n      0x00\n        /* \"#utility.yul\":26174:26241   */\n      tag_576\n        /* \"#utility.yul\":26238:26240   */\n      0x12\n        /* \"#utility.yul\":26233:26236   */\n      dup4\n        /* \"#utility.yul\":26174:26241   */\n      tag_280\n      jump\t// in\n    tag_576:\n        /* \"#utility.yul\":26167:26241   */\n      swap2\n      pop\n        /* \"#utility.yul\":26250:26343   */\n      tag_577\n        /* \"#utility.yul\":26339:26342   */\n      dup3\n        /* \"#utility.yul\":26250:26343   */\n      tag_318\n      jump\t// in\n    tag_577:\n        /* \"#utility.yul\":26368:26370   */\n      0x20\n        /* \"#utility.yul\":26363:26366   */\n      dup3\n        /* \"#utility.yul\":26359:26371   */\n      add\n        /* \"#utility.yul\":26352:26371   */\n      swap1\n      pop\n        /* \"#utility.yul\":26011:26377   */\n      swap2\n      swap1\n      pop\n      jump\t// out\n        /* \"#utility.yul\":26383:26802   */\n    tag_219:\n        /* \"#utility.yul\":26549:26553   */\n      0x00\n        /* \"#utility.yul\":26587:26589   */\n      0x20\n        /* \"#utility.yul\":26576:26585   */\n      dup3\n        /* \"#utility.yul\":26572:26590   */\n      add\n        /* \"#utility.yul\":26564:26590   */\n      swap1\n      pop\n        /* \"#utility.yul\":26636:26645   */\n      dup2\n        /* \"#utility.yul\":26630:26634   */\n      dup2\n        /* \"#utility.yul\":26626:26646   */\n      sub\n        /* \"#utility.yul\":26622:26623   */\n      0x00\n        /* \"#utility.yul\":26611:26620   */\n      dup4\n        /* \"#utility.yul\":26607:26624   */\n      add\n        /* \"#utility.yul\":26600:26647   */\n      mstore\n        /* \"#utility.yul\":26664:26795   */\n      tag_579\n        /* \"#utility.yul\":26790:26794   */\n      dup2\n        /* \"#utility.yul\":26664:26795   */\n      tag_319\n      jump\t// in\n    tag_579:\n        /* \"#utility.yul\":26656:26795   */\n      swap1\n      pop\n        /* \"#utility.yul\":26383:26802   */\n      swap2\n      swap1\n      pop\n      jump\t// out\n        /* \"#utility.yul\":26808:27140   */\n    tag_245:\n        /* \"#utility.yul\":26929:26933   */\n      0x00\n        /* \"#utility.yul\":26967:26969   */\n      0x40\n        /* \"#utility.yul\":26956:26965   */\n      dup3\n        /* \"#utility.yul\":26952:26970   */\n      add\n        /* \"#utility.yul\":26944:26970   */\n      swap1\n      pop\n        /* \"#utility.yul\":26980:27051   */\n      tag_581\n        /* \"#utility.yul\":27048:27049   */\n      0x00\n        /* \"#utility.yul\":27037:27046   */\n      dup4\n        /* \"#utility.yul\":27033:27050   */\n      add\n        /* \"#utility.yul\":27024:27030   */\n      dup6\n        /* \"#utility.yul\":26980:27051   */\n      tag_278\n      jump\t// in\n    tag_581:\n        /* \"#utility.yul\":27061:27133   */\n      tag_582\n        /* \"#utility.yul\":27129:27131   */\n      0x20\n        /* \"#utility.yul\":27118:27127   */\n      dup4\n        /* \"#utility.yul\":27114:27132   */\n      add\n        /* \"#utility.yul\":27105:27111   */\n      dup5\n        /* \"#utility.yul\":27061:27133   */\n      tag_259\n      jump\t// in\n    tag_582:\n        /* \"#utility.yul\":26808:27140   */\n      swap4\n      swap3\n      pop\n      pop\n      pop\n      jump\t// out\n\n    auxdata: 0xa2646970667358221220be43285344ea3b7d34411c24fd1309bedeb13679d1b2fdd2aa7d6f142802f54264736f6c634300081a0033\n}\n",
				"bytecode": {
					"linkReferences": {},
					"object": "608060405234801561000f575f80fd5b506040516126eb3803806126eb833981810160405281019061003191906102f4565b8060025f6101000a81548160ff021916908360ff16021790555061005d5f801b3361009460201b60201c565b5061008e7fc10c77be35aff266144ed64c26a1fa104bae2f284ae99ac4a34203454704a1853361018960201b60201c565b5061039d565b5f6100a583836101bd60201b60201c565b61017f5760015f808581526020019081526020015f205f015f8473ffffffffffffffffffffffffffffffffffffffff1673ffffffffffffffffffffffffffffffffffffffff1681526020019081526020015f205f6101000a81548160ff02191690831515021790555061011c61022060201b60201c565b73ffffffffffffffffffffffffffffffffffffffff168273ffffffffffffffffffffffffffffffffffffffff16847f2f8788117e7eff1d82e926ec794901d17c78024a50270940304540a733656f0d60405160405180910390a460019050610183565b5f90505b92915050565b6101988261022760201b60201c565b6101a78161024360201b60201c565b6101b7838361009460201b60201c565b50505050565b5f805f8481526020019081526020015f205f015f8373ffffffffffffffffffffffffffffffffffffffff1673ffffffffffffffffffffffffffffffffffffffff1681526020019081526020015f205f9054906101000a900460ff16905092915050565b5f33905090565b5f805f8381526020019081526020015f20600101549050919050565b6102608161025561022060201b60201c565b61026360201b60201c565b50565b61027382826101bd60201b60201c565b6102b65780826040517fe2517d3f0000000000000000000000000000000000000000000000000000000081526004016102ad929190610376565b60405180910390fd5b5050565b5f80fd5b5f60ff82169050919050565b6102d3816102be565b81146102dd575f80fd5b50565b5f815190506102ee816102ca565b92915050565b5f60208284031215610309576103086102ba565b5b5f610316848285016102e0565b91505092915050565b5f73ffffffffffffffffffffffffffffffffffffffff82169050919050565b5f6103488261031f565b9050919050565b6103588161033e565b82525050565b5f819050919050565b6103708161035e565b82525050565b5f6040820190506103895f83018561034f565b6103966020830184610367565b9392505050565b612341806103aa5f395ff3fe60806040526004361061011e575f3560e01c806399c1aadc1161009f578063da41f68e11610063578063da41f68e146103c6578063dfefadff146103ee578063e2aad4a014610431578063f9f8d7611461045b578063fdc6258a146104835761011e565b806399c1aadc146102e6578063a217fddf14610310578063ab2850da1461033a578063c012c85b14610376578063d547741f1461039e5761011e565b80633519a2f8116100e65780633519a2f81461021457806336568abe146102305780633ccfd60b146102585780638adac8381461026e57806391d14854146102aa5761011e565b806301ffc9a71461012257806312065fe01461015e578063248a9ca3146101885780632498a2c0146101c45780632f2ff15d146101ec575b5f80fd5b34801561012d575f80fd5b50610148600480360381019061014391906115a0565b6104bf565b60405161015591906115e5565b60405180910390f35b348015610169575f80fd5b50610172610538565b60405161017f9190611616565b60405180910390f35b348015610193575f80fd5b506101ae60048036038101906101a99190611662565b61053f565b6040516101bb919061169c565b60405180910390f35b3480156101cf575f80fd5b506101ea60048036038101906101e591906116df565b61055b565b005b3480156101f7575f80fd5b50610212600480360381019061020d9190611764565b6105ec565b005b61022e600480360381019061022991906116df565b61060e565b005b34801561023b575f80fd5b5061025660048036038101906102519190611764565b610732565b005b348015610263575f80fd5b5061026c6107ad565b005b348015610279575f80fd5b50610294600480360381019061028f91906118de565b610847565b6040516102a19190611616565b60405180910390f35b3480156102b5575f80fd5b506102d060048036038101906102cb9190611764565b610a1c565b6040516102dd91906115e5565b60405180910390f35b3480156102f1575f80fd5b506102fa610a7f565b6040516103079190611953565b60405180910390f35b34801561031b575f80fd5b50610324610a91565b604051610331919061169c565b60405180910390f35b348015610345575f80fd5b50610360600480360381019061035b919061196c565b610a97565b60405161036d91906115e5565b60405180910390f35b348015610381575f80fd5b5061039c600480360381019061039791906116df565b610ac1565b005b3480156103a9575f80fd5b506103c460048036038101906103bf9190611764565b610d70565b005b3480156103d1575f80fd5b506103ec60048036038101906103e791906119aa565b610d92565b005b3480156103f9575f80fd5b50610414600480360381019061040f91906116df565b610dbf565b604051610428989796959493929190611a44565b60405180910390f35b34801561043c575f80fd5b50610445610ee8565b6040516104529190611616565b60405180910390f35b348015610466575f80fd5b50610481600480360381019061047c91906116df565b610eee565b005b34801561048e575f80fd5b506104a960048036038101906104a491906119aa565b611261565b6040516104b691906115e5565b60405180910390f35b5f7f7965db0b000000000000000000000000000000000000000000000000000000007bffffffffffffffffffffffffffffffffffffffffffffffffffffffff1916827bffffffffffffffffffffffffffffffffffffffffffffffffffffffff19161480610531575061053082611293565b5b9050919050565b5f47905090565b5f805f8381526020019081526020015f20600101549050919050565b7fc10c77be35aff266144ed64c26a1fa104bae2f284ae99ac4a34203454704a185610585816112fc565b600160035f8481526020019081526020015f206003015f6101000a81548160ff0219169083151502179055507f1299ae81563fe5de048c2767e3dd7f74c5d1895f3bc9e566bd92a5175f790036826040516105e09190611616565b60405180910390a15050565b6105f58261053f565b6105fe816112fc565b6106088383611310565b50505050565b5f801b61061a816112fc565b5f821161065c576040517f08c379a000000000000000000000000000000000000000000000000000000000815260040161065390611b11565b60405180910390fd5b5f341161069e576040517f08c379a000000000000000000000000000000000000000000000000000000000815260040161069590611b79565b60405180910390fd5b8134146106e0576040517f08c379a00000000000000000000000000000000000000000000000000000000081526004016106d790611c07565b60405180910390fd5b3373ffffffffffffffffffffffffffffffffffffffff167f5af8184bef8e4b45eb9f6ed7734d04da38ced226495548f46e0c8ff8d7d9a524346040516107269190611616565b60405180910390a25050565b61073a6113f9565b73ffffffffffffffffffffffffffffffffffffffff168173ffffffffffffffffffffffffffffffffffffffff161461079e576040517f6697b23200000000000000000000000000000000000000000000000000000000815260040160405180910390fd5b6107a88282611400565b505050565b5f801b6107b9816112fc565b5f47116107fb576040517f08c379a00000000000000000000000000000000000000000000000000000000081526004016107f290611c6f565b60405180910390fd5b5f4790503373ffffffffffffffffffffffffffffffffffffffff166108fc8290811502906040515f60405180830381858888f19350505050158015610842573d5f803e3d5ffd5b505050565b5f60015f81548092919061085a90611cba565b91905055506040518061010001604052803373ffffffffffffffffffffffffffffffffffffffff1681526020018481526020018381526020015f151581526020015f60ff1681526020015f151581526020015f151581526020015f151581525060035f60015481526020019081526020015f205f820151815f015f6101000a81548173ffffffffffffffffffffffffffffffffffffffff021916908373ffffffffffffffffffffffffffffffffffffffff16021790555060208201518160010190816109269190611efb565b50604082015181600201556060820151816003015f6101000a81548160ff02191690831515021790555060808201518160030160016101000a81548160ff021916908360ff16021790555060a08201518160030160026101000a81548160ff02191690831515021790555060c08201518160030160036101000a81548160ff02191690831515021790555060e08201518160030160046101000a81548160ff0219169083151502179055509050507fdb0b522b8234f730c26780fc877f0d063689be4bc7d6aacb12b40df8440eb0436001543384604051610a0993929190611fca565b60405180910390a1600154905092915050565b5f805f8481526020019081526020015f205f015f8373ffffffffffffffffffffffffffffffffffffffff1673ffffffffffffffffffffffffffffffffffffffff1681526020019081526020015f205f9054906101000a900460ff16905092915050565b60025f9054906101000a900460ff1681565b5f801b81565b6004602052815f5260405f20602052805f5260405f205f915091509054906101000a900460ff1681565b7fc10c77be35aff266144ed64c26a1fa104bae2f284ae99ac4a34203454704a185610aeb816112fc565b60035f8381526020019081526020015f206003015f9054906101000a900460ff16610b4b576040517f08c379a0000000000000000000000000000000000000000000000000000000008152600401610b4290612049565b60405180910390fd5b60045f8381526020019081526020015f205f3373ffffffffffffffffffffffffffffffffffffffff1673ffffffffffffffffffffffffffffffffffffffff1681526020019081526020015f205f9054906101000a900460ff1615610be4576040517f08c379a0000000000000000000000000000000000000000000000000000000008152600401610bdb906120b1565b60405180910390fd5b600160045f8481526020019081526020015f205f3373ffffffffffffffffffffffffffffffffffffffff1673ffffffffffffffffffffffffffffffffffffffff1681526020019081526020015f205f6101000a81548160ff02191690831515021790555060035f8381526020019081526020015f20600301600181819054906101000a900460ff1680929190610c79906120cf565b91906101000a81548160ff021916908360ff160217905550507ff6952ff82f1d25c8c35077810d20e5acecc58ac1fe196cb90103969b9c2f6ac28233604051610cc39291906120f7565b60405180910390a160025f9054906101000a900460ff1660ff1660035f8481526020019081526020015f2060030160019054906101000a900460ff1660ff1610610d6c57600160035f8481526020019081526020015f2060030160026101000a81548160ff0219169083151502179055507f18592c970423719446e8cd1db0f88689331b2c81690e4d59376e8481e36b65ee82604051610d639190611616565b60405180910390a15b5050565b610d798261053f565b610d82816112fc565b610d8c8383611400565b50505050565b610dbc7fc10c77be35aff266144ed64c26a1fa104bae2f284ae99ac4a34203454704a185826105ec565b50565b6003602052805f5260405f205f91509050805f015f9054906101000a900473ffffffffffffffffffffffffffffffffffffffff1690806001018054610e0390611d2e565b80601f0160208091040260200160405190810160405280929190818152602001828054610e2f90611d2e565b8015610e7a5780601f10610e5157610100808354040283529160200191610e7a565b820191905f5260205f20905b815481529060010190602001808311610e5d57829003601f168201915b505050505090806002015490806003015f9054906101000a900460ff16908060030160019054906101000a900460ff16908060030160029054906101000a900460ff16908060030160039054906101000a900460ff16908060030160049054906101000a900460ff16905088565b60015481565b5f60035f8381526020019081526020015f20604051806101000160405290815f82015f9054906101000a900473ffffffffffffffffffffffffffffffffffffffff1673ffffffffffffffffffffffffffffffffffffffff1673ffffffffffffffffffffffffffffffffffffffff168152602001600182018054610f7090611d2e565b80601f0160208091040260200160405190810160405280929190818152602001828054610f9c90611d2e565b8015610fe75780601f10610fbe57610100808354040283529160200191610fe7565b820191905f5260205f20905b815481529060010190602001808311610fca57829003601f168201915b5050505050815260200160028201548152602001600382015f9054906101000a900460ff161515151581526020016003820160019054906101000a900460ff1660ff1660ff1681526020016003820160029054906101000a900460ff161515151581526020016003820160039054906101000a900460ff161515151581526020016003820160049054906101000a900460ff16151515158152505090503373ffffffffffffffffffffffffffffffffffffffff16815f015173ffffffffffffffffffffffffffffffffffffffff16146110f5576040517f08c379a00000000000000000000000000000000000000000000000000000000081526004016110ec9061218e565b60405180910390fd5b8060a00151611139576040517f08c379a0000000000000000000000000000000000000000000000000000000008152600401611130906121f6565b60405180910390fd5b8060e001511561117e576040517f08c379a00000000000000000000000000000000000000000000000000000000081526004016111759061225e565b60405180910390fd5b80604001514710156111c5576040517f08c379a00000000000000000000000000000000000000000000000000000000081526004016111bc906122c6565b60405180910390fd5b60018160e00190151590811515815250503373ffffffffffffffffffffffffffffffffffffffff166108fc826040015190811502906040515f60405180830381858888f1935050505015801561121d573d5f803e3d5ffd5b507f4c6d437bd8a94149f3ed73f0a111d5355bfeac87bb0fc41f0347452b26780f4f8233836040015160405161125593929190611fca565b60405180910390a15050565b5f61128c7fc10c77be35aff266144ed64c26a1fa104bae2f284ae99ac4a34203454704a18583610a1c565b9050919050565b5f7f01ffc9a7000000000000000000000000000000000000000000000000000000007bffffffffffffffffffffffffffffffffffffffffffffffffffffffff1916827bffffffffffffffffffffffffffffffffffffffffffffffffffffffff1916149050919050565b61130d816113086113f9565b6114e9565b50565b5f61131b8383610a1c565b6113ef5760015f808581526020019081526020015f205f015f8473ffffffffffffffffffffffffffffffffffffffff1673ffffffffffffffffffffffffffffffffffffffff1681526020019081526020015f205f6101000a81548160ff02191690831515021790555061138c6113f9565b73ffffffffffffffffffffffffffffffffffffffff168273ffffffffffffffffffffffffffffffffffffffff16847f2f8788117e7eff1d82e926ec794901d17c78024a50270940304540a733656f0d60405160405180910390a4600190506113f3565b5f90505b92915050565b5f33905090565b5f61140b8383610a1c565b156114df575f805f8581526020019081526020015f205f015f8473ffffffffffffffffffffffffffffffffffffffff1673ffffffffffffffffffffffffffffffffffffffff1681526020019081526020015f205f6101000a81548160ff02191690831515021790555061147c6113f9565b73ffffffffffffffffffffffffffffffffffffffff168273ffffffffffffffffffffffffffffffffffffffff16847ff6391f5c32d9c69d2a47ea670b442974b53935d1edc7fd64eb21e047a839171b60405160405180910390a4600190506114e3565b5f90505b92915050565b6114f38282610a1c565b6115365780826040517fe2517d3f00000000000000000000000000000000000000000000000000000000815260040161152d9291906122e4565b60405180910390fd5b5050565b5f604051905090565b5f80fd5b5f80fd5b5f7fffffffff0000000000000000000000000000000000000000000000000000000082169050919050565b61157f8161154b565b8114611589575f80fd5b50565b5f8135905061159a81611576565b92915050565b5f602082840312156115b5576115b4611543565b5b5f6115c28482850161158c565b91505092915050565b5f8115159050919050565b6115df816115cb565b82525050565b5f6020820190506115f85f8301846115d6565b92915050565b5f819050919050565b611610816115fe565b82525050565b5f6020820190506116295f830184611607565b92915050565b5f819050919050565b6116418161162f565b811461164b575f80fd5b50565b5f8135905061165c81611638565b92915050565b5f6020828403121561167757611676611543565b5b5f6116848482850161164e565b91505092915050565b6116968161162f565b82525050565b5f6020820190506116af5f83018461168d565b92915050565b6116be816115fe565b81146116c8575f80fd5b50565b5f813590506116d9816116b5565b92915050565b5f602082840312156116f4576116f3611543565b5b5f611701848285016116cb565b91505092915050565b5f73ffffffffffffffffffffffffffffffffffffffff82169050919050565b5f6117338261170a565b9050919050565b61174381611729565b811461174d575f80fd5b50565b5f8135905061175e8161173a565b92915050565b5f806040838503121561177a57611779611543565b5b5f6117878582860161164e565b925050602061179885828601611750565b9150509250929050565b5f80fd5b5f80fd5b5f601f19601f8301169050919050565b7f4e487b71000000000000000000000000000000000000000000000000000000005f52604160045260245ffd5b6117f0826117aa565b810181811067ffffffffffffffff8211171561180f5761180e6117ba565b5b80604052505050565b5f61182161153a565b905061182d82826117e7565b919050565b5f67ffffffffffffffff82111561184c5761184b6117ba565b5b611855826117aa565b9050602081019050919050565b828183375f83830152505050565b5f61188261187d84611832565b611818565b90508281526020810184848401111561189e5761189d6117a6565b5b6118a9848285611862565b509392505050565b5f82601f8301126118c5576118c46117a2565b5b81356118d5848260208601611870565b91505092915050565b5f80604083850312156118f4576118f3611543565b5b5f83013567ffffffffffffffff81111561191157611910611547565b5b61191d858286016118b1565b925050602061192e858286016116cb565b9150509250929050565b5f60ff82169050919050565b61194d81611938565b82525050565b5f6020820190506119665f830184611944565b92915050565b5f806040838503121561198257611981611543565b5b5f61198f858286016116cb565b92505060206119a085828601611750565b9150509250929050565b5f602082840312156119bf576119be611543565b5b5f6119cc84828501611750565b91505092915050565b6119de81611729565b82525050565b5f81519050919050565b5f82825260208201905092915050565b8281835e5f83830152505050565b5f611a16826119e4565b611a2081856119ee565b9350611a308185602086016119fe565b611a39816117aa565b840191505092915050565b5f61010082019050611a585f83018b6119d5565b8181036020830152611a6a818a611a0c565b9050611a796040830189611607565b611a8660608301886115d6565b611a936080830187611944565b611aa060a08301866115d6565b611aad60c08301856115d6565b611aba60e08301846115d6565b9998505050505050505050565b7f416d6f756e74206d7573742062652067726561746572207468616e207a65726f5f82015250565b5f611afb6020836119ee565b9150611b0682611ac7565b602082019050919050565b5f6020820190508181035f830152611b2881611aef565b9050919050565b7f4d7573742073656e6420457468657220746f2066756e640000000000000000005f82015250565b5f611b636017836119ee565b9150611b6e82611b2f565b602082019050919050565b5f6020820190508181035f830152611b9081611b57565b9050919050565b7f53656e742076616c756520646f6573206e6f74206d61746368207468652073705f8201527f6563696669656420616d6f756e74000000000000000000000000000000000000602082015250565b5f611bf1602e836119ee565b9150611bfc82611b97565b604082019050919050565b5f6020820190508181035f830152611c1e81611be5565b9050919050565b7f4e6f2066756e647320617661696c61626c6500000000000000000000000000005f82015250565b5f611c596012836119ee565b9150611c6482611c25565b602082019050919050565b5f6020820190508181035f830152611c8681611c4d565b9050919050565b7f4e487b71000000000000000000000000000000000000000000000000000000005f52601160045260245ffd5b5f611cc4826115fe565b91507fffffffffffffffffffffffffffffffffffffffffffffffffffffffffffffffff8203611cf657611cf5611c8d565b5b600182019050919050565b7f4e487b71000000000000000000000000000000000000000000000000000000005f52602260045260245ffd5b5f6002820490506001821680611d4557607f821691505b602082108103611d5857611d57611d01565b5b50919050565b5f819050815f5260205f209050919050565b5f6020601f8301049050919050565b5f82821b905092915050565b5f60088302611dba7fffffffffffffffffffffffffffffffffffffffffffffffffffffffffffffffff82611d7f565b611dc48683611d7f565b95508019841693508086168417925050509392505050565b5f819050919050565b5f611dff611dfa611df5846115fe565b611ddc565b6115fe565b9050919050565b5f819050919050565b611e1883611de5565b611e2c611e2482611e06565b848454611d8b565b825550505050565b5f90565b611e40611e34565b611e4b818484611e0f565b505050565b5b81811015611e6e57611e635f82611e38565b600181019050611e51565b5050565b601f821115611eb357611e8481611d5e565b611e8d84611d70565b81016020851015611e9c578190505b611eb0611ea885611d70565b830182611e50565b50505b505050565b5f82821c905092915050565b5f611ed35f1984600802611eb8565b1980831691505092915050565b5f611eeb8383611ec4565b9150826002028217905092915050565b611f04826119e4565b67ffffffffffffffff811115611f1d57611f1c6117ba565b5b611f278254611d2e565b611f32828285611e72565b5f60209050601f831160018114611f63575f8415611f51578287015190505b611f5b8582611ee0565b865550611fc2565b601f198416611f7186611d5e565b5f5b82811015611f9857848901518255600182019150602085019450602081019050611f73565b86831015611fb55784890151611fb1601f891682611ec4565b8355505b6001600288020188555050505b505050505050565b5f606082019050611fdd5f830186611607565b611fea60208301856119d5565b611ff76040830184611607565b949350505050565b7f4170706c69636174696f6e206e6f7420766572696669656420796574000000005f82015250565b5f612033601c836119ee565b915061203e82611fff565b602082019050919050565b5f6020820190508181035f83015261206081612027565b9050919050565b7f416c7265616479207369676e65640000000000000000000000000000000000005f82015250565b5f61209b600e836119ee565b91506120a682612067565b602082019050919050565b5f6020820190508181035f8301526120c88161208f565b9050919050565b5f6120d982611938565b915060ff82036120ec576120eb611c8d565b5b600182019050919050565b5f60408201905061210a5f830185611607565b61211760208301846119d5565b9392505050565b7f4f6e6c792077616c6c65742074686174207375626d69747465642074686520615f8201527f70706c69636174696f6e2063616e20636c61696d000000000000000000000000602082015250565b5f6121786034836119ee565b91506121838261211e565b604082019050919050565b5f6020820190508181035f8301526121a58161216c565b9050919050565b7f4170706c69636174696f6e206e6f7420617070726f76656400000000000000005f82015250565b5f6121e06018836119ee565b91506121eb826121ac565b602082019050919050565b5f6020820190508181035f83015261220d816121d4565b9050919050565b7f416c6c6f77616e636520616c726561647920636c61696d6564000000000000005f82015250565b5f6122486019836119ee565b915061225382612214565b602082019050919050565b5f6020820190508181035f8301526122758161223c565b9050919050565b7f496e73756666696369656e742066756e647300000000000000000000000000005f82015250565b5f6122b06012836119ee565b91506122bb8261227c565b602082019050919050565b5f6020820190508181035f8301526122dd816122a4565b9050919050565b5f6040820190506122f75f8301856119d5565b612304602083018461168d565b939250505056fea2646970667358221220be43285344ea3b7d34411c24fd1309bedeb13679d1b2fdd2aa7d6f142802f54264736f6c634300081a0033",
					"opcodes": "PUSH1 0x80 PUSH1 0x40 MSTORE CALLVALUE DUP1 ISZERO PUSH2 0xF JUMPI PUSH0 DUP1 REVERT JUMPDEST POP PUSH1 0x40 MLOAD PUSH2 0x26EB CODESIZE SUB DUP1 PUSH2 0x26EB DUP4 CODECOPY DUP2 DUP2 ADD PUSH1 0x40 MSTORE DUP2 ADD SWAP1 PUSH2 0x31 SWAP2 SWAP1 PUSH2 0x2F4 JUMP JUMPDEST DUP1 PUSH1 0x2 PUSH0 PUSH2 0x100 EXP DUP2 SLOAD DUP2 PUSH1 0xFF MUL NOT AND SWAP1 DUP4 PUSH1 0xFF AND MUL OR SWAP1 SSTORE POP PUSH2 0x5D PUSH0 DUP1 SHL CALLER PUSH2 0x94 PUSH1 0x20 SHL PUSH1 0x20 SHR JUMP JUMPDEST POP PUSH2 0x8E PUSH32 0xC10C77BE35AFF266144ED64C26A1FA104BAE2F284AE99AC4A34203454704A185 CALLER PUSH2 0x189 PUSH1 0x20 SHL PUSH1 0x20 SHR JUMP JUMPDEST POP PUSH2 0x39D JUMP JUMPDEST PUSH0 PUSH2 0xA5 DUP4 DUP4 PUSH2 0x1BD PUSH1 0x20 SHL PUSH1 0x20 SHR JUMP JUMPDEST PUSH2 0x17F JUMPI PUSH1 0x1 PUSH0 DUP1 DUP6 DUP2 MSTORE PUSH1 0x20 ADD SWAP1 DUP2 MSTORE PUSH1 0x20 ADD PUSH0 KECCAK256 PUSH0 ADD PUSH0 DUP5 PUSH20 0xFFFFFFFFFFFFFFFFFFFFFFFFFFFFFFFFFFFFFFFF AND PUSH20 0xFFFFFFFFFFFFFFFFFFFFFFFFFFFFFFFFFFFFFFFF AND DUP2 MSTORE PUSH1 0x20 ADD SWAP1 DUP2 MSTORE PUSH1 0x20 ADD PUSH0 KECCAK256 PUSH0 PUSH2 0x100 EXP DUP2 SLOAD DUP2 PUSH1 0xFF MUL NOT AND SWAP1 DUP4 ISZERO ISZERO MUL OR SWAP1 SSTORE POP PUSH2 0x11C PUSH2 0x220 PUSH1 0x20 SHL PUSH1 0x20 SHR JUMP JUMPDEST PUSH20 0xFFFFFFFFFFFFFFFFFFFFFFFFFFFFFFFFFFFFFFFF AND DUP3 PUSH20 0xFFFFFFFFFFFFFFFFFFFFFFFFFFFFFFFFFFFFFFFF AND DUP5 PUSH32 0x2F8788117E7EFF1D82E926EC794901D17C78024A50270940304540A733656F0D PUSH1 0x40 MLOAD PUSH1 0x40 MLOAD DUP1 SWAP2 SUB SWAP1 LOG4 PUSH1 0x1 SWAP1 POP PUSH2 0x183 JUMP JUMPDEST PUSH0 SWAP1 POP JUMPDEST SWAP3 SWAP2 POP POP JUMP JUMPDEST PUSH2 0x198 DUP3 PUSH2 0x227 PUSH1 0x20 SHL PUSH1 0x20 SHR JUMP JUMPDEST PUSH2 0x1A7 DUP2 PUSH2 0x243 PUSH1 0x20 SHL PUSH1 0x20 SHR JUMP JUMPDEST PUSH2 0x1B7 DUP4 DUP4 PUSH2 0x94 PUSH1 0x20 SHL PUSH1 0x20 SHR JUMP JUMPDEST POP POP POP POP JUMP JUMPDEST PUSH0 DUP1 PUSH0 DUP5 DUP2 MSTORE PUSH1 0x20 ADD SWAP1 DUP2 MSTORE PUSH1 0x20 ADD PUSH0 KECCAK256 PUSH0 ADD PUSH0 DUP4 PUSH20 0xFFFFFFFFFFFFFFFFFFFFFFFFFFFFFFFFFFFFFFFF AND PUSH20 0xFFFFFFFFFFFFFFFFFFFFFFFFFFFFFFFFFFFFFFFF AND DUP2 MSTORE PUSH1 0x20 ADD SWAP1 DUP2 MSTORE PUSH1 0x20 ADD PUSH0 KECCAK256 PUSH0 SWAP1 SLOAD SWAP1 PUSH2 0x100 EXP SWAP1 DIV PUSH1 0xFF AND SWAP1 POP SWAP3 SWAP2 POP POP JUMP JUMPDEST PUSH0 CALLER SWAP1 POP SWAP1 JUMP JUMPDEST PUSH0 DUP1 PUSH0 DUP4 DUP2 MSTORE PUSH1 0x20 ADD SWAP1 DUP2 MSTORE PUSH1 0x20 ADD PUSH0 KECCAK256 PUSH1 0x1 ADD SLOAD SWAP1 POP SWAP2 SWAP1 POP JUMP JUMPDEST PUSH2 0x260 DUP2 PUSH2 0x255 PUSH2 0x220 PUSH1 0x20 SHL PUSH1 0x20 SHR JUMP JUMPDEST PUSH2 0x263 PUSH1 0x20 SHL PUSH1 0x20 SHR JUMP JUMPDEST POP JUMP JUMPDEST PUSH2 0x273 DUP3 DUP3 PUSH2 0x1BD PUSH1 0x20 SHL PUSH1 0x20 SHR JUMP JUMPDEST PUSH2 0x2B6 JUMPI DUP1 DUP3 PUSH1 0x40 MLOAD PUSH32 0xE2517D3F00000000000000000000000000000000000000000000000000000000 DUP2 MSTORE PUSH1 0x4 ADD PUSH2 0x2AD SWAP3 SWAP2 SWAP1 PUSH2 0x376 JUMP JUMPDEST PUSH1 0x40 MLOAD DUP1 SWAP2 SUB SWAP1 REVERT JUMPDEST POP POP JUMP JUMPDEST PUSH0 DUP1 REVERT JUMPDEST PUSH0 PUSH1 0xFF DUP3 AND SWAP1 POP SWAP2 SWAP1 POP JUMP JUMPDEST PUSH2 0x2D3 DUP2 PUSH2 0x2BE JUMP JUMPDEST DUP2 EQ PUSH2 0x2DD JUMPI PUSH0 DUP1 REVERT JUMPDEST POP JUMP JUMPDEST PUSH0 DUP2 MLOAD SWAP1 POP PUSH2 0x2EE DUP2 PUSH2 0x2CA JUMP JUMPDEST SWAP3 SWAP2 POP POP JUMP JUMPDEST PUSH0 PUSH1 0x20 DUP3 DUP5 SUB SLT ISZERO PUSH2 0x309 JUMPI PUSH2 0x308 PUSH2 0x2BA JUMP JUMPDEST JUMPDEST PUSH0 PUSH2 0x316 DUP5 DUP3 DUP6 ADD PUSH2 0x2E0 JUMP JUMPDEST SWAP2 POP POP SWAP3 SWAP2 POP POP JUMP JUMPDEST PUSH0 PUSH20 0xFFFFFFFFFFFFFFFFFFFFFFFFFFFFFFFFFFFFFFFF DUP3 AND SWAP1 POP SWAP2 SWAP1 POP JUMP JUMPDEST PUSH0 PUSH2 0x348 DUP3 PUSH2 0x31F JUMP JUMPDEST SWAP1 POP SWAP2 SWAP1 POP JUMP JUMPDEST PUSH2 0x358 DUP2 PUSH2 0x33E JUMP JUMPDEST DUP3 MSTORE POP POP JUMP JUMPDEST PUSH0 DUP2 SWAP1 POP SWAP2 SWAP1 POP JUMP JUMPDEST PUSH2 0x370 DUP2 PUSH2 0x35E JUMP JUMPDEST DUP3 MSTORE POP POP JUMP JUMPDEST PUSH0 PUSH1 0x40 DUP3 ADD SWAP1 POP PUSH2 0x389 PUSH0 DUP4 ADD DUP6 PUSH2 0x34F JUMP JUMPDEST PUSH2 0x396 PUSH1 0x20 DUP4 ADD DUP5 PUSH2 0x367 JUMP JUMPDEST SWAP4 SWAP3 POP POP POP JUMP JUMPDEST PUSH2 0x2341 DUP1 PUSH2 0x3AA PUSH0 CODECOPY PUSH0 RETURN INVALID PUSH1 0x80 PUSH1 0x40 MSTORE PUSH1 0x4 CALLDATASIZE LT PUSH2 0x11E JUMPI PUSH0 CALLDATALOAD PUSH1 0xE0 SHR DUP1 PUSH4 0x99C1AADC GT PUSH2 0x9F JUMPI DUP1 PUSH4 0xDA41F68E GT PUSH2 0x63 JUMPI DUP1 PUSH4 0xDA41F68E EQ PUSH2 0x3C6 JUMPI DUP1 PUSH4 0xDFEFADFF EQ PUSH2 0x3EE JUMPI DUP1 PUSH4 0xE2AAD4A0 EQ PUSH2 0x431 JUMPI DUP1 PUSH4 0xF9F8D761 EQ PUSH2 0x45B JUMPI DUP1 PUSH4 0xFDC6258A EQ PUSH2 0x483 JUMPI PUSH2 0x11E JUMP JUMPDEST DUP1 PUSH4 0x99C1AADC EQ PUSH2 0x2E6 JUMPI DUP1 PUSH4 0xA217FDDF EQ PUSH2 0x310 JUMPI DUP1 PUSH4 0xAB2850DA EQ PUSH2 0x33A JUMPI DUP1 PUSH4 0xC012C85B EQ PUSH2 0x376 JUMPI DUP1 PUSH4 0xD547741F EQ PUSH2 0x39E JUMPI PUSH2 0x11E JUMP JUMPDEST DUP1 PUSH4 0x3519A2F8 GT PUSH2 0xE6 JUMPI DUP1 PUSH4 0x3519A2F8 EQ PUSH2 0x214 JUMPI DUP1 PUSH4 0x36568ABE EQ PUSH2 0x230 JUMPI DUP1 PUSH4 0x3CCFD60B EQ PUSH2 0x258 JUMPI DUP1 PUSH4 0x8ADAC838 EQ PUSH2 0x26E JUMPI DUP1 PUSH4 0x91D14854 EQ PUSH2 0x2AA JUMPI PUSH2 0x11E JUMP JUMPDEST DUP1 PUSH4 0x1FFC9A7 EQ PUSH2 0x122 JUMPI DUP1 PUSH4 0x12065FE0 EQ PUSH2 0x15E JUMPI DUP1 PUSH4 0x248A9CA3 EQ PUSH2 0x188 JUMPI DUP1 PUSH4 0x2498A2C0 EQ PUSH2 0x1C4 JUMPI DUP1 PUSH4 0x2F2FF15D EQ PUSH2 0x1EC JUMPI JUMPDEST PUSH0 DUP1 REVERT JUMPDEST CALLVALUE DUP1 ISZERO PUSH2 0x12D JUMPI PUSH0 DUP1 REVERT JUMPDEST POP PUSH2 0x148 PUSH1 0x4 DUP1 CALLDATASIZE SUB DUP2 ADD SWAP1 PUSH2 0x143 SWAP2 SWAP1 PUSH2 0x15A0 JUMP JUMPDEST PUSH2 0x4BF JUMP JUMPDEST PUSH1 0x40 MLOAD PUSH2 0x155 SWAP2 SWAP1 PUSH2 0x15E5 JUMP JUMPDEST PUSH1 0x40 MLOAD DUP1 SWAP2 SUB SWAP1 RETURN JUMPDEST CALLVALUE DUP1 ISZERO PUSH2 0x169 JUMPI PUSH0 DUP1 REVERT JUMPDEST POP PUSH2 0x172 PUSH2 0x538 JUMP JUMPDEST PUSH1 0x40 MLOAD PUSH2 0x17F SWAP2 SWAP1 PUSH2 0x1616 JUMP JUMPDEST PUSH1 0x40 MLOAD DUP1 SWAP2 SUB SWAP1 RETURN JUMPDEST CALLVALUE DUP1 ISZERO PUSH2 0x193 JUMPI PUSH0 DUP1 REVERT JUMPDEST POP PUSH2 0x1AE PUSH1 0x4 DUP1 CALLDATASIZE SUB DUP2 ADD SWAP1 PUSH2 0x1A9 SWAP2 SWAP1 PUSH2 0x1662 JUMP JUMPDEST PUSH2 0x53F JUMP JUMPDEST PUSH1 0x40 MLOAD PUSH2 0x1BB SWAP2 SWAP1 PUSH2 0x169C JUMP JUMPDEST PUSH1 0x40 MLOAD DUP1 SWAP2 SUB SWAP1 RETURN JUMPDEST CALLVALUE DUP1 ISZERO PUSH2 0x1CF JUMPI PUSH0 DUP1 REVERT JUMPDEST POP PUSH2 0x1EA PUSH1 0x4 DUP1 CALLDATASIZE SUB DUP2 ADD SWAP1 PUSH2 0x1E5 SWAP2 SWAP1 PUSH2 0x16DF JUMP JUMPDEST PUSH2 0x55B JUMP JUMPDEST STOP JUMPDEST CALLVALUE DUP1 ISZERO PUSH2 0x1F7 JUMPI PUSH0 DUP1 REVERT JUMPDEST POP PUSH2 0x212 PUSH1 0x4 DUP1 CALLDATASIZE SUB DUP2 ADD SWAP1 PUSH2 0x20D SWAP2 SWAP1 PUSH2 0x1764 JUMP JUMPDEST PUSH2 0x5EC JUMP JUMPDEST STOP JUMPDEST PUSH2 0x22E PUSH1 0x4 DUP1 CALLDATASIZE SUB DUP2 ADD SWAP1 PUSH2 0x229 SWAP2 SWAP1 PUSH2 0x16DF JUMP JUMPDEST PUSH2 0x60E JUMP JUMPDEST STOP JUMPDEST CALLVALUE DUP1 ISZERO PUSH2 0x23B JUMPI PUSH0 DUP1 REVERT JUMPDEST POP PUSH2 0x256 PUSH1 0x4 DUP1 CALLDATASIZE SUB DUP2 ADD SWAP1 PUSH2 0x251 SWAP2 SWAP1 PUSH2 0x1764 JUMP JUMPDEST PUSH2 0x732 JUMP JUMPDEST STOP JUMPDEST CALLVALUE DUP1 ISZERO PUSH2 0x263 JUMPI PUSH0 DUP1 REVERT JUMPDEST POP PUSH2 0x26C PUSH2 0x7AD JUMP JUMPDEST STOP JUMPDEST CALLVALUE DUP1 ISZERO PUSH2 0x279 JUMPI PUSH0 DUP1 REVERT JUMPDEST POP PUSH2 0x294 PUSH1 0x4 DUP1 CALLDATASIZE SUB DUP2 ADD SWAP1 PUSH2 0x28F SWAP2 SWAP1 PUSH2 0x18DE JUMP JUMPDEST PUSH2 0x847 JUMP JUMPDEST PUSH1 0x40 MLOAD PUSH2 0x2A1 SWAP2 SWAP1 PUSH2 0x1616 JUMP JUMPDEST PUSH1 0x40 MLOAD DUP1 SWAP2 SUB SWAP1 RETURN JUMPDEST CALLVALUE DUP1 ISZERO PUSH2 0x2B5 JUMPI PUSH0 DUP1 REVERT JUMPDEST POP PUSH2 0x2D0 PUSH1 0x4 DUP1 CALLDATASIZE SUB DUP2 ADD SWAP1 PUSH2 0x2CB SWAP2 SWAP1 PUSH2 0x1764 JUMP JUMPDEST PUSH2 0xA1C JUMP JUMPDEST PUSH1 0x40 MLOAD PUSH2 0x2DD SWAP2 SWAP1 PUSH2 0x15E5 JUMP JUMPDEST PUSH1 0x40 MLOAD DUP1 SWAP2 SUB SWAP1 RETURN JUMPDEST CALLVALUE DUP1 ISZERO PUSH2 0x2F1 JUMPI PUSH0 DUP1 REVERT JUMPDEST POP PUSH2 0x2FA PUSH2 0xA7F JUMP JUMPDEST PUSH1 0x40 MLOAD PUSH2 0x307 SWAP2 SWAP1 PUSH2 0x1953 JUMP JUMPDEST PUSH1 0x40 MLOAD DUP1 SWAP2 SUB SWAP1 RETURN JUMPDEST CALLVALUE DUP1 ISZERO PUSH2 0x31B JUMPI PUSH0 DUP1 REVERT JUMPDEST POP PUSH2 0x324 PUSH2 0xA91 JUMP JUMPDEST PUSH1 0x40 MLOAD PUSH2 0x331 SWAP2 SWAP1 PUSH2 0x169C JUMP JUMPDEST PUSH1 0x40 MLOAD DUP1 SWAP2 SUB SWAP1 RETURN JUMPDEST CALLVALUE DUP1 ISZERO PUSH2 0x345 JUMPI PUSH0 DUP1 REVERT JUMPDEST POP PUSH2 0x360 PUSH1 0x4 DUP1 CALLDATASIZE SUB DUP2 ADD SWAP1 PUSH2 0x35B SWAP2 SWAP1 PUSH2 0x196C JUMP JUMPDEST PUSH2 0xA97 JUMP JUMPDEST PUSH1 0x40 MLOAD PUSH2 0x36D SWAP2 SWAP1 PUSH2 0x15E5 JUMP JUMPDEST PUSH1 0x40 MLOAD DUP1 SWAP2 SUB SWAP1 RETURN JUMPDEST CALLVALUE DUP1 ISZERO PUSH2 0x381 JUMPI PUSH0 DUP1 REVERT JUMPDEST POP PUSH2 0x39C PUSH1 0x4 DUP1 CALLDATASIZE SUB DUP2 ADD SWAP1 PUSH2 0x397 SWAP2 SWAP1 PUSH2 0x16DF JUMP JUMPDEST PUSH2 0xAC1 JUMP JUMPDEST STOP JUMPDEST CALLVALUE DUP1 ISZERO PUSH2 0x3A9 JUMPI PUSH0 DUP1 REVERT JUMPDEST POP PUSH2 0x3C4 PUSH1 0x4 DUP1 CALLDATASIZE SUB DUP2 ADD SWAP1 PUSH2 0x3BF SWAP2 SWAP1 PUSH2 0x1764 JUMP JUMPDEST PUSH2 0xD70 JUMP JUMPDEST STOP JUMPDEST CALLVALUE DUP1 ISZERO PUSH2 0x3D1 JUMPI PUSH0 DUP1 REVERT JUMPDEST POP PUSH2 0x3EC PUSH1 0x4 DUP1 CALLDATASIZE SUB DUP2 ADD SWAP1 PUSH2 0x3E7 SWAP2 SWAP1 PUSH2 0x19AA JUMP JUMPDEST PUSH2 0xD92 JUMP JUMPDEST STOP JUMPDEST CALLVALUE DUP1 ISZERO PUSH2 0x3F9 JUMPI PUSH0 DUP1 REVERT JUMPDEST POP PUSH2 0x414 PUSH1 0x4 DUP1 CALLDATASIZE SUB DUP2 ADD SWAP1 PUSH2 0x40F SWAP2 SWAP1 PUSH2 0x16DF JUMP JUMPDEST PUSH2 0xDBF JUMP JUMPDEST PUSH1 0x40 MLOAD PUSH2 0x428 SWAP9 SWAP8 SWAP7 SWAP6 SWAP5 SWAP4 SWAP3 SWAP2 SWAP1 PUSH2 0x1A44 JUMP JUMPDEST PUSH1 0x40 MLOAD DUP1 SWAP2 SUB SWAP1 RETURN JUMPDEST CALLVALUE DUP1 ISZERO PUSH2 0x43C JUMPI PUSH0 DUP1 REVERT JUMPDEST POP PUSH2 0x445 PUSH2 0xEE8 JUMP JUMPDEST PUSH1 0x40 MLOAD PUSH2 0x452 SWAP2 SWAP1 PUSH2 0x1616 JUMP JUMPDEST PUSH1 0x40 MLOAD DUP1 SWAP2 SUB SWAP1 RETURN JUMPDEST CALLVALUE DUP1 ISZERO PUSH2 0x466 JUMPI PUSH0 DUP1 REVERT JUMPDEST POP PUSH2 0x481 PUSH1 0x4 DUP1 CALLDATASIZE SUB DUP2 ADD SWAP1 PUSH2 0x47C SWAP2 SWAP1 PUSH2 0x16DF JUMP JUMPDEST PUSH2 0xEEE JUMP JUMPDEST STOP JUMPDEST CALLVALUE DUP1 ISZERO PUSH2 0x48E JUMPI PUSH0 DUP1 REVERT JUMPDEST POP PUSH2 0x4A9 PUSH1 0x4 DUP1 CALLDATASIZE SUB DUP2 ADD SWAP1 PUSH2 0x4A4 SWAP2 SWAP1 PUSH2 0x19AA JUMP JUMPDEST PUSH2 0x1261 JUMP JUMPDEST PUSH1 0x40 MLOAD PUSH2 0x4B6 SWAP2 SWAP1 PUSH2 0x15E5 JUMP JUMPDEST PUSH1 0x40 MLOAD DUP1 SWAP2 SUB SWAP1 RETURN JUMPDEST PUSH0 PUSH32 0x7965DB0B00000000000000000000000000000000000000000000000000000000 PUSH28 0xFFFFFFFFFFFFFFFFFFFFFFFFFFFFFFFFFFFFFFFFFFFFFFFFFFFFFFFF NOT AND DUP3 PUSH28 0xFFFFFFFFFFFFFFFFFFFFFFFFFFFFFFFFFFFFFFFFFFFFFFFFFFFFFFFF NOT AND EQ DUP1 PUSH2 0x531 JUMPI POP PUSH2 0x530 DUP3 PUSH2 0x1293 JUMP JUMPDEST JUMPDEST SWAP1 POP SWAP2 SWAP1 POP JUMP JUMPDEST PUSH0 SELFBALANCE SWAP1 POP SWAP1 JUMP JUMPDEST PUSH0 DUP1 PUSH0 DUP4 DUP2 MSTORE PUSH1 0x20 ADD SWAP1 DUP2 MSTORE PUSH1 0x20 ADD PUSH0 KECCAK256 PUSH1 0x1 ADD SLOAD SWAP1 POP SWAP2 SWAP1 POP JUMP JUMPDEST PUSH32 0xC10C77BE35AFF266144ED64C26A1FA104BAE2F284AE99AC4A34203454704A185 PUSH2 0x585 DUP2 PUSH2 0x12FC JUMP JUMPDEST PUSH1 0x1 PUSH1 0x3 PUSH0 DUP5 DUP2 MSTORE PUSH1 0x20 ADD SWAP1 DUP2 MSTORE PUSH1 0x20 ADD PUSH0 KECCAK256 PUSH1 0x3 ADD PUSH0 PUSH2 0x100 EXP DUP2 SLOAD DUP2 PUSH1 0xFF MUL NOT AND SWAP1 DUP4 ISZERO ISZERO MUL OR SWAP1 SSTORE POP PUSH32 0x1299AE81563FE5DE048C2767E3DD7F74C5D1895F3BC9E566BD92A5175F790036 DUP3 PUSH1 0x40 MLOAD PUSH2 0x5E0 SWAP2 SWAP1 PUSH2 0x1616 JUMP JUMPDEST PUSH1 0x40 MLOAD DUP1 SWAP2 SUB SWAP1 LOG1 POP POP JUMP JUMPDEST PUSH2 0x5F5 DUP3 PUSH2 0x53F JUMP JUMPDEST PUSH2 0x5FE DUP2 PUSH2 0x12FC JUMP JUMPDEST PUSH2 0x608 DUP4 DUP4 PUSH2 0x1310 JUMP JUMPDEST POP POP POP POP JUMP JUMPDEST PUSH0 DUP1 SHL PUSH2 0x61A DUP2 PUSH2 0x12FC JUMP JUMPDEST PUSH0 DUP3 GT PUSH2 0x65C JUMPI PUSH1 0x40 MLOAD PUSH32 0x8C379A000000000000000000000000000000000000000000000000000000000 DUP2 MSTORE PUSH1 0x4 ADD PUSH2 0x653 SWAP1 PUSH2 0x1B11 JUMP JUMPDEST PUSH1 0x40 MLOAD DUP1 SWAP2 SUB SWAP1 REVERT JUMPDEST PUSH0 CALLVALUE GT PUSH2 0x69E JUMPI PUSH1 0x40 MLOAD PUSH32 0x8C379A000000000000000000000000000000000000000000000000000000000 DUP2 MSTORE PUSH1 0x4 ADD PUSH2 0x695 SWAP1 PUSH2 0x1B79 JUMP JUMPDEST PUSH1 0x40 MLOAD DUP1 SWAP2 SUB SWAP1 REVERT JUMPDEST DUP2 CALLVALUE EQ PUSH2 0x6E0 JUMPI PUSH1 0x40 MLOAD PUSH32 0x8C379A000000000000000000000000000000000000000000000000000000000 DUP2 MSTORE PUSH1 0x4 ADD PUSH2 0x6D7 SWAP1 PUSH2 0x1C07 JUMP JUMPDEST PUSH1 0x40 MLOAD DUP1 SWAP2 SUB SWAP1 REVERT JUMPDEST CALLER PUSH20 0xFFFFFFFFFFFFFFFFFFFFFFFFFFFFFFFFFFFFFFFF AND PUSH32 0x5AF8184BEF8E4B45EB9F6ED7734D04DA38CED226495548F46E0C8FF8D7D9A524 CALLVALUE PUSH1 0x40 MLOAD PUSH2 0x726 SWAP2 SWAP1 PUSH2 0x1616 JUMP JUMPDEST PUSH1 0x40 MLOAD DUP1 SWAP2 SUB SWAP1 LOG2 POP POP JUMP JUMPDEST PUSH2 0x73A PUSH2 0x13F9 JUMP JUMPDEST PUSH20 0xFFFFFFFFFFFFFFFFFFFFFFFFFFFFFFFFFFFFFFFF AND DUP2 PUSH20 0xFFFFFFFFFFFFFFFFFFFFFFFFFFFFFFFFFFFFFFFF AND EQ PUSH2 0x79E JUMPI PUSH1 0x40 MLOAD PUSH32 0x6697B23200000000000000000000000000000000000000000000000000000000 DUP2 MSTORE PUSH1 0x4 ADD PUSH1 0x40 MLOAD DUP1 SWAP2 SUB SWAP1 REVERT JUMPDEST PUSH2 0x7A8 DUP3 DUP3 PUSH2 0x1400 JUMP JUMPDEST POP POP POP JUMP JUMPDEST PUSH0 DUP1 SHL PUSH2 0x7B9 DUP2 PUSH2 0x12FC JUMP JUMPDEST PUSH0 SELFBALANCE GT PUSH2 0x7FB JUMPI PUSH1 0x40 MLOAD PUSH32 0x8C379A000000000000000000000000000000000000000000000000000000000 DUP2 MSTORE PUSH1 0x4 ADD PUSH2 0x7F2 SWAP1 PUSH2 0x1C6F JUMP JUMPDEST PUSH1 0x40 MLOAD DUP1 SWAP2 SUB SWAP1 REVERT JUMPDEST PUSH0 SELFBALANCE SWAP1 POP CALLER PUSH20 0xFFFFFFFFFFFFFFFFFFFFFFFFFFFFFFFFFFFFFFFF AND PUSH2 0x8FC DUP3 SWAP1 DUP2 ISZERO MUL SWAP1 PUSH1 0x40 MLOAD PUSH0 PUSH1 0x40 MLOAD DUP1 DUP4 SUB DUP2 DUP6 DUP9 DUP9 CALL SWAP4 POP POP POP POP ISZERO DUP1 ISZERO PUSH2 0x842 JUMPI RETURNDATASIZE PUSH0 DUP1 RETURNDATACOPY RETURNDATASIZE PUSH0 REVERT JUMPDEST POP POP POP JUMP JUMPDEST PUSH0 PUSH1 0x1 PUSH0 DUP2 SLOAD DUP1 SWAP3 SWAP2 SWAP1 PUSH2 0x85A SWAP1 PUSH2 0x1CBA JUMP JUMPDEST SWAP2 SWAP1 POP SSTORE POP PUSH1 0x40 MLOAD DUP1 PUSH2 0x100 ADD PUSH1 0x40 MSTORE DUP1 CALLER PUSH20 0xFFFFFFFFFFFFFFFFFFFFFFFFFFFFFFFFFFFFFFFF AND DUP2 MSTORE PUSH1 0x20 ADD DUP5 DUP2 MSTORE PUSH1 0x20 ADD DUP4 DUP2 MSTORE PUSH1 0x20 ADD PUSH0 ISZERO ISZERO DUP2 MSTORE PUSH1 0x20 ADD PUSH0 PUSH1 0xFF AND DUP2 MSTORE PUSH1 0x20 ADD PUSH0 ISZERO ISZERO DUP2 MSTORE PUSH1 0x20 ADD PUSH0 ISZERO ISZERO DUP2 MSTORE PUSH1 0x20 ADD PUSH0 ISZERO ISZERO DUP2 MSTORE POP PUSH1 0x3 PUSH0 PUSH1 0x1 SLOAD DUP2 MSTORE PUSH1 0x20 ADD SWAP1 DUP2 MSTORE PUSH1 0x20 ADD PUSH0 KECCAK256 PUSH0 DUP3 ADD MLOAD DUP2 PUSH0 ADD PUSH0 PUSH2 0x100 EXP DUP2 SLOAD DUP2 PUSH20 0xFFFFFFFFFFFFFFFFFFFFFFFFFFFFFFFFFFFFFFFF MUL NOT AND SWAP1 DUP4 PUSH20 0xFFFFFFFFFFFFFFFFFFFFFFFFFFFFFFFFFFFFFFFF AND MUL OR SWAP1 SSTORE POP PUSH1 0x20 DUP3 ADD MLOAD DUP2 PUSH1 0x1 ADD SWAP1 DUP2 PUSH2 0x926 SWAP2 SWAP1 PUSH2 0x1EFB JUMP JUMPDEST POP PUSH1 0x40 DUP3 ADD MLOAD DUP2 PUSH1 0x2 ADD SSTORE PUSH1 0x60 DUP3 ADD MLOAD DUP2 PUSH1 0x3 ADD PUSH0 PUSH2 0x100 EXP DUP2 SLOAD DUP2 PUSH1 0xFF MUL NOT AND SWAP1 DUP4 ISZERO ISZERO MUL OR SWAP1 SSTORE POP PUSH1 0x80 DUP3 ADD MLOAD DUP2 PUSH1 0x3 ADD PUSH1 0x1 PUSH2 0x100 EXP DUP2 SLOAD DUP2 PUSH1 0xFF MUL NOT AND SWAP1 DUP4 PUSH1 0xFF AND MUL OR SWAP1 SSTORE POP PUSH1 0xA0 DUP3 ADD MLOAD DUP2 PUSH1 0x3 ADD PUSH1 0x2 PUSH2 0x100 EXP DUP2 SLOAD DUP2 PUSH1 0xFF MUL NOT AND SWAP1 DUP4 ISZERO ISZERO MUL OR SWAP1 SSTORE POP PUSH1 0xC0 DUP3 ADD MLOAD DUP2 PUSH1 0x3 ADD PUSH1 0x3 PUSH2 0x100 EXP DUP2 SLOAD DUP2 PUSH1 0xFF MUL NOT AND SWAP1 DUP4 ISZERO ISZERO MUL OR SWAP1 SSTORE POP PUSH1 0xE0 DUP3 ADD MLOAD DUP2 PUSH1 0x3 ADD PUSH1 0x4 PUSH2 0x100 EXP DUP2 SLOAD DUP2 PUSH1 0xFF MUL NOT AND SWAP1 DUP4 ISZERO ISZERO MUL OR SWAP1 SSTORE POP SWAP1 POP POP PUSH32 0xDB0B522B8234F730C26780FC877F0D063689BE4BC7D6AACB12B40DF8440EB043 PUSH1 0x1 SLOAD CALLER DUP5 PUSH1 0x40 MLOAD PUSH2 0xA09 SWAP4 SWAP3 SWAP2 SWAP1 PUSH2 0x1FCA JUMP JUMPDEST PUSH1 0x40 MLOAD DUP1 SWAP2 SUB SWAP1 LOG1 PUSH1 0x1 SLOAD SWAP1 POP SWAP3 SWAP2 POP POP JUMP JUMPDEST PUSH0 DUP1 PUSH0 DUP5 DUP2 MSTORE PUSH1 0x20 ADD SWAP1 DUP2 MSTORE PUSH1 0x20 ADD PUSH0 KECCAK256 PUSH0 ADD PUSH0 DUP4 PUSH20 0xFFFFFFFFFFFFFFFFFFFFFFFFFFFFFFFFFFFFFFFF AND PUSH20 0xFFFFFFFFFFFFFFFFFFFFFFFFFFFFFFFFFFFFFFFF AND DUP2 MSTORE PUSH1 0x20 ADD SWAP1 DUP2 MSTORE PUSH1 0x20 ADD PUSH0 KECCAK256 PUSH0 SWAP1 SLOAD SWAP1 PUSH2 0x100 EXP SWAP1 DIV PUSH1 0xFF AND SWAP1 POP SWAP3 SWAP2 POP POP JUMP JUMPDEST PUSH1 0x2 PUSH0 SWAP1 SLOAD SWAP1 PUSH2 0x100 EXP SWAP1 DIV PUSH1 0xFF AND DUP2 JUMP JUMPDEST PUSH0 DUP1 SHL DUP2 JUMP JUMPDEST PUSH1 0x4 PUSH1 0x20 MSTORE DUP2 PUSH0 MSTORE PUSH1 0x40 PUSH0 KECCAK256 PUSH1 0x20 MSTORE DUP1 PUSH0 MSTORE PUSH1 0x40 PUSH0 KECCAK256 PUSH0 SWAP2 POP SWAP2 POP SWAP1 SLOAD SWAP1 PUSH2 0x100 EXP SWAP1 DIV PUSH1 0xFF AND DUP2 JUMP JUMPDEST PUSH32 0xC10C77BE35AFF266144ED64C26A1FA104BAE2F284AE99AC4A34203454704A185 PUSH2 0xAEB DUP2 PUSH2 0x12FC JUMP JUMPDEST PUSH1 0x3 PUSH0 DUP4 DUP2 MSTORE PUSH1 0x20 ADD SWAP1 DUP2 MSTORE PUSH1 0x20 ADD PUSH0 KECCAK256 PUSH1 0x3 ADD PUSH0 SWAP1 SLOAD SWAP1 PUSH2 0x100 EXP SWAP1 DIV PUSH1 0xFF AND PUSH2 0xB4B JUMPI PUSH1 0x40 MLOAD PUSH32 0x8C379A000000000000000000000000000000000000000000000000000000000 DUP2 MSTORE PUSH1 0x4 ADD PUSH2 0xB42 SWAP1 PUSH2 0x2049 JUMP JUMPDEST PUSH1 0x40 MLOAD DUP1 SWAP2 SUB SWAP1 REVERT JUMPDEST PUSH1 0x4 PUSH0 DUP4 DUP2 MSTORE PUSH1 0x20 ADD SWAP1 DUP2 MSTORE PUSH1 0x20 ADD PUSH0 KECCAK256 PUSH0 CALLER PUSH20 0xFFFFFFFFFFFFFFFFFFFFFFFFFFFFFFFFFFFFFFFF AND PUSH20 0xFFFFFFFFFFFFFFFFFFFFFFFFFFFFFFFFFFFFFFFF AND DUP2 MSTORE PUSH1 0x20 ADD SWAP1 DUP2 MSTORE PUSH1 0x20 ADD PUSH0 KECCAK256 PUSH0 SWAP1 SLOAD SWAP1 PUSH2 0x100 EXP SWAP1 DIV PUSH1 0xFF AND ISZERO PUSH2 0xBE4 JUMPI PUSH1 0x40 MLOAD PUSH32 0x8C379A000000000000000000000000000000000000000000000000000000000 DUP2 MSTORE PUSH1 0x4 ADD PUSH2 0xBDB SWAP1 PUSH2 0x20B1 JUMP JUMPDEST PUSH1 0x40 MLOAD DUP1 SWAP2 SUB SWAP1 REVERT JUMPDEST PUSH1 0x1 PUSH1 0x4 PUSH0 DUP5 DUP2 MSTORE PUSH1 0x20 ADD SWAP1 DUP2 MSTORE PUSH1 0x20 ADD PUSH0 KECCAK256 PUSH0 CALLER PUSH20 0xFFFFFFFFFFFFFFFFFFFFFFFFFFFFFFFFFFFFFFFF AND PUSH20 0xFFFFFFFFFFFFFFFFFFFFFFFFFFFFFFFFFFFFFFFF AND DUP2 MSTORE PUSH1 0x20 ADD SWAP1 DUP2 MSTORE PUSH1 0x20 ADD PUSH0 KECCAK256 PUSH0 PUSH2 0x100 EXP DUP2 SLOAD DUP2 PUSH1 0xFF MUL NOT AND SWAP1 DUP4 ISZERO ISZERO MUL OR SWAP1 SSTORE POP PUSH1 0x3 PUSH0 DUP4 DUP2 MSTORE PUSH1 0x20 ADD SWAP1 DUP2 MSTORE PUSH1 0x20 ADD PUSH0 KECCAK256 PUSH1 0x3 ADD PUSH1 0x1 DUP2 DUP2 SWAP1 SLOAD SWAP1 PUSH2 0x100 EXP SWAP1 DIV PUSH1 0xFF AND DUP1 SWAP3 SWAP2 SWAP1 PUSH2 0xC79 SWAP1 PUSH2 0x20CF JUMP JUMPDEST SWAP2 SWAP1 PUSH2 0x100 EXP DUP2 SLOAD DUP2 PUSH1 0xFF MUL NOT AND SWAP1 DUP4 PUSH1 0xFF AND MUL OR SWAP1 SSTORE POP POP PUSH32 0xF6952FF82F1D25C8C35077810D20E5ACECC58AC1FE196CB90103969B9C2F6AC2 DUP3 CALLER PUSH1 0x40 MLOAD PUSH2 0xCC3 SWAP3 SWAP2 SWAP1 PUSH2 0x20F7 JUMP JUMPDEST PUSH1 0x40 MLOAD DUP1 SWAP2 SUB SWAP1 LOG1 PUSH1 0x2 PUSH0 SWAP1 SLOAD SWAP1 PUSH2 0x100 EXP SWAP1 DIV PUSH1 0xFF AND PUSH1 0xFF AND PUSH1 0x3 PUSH0 DUP5 DUP2 MSTORE PUSH1 0x20 ADD SWAP1 DUP2 MSTORE PUSH1 0x20 ADD PUSH0 KECCAK256 PUSH1 0x3 ADD PUSH1 0x1 SWAP1 SLOAD SWAP1 PUSH2 0x100 EXP SWAP1 DIV PUSH1 0xFF AND PUSH1 0xFF AND LT PUSH2 0xD6C JUMPI PUSH1 0x1 PUSH1 0x3 PUSH0 DUP5 DUP2 MSTORE PUSH1 0x20 ADD SWAP1 DUP2 MSTORE PUSH1 0x20 ADD PUSH0 KECCAK256 PUSH1 0x3 ADD PUSH1 0x2 PUSH2 0x100 EXP DUP2 SLOAD DUP2 PUSH1 0xFF MUL NOT AND SWAP1 DUP4 ISZERO ISZERO MUL OR SWAP1 SSTORE POP PUSH32 0x18592C970423719446E8CD1DB0F88689331B2C81690E4D59376E8481E36B65EE DUP3 PUSH1 0x40 MLOAD PUSH2 0xD63 SWAP2 SWAP1 PUSH2 0x1616 JUMP JUMPDEST PUSH1 0x40 MLOAD DUP1 SWAP2 SUB SWAP1 LOG1 JUMPDEST POP POP JUMP JUMPDEST PUSH2 0xD79 DUP3 PUSH2 0x53F JUMP JUMPDEST PUSH2 0xD82 DUP2 PUSH2 0x12FC JUMP JUMPDEST PUSH2 0xD8C DUP4 DUP4 PUSH2 0x1400 JUMP JUMPDEST POP POP POP POP JUMP JUMPDEST PUSH2 0xDBC PUSH32 0xC10C77BE35AFF266144ED64C26A1FA104BAE2F284AE99AC4A34203454704A185 DUP3 PUSH2 0x5EC JUMP JUMPDEST POP JUMP JUMPDEST PUSH1 0x3 PUSH1 0x20 MSTORE DUP1 PUSH0 MSTORE PUSH1 0x40 PUSH0 KECCAK256 PUSH0 SWAP2 POP SWAP1 POP DUP1 PUSH0 ADD PUSH0 SWAP1 SLOAD SWAP1 PUSH2 0x100 EXP SWAP1 DIV PUSH20 0xFFFFFFFFFFFFFFFFFFFFFFFFFFFFFFFFFFFFFFFF AND SWAP1 DUP1 PUSH1 0x1 ADD DUP1 SLOAD PUSH2 0xE03 SWAP1 PUSH2 0x1D2E JUMP JUMPDEST DUP1 PUSH1 0x1F ADD PUSH1 0x20 DUP1 SWAP2 DIV MUL PUSH1 0x20 ADD PUSH1 0x40 MLOAD SWAP1 DUP2 ADD PUSH1 0x40 MSTORE DUP1 SWAP3 SWAP2 SWAP1 DUP2 DUP2 MSTORE PUSH1 0x20 ADD DUP3 DUP1 SLOAD PUSH2 0xE2F SWAP1 PUSH2 0x1D2E JUMP JUMPDEST DUP1 ISZERO PUSH2 0xE7A JUMPI DUP1 PUSH1 0x1F LT PUSH2 0xE51 JUMPI PUSH2 0x100 DUP1 DUP4 SLOAD DIV MUL DUP4 MSTORE SWAP2 PUSH1 0x20 ADD SWAP2 PUSH2 0xE7A JUMP JUMPDEST DUP3 ADD SWAP2 SWAP1 PUSH0 MSTORE PUSH1 0x20 PUSH0 KECCAK256 SWAP1 JUMPDEST DUP2 SLOAD DUP2 MSTORE SWAP1 PUSH1 0x1 ADD SWAP1 PUSH1 0x20 ADD DUP1 DUP4 GT PUSH2 0xE5D JUMPI DUP3 SWAP1 SUB PUSH1 0x1F AND DUP3 ADD SWAP2 JUMPDEST POP POP POP POP POP SWAP1 DUP1 PUSH1 0x2 ADD SLOAD SWAP1 DUP1 PUSH1 0x3 ADD PUSH0 SWAP1 SLOAD SWAP1 PUSH2 0x100 EXP SWAP1 DIV PUSH1 0xFF AND SWAP1 DUP1 PUSH1 0x3 ADD PUSH1 0x1 SWAP1 SLOAD SWAP1 PUSH2 0x100 EXP SWAP1 DIV PUSH1 0xFF AND SWAP1 DUP1 PUSH1 0x3 ADD PUSH1 0x2 SWAP1 SLOAD SWAP1 PUSH2 0x100 EXP SWAP1 DIV PUSH1 0xFF AND SWAP1 DUP1 PUSH1 0x3 ADD PUSH1 0x3 SWAP1 SLOAD SWAP1 PUSH2 0x100 EXP SWAP1 DIV PUSH1 0xFF AND SWAP1 DUP1 PUSH1 0x3 ADD PUSH1 0x4 SWAP1 SLOAD SWAP1 PUSH2 0x100 EXP SWAP1 DIV PUSH1 0xFF AND SWAP1 POP DUP9 JUMP JUMPDEST PUSH1 0x1 SLOAD DUP2 JUMP JUMPDEST PUSH0 PUSH1 0x3 PUSH0 DUP4 DUP2 MSTORE PUSH1 0x20 ADD SWAP1 DUP2 MSTORE PUSH1 0x20 ADD PUSH0 KECCAK256 PUSH1 0x40 MLOAD DUP1 PUSH2 0x100 ADD PUSH1 0x40 MSTORE SWAP1 DUP2 PUSH0 DUP3 ADD PUSH0 SWAP1 SLOAD SWAP1 PUSH2 0x100 EXP SWAP1 DIV PUSH20 0xFFFFFFFFFFFFFFFFFFFFFFFFFFFFFFFFFFFFFFFF AND PUSH20 0xFFFFFFFFFFFFFFFFFFFFFFFFFFFFFFFFFFFFFFFF AND PUSH20 0xFFFFFFFFFFFFFFFFFFFFFFFFFFFFFFFFFFFFFFFF AND DUP2 MSTORE PUSH1 0x20 ADD PUSH1 0x1 DUP3 ADD DUP1 SLOAD PUSH2 0xF70 SWAP1 PUSH2 0x1D2E JUMP JUMPDEST DUP1 PUSH1 0x1F ADD PUSH1 0x20 DUP1 SWAP2 DIV MUL PUSH1 0x20 ADD PUSH1 0x40 MLOAD SWAP1 DUP2 ADD PUSH1 0x40 MSTORE DUP1 SWAP3 SWAP2 SWAP1 DUP2 DUP2 MSTORE PUSH1 0x20 ADD DUP3 DUP1 SLOAD PUSH2 0xF9C SWAP1 PUSH2 0x1D2E JUMP JUMPDEST DUP1 ISZERO PUSH2 0xFE7 JUMPI DUP1 PUSH1 0x1F LT PUSH2 0xFBE JUMPI PUSH2 0x100 DUP1 DUP4 SLOAD DIV MUL DUP4 MSTORE SWAP2 PUSH1 0x20 ADD SWAP2 PUSH2 0xFE7 JUMP JUMPDEST DUP3 ADD SWAP2 SWAP1 PUSH0 MSTORE PUSH1 0x20 PUSH0 KECCAK256 SWAP1 JUMPDEST DUP2 SLOAD DUP2 MSTORE SWAP1 PUSH1 0x1 ADD SWAP1 PUSH1 0x20 ADD DUP1 DUP4 GT PUSH2 0xFCA JUMPI DUP3 SWAP1 SUB PUSH1 0x1F AND DUP3 ADD SWAP2 JUMPDEST POP POP POP POP POP DUP2 MSTORE PUSH1 0x20 ADD PUSH1 0x2 DUP3 ADD SLOAD DUP2 MSTORE PUSH1 0x20 ADD PUSH1 0x3 DUP3 ADD PUSH0 SWAP1 SLOAD SWAP1 PUSH2 0x100 EXP SWAP1 DIV PUSH1 0xFF AND ISZERO ISZERO ISZERO ISZERO DUP2 MSTORE PUSH1 0x20 ADD PUSH1 0x3 DUP3 ADD PUSH1 0x1 SWAP1 SLOAD SWAP1 PUSH2 0x100 EXP SWAP1 DIV PUSH1 0xFF AND PUSH1 0xFF AND PUSH1 0xFF AND DUP2 MSTORE PUSH1 0x20 ADD PUSH1 0x3 DUP3 ADD PUSH1 0x2 SWAP1 SLOAD SWAP1 PUSH2 0x100 EXP SWAP1 DIV PUSH1 0xFF AND ISZERO ISZERO ISZERO ISZERO DUP2 MSTORE PUSH1 0x20 ADD PUSH1 0x3 DUP3 ADD PUSH1 0x3 SWAP1 SLOAD SWAP1 PUSH2 0x100 EXP SWAP1 DIV PUSH1 0xFF AND ISZERO ISZERO ISZERO ISZERO DUP2 MSTORE PUSH1 0x20 ADD PUSH1 0x3 DUP3 ADD PUSH1 0x4 SWAP1 SLOAD SWAP1 PUSH2 0x100 EXP SWAP1 DIV PUSH1 0xFF AND ISZERO ISZERO ISZERO ISZERO DUP2 MSTORE POP POP SWAP1 POP CALLER PUSH20 0xFFFFFFFFFFFFFFFFFFFFFFFFFFFFFFFFFFFFFFFF AND DUP2 PUSH0 ADD MLOAD PUSH20 0xFFFFFFFFFFFFFFFFFFFFFFFFFFFFFFFFFFFFFFFF AND EQ PUSH2 0x10F5 JUMPI PUSH1 0x40 MLOAD PUSH32 0x8C379A000000000000000000000000000000000000000000000000000000000 DUP2 MSTORE PUSH1 0x4 ADD PUSH2 0x10EC SWAP1 PUSH2 0x218E JUMP JUMPDEST PUSH1 0x40 MLOAD DUP1 SWAP2 SUB SWAP1 REVERT JUMPDEST DUP1 PUSH1 0xA0 ADD MLOAD PUSH2 0x1139 JUMPI PUSH1 0x40 MLOAD PUSH32 0x8C379A000000000000000000000000000000000000000000000000000000000 DUP2 MSTORE PUSH1 0x4 ADD PUSH2 0x1130 SWAP1 PUSH2 0x21F6 JUMP JUMPDEST PUSH1 0x40 MLOAD DUP1 SWAP2 SUB SWAP1 REVERT JUMPDEST DUP1 PUSH1 0xE0 ADD MLOAD ISZERO PUSH2 0x117E JUMPI PUSH1 0x40 MLOAD PUSH32 0x8C379A000000000000000000000000000000000000000000000000000000000 DUP2 MSTORE PUSH1 0x4 ADD PUSH2 0x1175 SWAP1 PUSH2 0x225E JUMP JUMPDEST PUSH1 0x40 MLOAD DUP1 SWAP2 SUB SWAP1 REVERT JUMPDEST DUP1 PUSH1 0x40 ADD MLOAD SELFBALANCE LT ISZERO PUSH2 0x11C5 JUMPI PUSH1 0x40 MLOAD PUSH32 0x8C379A000000000000000000000000000000000000000000000000000000000 DUP2 MSTORE PUSH1 0x4 ADD PUSH2 0x11BC SWAP1 PUSH2 0x22C6 JUMP JUMPDEST PUSH1 0x40 MLOAD DUP1 SWAP2 SUB SWAP1 REVERT JUMPDEST PUSH1 0x1 DUP2 PUSH1 0xE0 ADD SWAP1 ISZERO ISZERO SWAP1 DUP2 ISZERO ISZERO DUP2 MSTORE POP POP CALLER PUSH20 0xFFFFFFFFFFFFFFFFFFFFFFFFFFFFFFFFFFFFFFFF AND PUSH2 0x8FC DUP3 PUSH1 0x40 ADD MLOAD SWAP1 DUP2 ISZERO MUL SWAP1 PUSH1 0x40 MLOAD PUSH0 PUSH1 0x40 MLOAD DUP1 DUP4 SUB DUP2 DUP6 DUP9 DUP9 CALL SWAP4 POP POP POP POP ISZERO DUP1 ISZERO PUSH2 0x121D JUMPI RETURNDATASIZE PUSH0 DUP1 RETURNDATACOPY RETURNDATASIZE PUSH0 REVERT JUMPDEST POP PUSH32 0x4C6D437BD8A94149F3ED73F0A111D5355BFEAC87BB0FC41F0347452B26780F4F DUP3 CALLER DUP4 PUSH1 0x40 ADD MLOAD PUSH1 0x40 MLOAD PUSH2 0x1255 SWAP4 SWAP3 SWAP2 SWAP1 PUSH2 0x1FCA JUMP JUMPDEST PUSH1 0x40 MLOAD DUP1 SWAP2 SUB SWAP1 LOG1 POP POP JUMP JUMPDEST PUSH0 PUSH2 0x128C PUSH32 0xC10C77BE35AFF266144ED64C26A1FA104BAE2F284AE99AC4A34203454704A185 DUP4 PUSH2 0xA1C JUMP JUMPDEST SWAP1 POP SWAP2 SWAP1 POP JUMP JUMPDEST PUSH0 PUSH32 0x1FFC9A700000000000000000000000000000000000000000000000000000000 PUSH28 0xFFFFFFFFFFFFFFFFFFFFFFFFFFFFFFFFFFFFFFFFFFFFFFFFFFFFFFFF NOT AND DUP3 PUSH28 0xFFFFFFFFFFFFFFFFFFFFFFFFFFFFFFFFFFFFFFFFFFFFFFFFFFFFFFFF NOT AND EQ SWAP1 POP SWAP2 SWAP1 POP JUMP JUMPDEST PUSH2 0x130D DUP2 PUSH2 0x1308 PUSH2 0x13F9 JUMP JUMPDEST PUSH2 0x14E9 JUMP JUMPDEST POP JUMP JUMPDEST PUSH0 PUSH2 0x131B DUP4 DUP4 PUSH2 0xA1C JUMP JUMPDEST PUSH2 0x13EF JUMPI PUSH1 0x1 PUSH0 DUP1 DUP6 DUP2 MSTORE PUSH1 0x20 ADD SWAP1 DUP2 MSTORE PUSH1 0x20 ADD PUSH0 KECCAK256 PUSH0 ADD PUSH0 DUP5 PUSH20 0xFFFFFFFFFFFFFFFFFFFFFFFFFFFFFFFFFFFFFFFF AND PUSH20 0xFFFFFFFFFFFFFFFFFFFFFFFFFFFFFFFFFFFFFFFF AND DUP2 MSTORE PUSH1 0x20 ADD SWAP1 DUP2 MSTORE PUSH1 0x20 ADD PUSH0 KECCAK256 PUSH0 PUSH2 0x100 EXP DUP2 SLOAD DUP2 PUSH1 0xFF MUL NOT AND SWAP1 DUP4 ISZERO ISZERO MUL OR SWAP1 SSTORE POP PUSH2 0x138C PUSH2 0x13F9 JUMP JUMPDEST PUSH20 0xFFFFFFFFFFFFFFFFFFFFFFFFFFFFFFFFFFFFFFFF AND DUP3 PUSH20 0xFFFFFFFFFFFFFFFFFFFFFFFFFFFFFFFFFFFFFFFF AND DUP5 PUSH32 0x2F8788117E7EFF1D82E926EC794901D17C78024A50270940304540A733656F0D PUSH1 0x40 MLOAD PUSH1 0x40 MLOAD DUP1 SWAP2 SUB SWAP1 LOG4 PUSH1 0x1 SWAP1 POP PUSH2 0x13F3 JUMP JUMPDEST PUSH0 SWAP1 POP JUMPDEST SWAP3 SWAP2 POP POP JUMP JUMPDEST PUSH0 CALLER SWAP1 POP SWAP1 JUMP JUMPDEST PUSH0 PUSH2 0x140B DUP4 DUP4 PUSH2 0xA1C JUMP JUMPDEST ISZERO PUSH2 0x14DF JUMPI PUSH0 DUP1 PUSH0 DUP6 DUP2 MSTORE PUSH1 0x20 ADD SWAP1 DUP2 MSTORE PUSH1 0x20 ADD PUSH0 KECCAK256 PUSH0 ADD PUSH0 DUP5 PUSH20 0xFFFFFFFFFFFFFFFFFFFFFFFFFFFFFFFFFFFFFFFF AND PUSH20 0xFFFFFFFFFFFFFFFFFFFFFFFFFFFFFFFFFFFFFFFF AND DUP2 MSTORE PUSH1 0x20 ADD SWAP1 DUP2 MSTORE PUSH1 0x20 ADD PUSH0 KECCAK256 PUSH0 PUSH2 0x100 EXP DUP2 SLOAD DUP2 PUSH1 0xFF MUL NOT AND SWAP1 DUP4 ISZERO ISZERO MUL OR SWAP1 SSTORE POP PUSH2 0x147C PUSH2 0x13F9 JUMP JUMPDEST PUSH20 0xFFFFFFFFFFFFFFFFFFFFFFFFFFFFFFFFFFFFFFFF AND DUP3 PUSH20 0xFFFFFFFFFFFFFFFFFFFFFFFFFFFFFFFFFFFFFFFF AND DUP5 PUSH32 0xF6391F5C32D9C69D2A47EA670B442974B53935D1EDC7FD64EB21E047A839171B PUSH1 0x40 MLOAD PUSH1 0x40 MLOAD DUP1 SWAP2 SUB SWAP1 LOG4 PUSH1 0x1 SWAP1 POP PUSH2 0x14E3 JUMP JUMPDEST PUSH0 SWAP1 POP JUMPDEST SWAP3 SWAP2 POP POP JUMP JUMPDEST PUSH2 0x14F3 DUP3 DUP3 PUSH2 0xA1C JUMP JUMPDEST PUSH2 0x1536 JUMPI DUP1 DUP3 PUSH1 0x40 MLOAD PUSH32 0xE2517D3F00000000000000000000000000000000000000000000000000000000 DUP2 MSTORE PUSH1 0x4 ADD PUSH2 0x152D SWAP3 SWAP2 SWAP1 PUSH2 0x22E4 JUMP JUMPDEST PUSH1 0x40 MLOAD DUP1 SWAP2 SUB SWAP1 REVERT JUMPDEST POP POP JUMP JUMPDEST PUSH0 PUSH1 0x40 MLOAD SWAP1 POP SWAP1 JUMP JUMPDEST PUSH0 DUP1 REVERT JUMPDEST PUSH0 DUP1 REVERT JUMPDEST PUSH0 PUSH32 0xFFFFFFFF00000000000000000000000000000000000000000000000000000000 DUP3 AND SWAP1 POP SWAP2 SWAP1 POP JUMP JUMPDEST PUSH2 0x157F DUP2 PUSH2 0x154B JUMP JUMPDEST DUP2 EQ PUSH2 0x1589 JUMPI PUSH0 DUP1 REVERT JUMPDEST POP JUMP JUMPDEST PUSH0 DUP2 CALLDATALOAD SWAP1 POP PUSH2 0x159A DUP2 PUSH2 0x1576 JUMP JUMPDEST SWAP3 SWAP2 POP POP JUMP JUMPDEST PUSH0 PUSH1 0x20 DUP3 DUP5 SUB SLT ISZERO PUSH2 0x15B5 JUMPI PUSH2 0x15B4 PUSH2 0x1543 JUMP JUMPDEST JUMPDEST PUSH0 PUSH2 0x15C2 DUP5 DUP3 DUP6 ADD PUSH2 0x158C JUMP JUMPDEST SWAP2 POP POP SWAP3 SWAP2 POP POP JUMP JUMPDEST PUSH0 DUP2 ISZERO ISZERO SWAP1 POP SWAP2 SWAP1 POP JUMP JUMPDEST PUSH2 0x15DF DUP2 PUSH2 0x15CB JUMP JUMPDEST DUP3 MSTORE POP POP JUMP JUMPDEST PUSH0 PUSH1 0x20 DUP3 ADD SWAP1 POP PUSH2 0x15F8 PUSH0 DUP4 ADD DUP5 PUSH2 0x15D6 JUMP JUMPDEST SWAP3 SWAP2 POP POP JUMP JUMPDEST PUSH0 DUP2 SWAP1 POP SWAP2 SWAP1 POP JUMP JUMPDEST PUSH2 0x1610 DUP2 PUSH2 0x15FE JUMP JUMPDEST DUP3 MSTORE POP POP JUMP JUMPDEST PUSH0 PUSH1 0x20 DUP3 ADD SWAP1 POP PUSH2 0x1629 PUSH0 DUP4 ADD DUP5 PUSH2 0x1607 JUMP JUMPDEST SWAP3 SWAP2 POP POP JUMP JUMPDEST PUSH0 DUP2 SWAP1 POP SWAP2 SWAP1 POP JUMP JUMPDEST PUSH2 0x1641 DUP2 PUSH2 0x162F JUMP JUMPDEST DUP2 EQ PUSH2 0x164B JUMPI PUSH0 DUP1 REVERT JUMPDEST POP JUMP JUMPDEST PUSH0 DUP2 CALLDATALOAD SWAP1 POP PUSH2 0x165C DUP2 PUSH2 0x1638 JUMP JUMPDEST SWAP3 SWAP2 POP POP JUMP JUMPDEST PUSH0 PUSH1 0x20 DUP3 DUP5 SUB SLT ISZERO PUSH2 0x1677 JUMPI PUSH2 0x1676 PUSH2 0x1543 JUMP JUMPDEST JUMPDEST PUSH0 PUSH2 0x1684 DUP5 DUP3 DUP6 ADD PUSH2 0x164E JUMP JUMPDEST SWAP2 POP POP SWAP3 SWAP2 POP POP JUMP JUMPDEST PUSH2 0x1696 DUP2 PUSH2 0x162F JUMP JUMPDEST DUP3 MSTORE POP POP JUMP JUMPDEST PUSH0 PUSH1 0x20 DUP3 ADD SWAP1 POP PUSH2 0x16AF PUSH0 DUP4 ADD DUP5 PUSH2 0x168D JUMP JUMPDEST SWAP3 SWAP2 POP POP JUMP JUMPDEST PUSH2 0x16BE DUP2 PUSH2 0x15FE JUMP JUMPDEST DUP2 EQ PUSH2 0x16C8 JUMPI PUSH0 DUP1 REVERT JUMPDEST POP JUMP JUMPDEST PUSH0 DUP2 CALLDATALOAD SWAP1 POP PUSH2 0x16D9 DUP2 PUSH2 0x16B5 JUMP JUMPDEST SWAP3 SWAP2 POP POP JUMP JUMPDEST PUSH0 PUSH1 0x20 DUP3 DUP5 SUB SLT ISZERO PUSH2 0x16F4 JUMPI PUSH2 0x16F3 PUSH2 0x1543 JUMP JUMPDEST JUMPDEST PUSH0 PUSH2 0x1701 DUP5 DUP3 DUP6 ADD PUSH2 0x16CB JUMP JUMPDEST SWAP2 POP POP SWAP3 SWAP2 POP POP JUMP JUMPDEST PUSH0 PUSH20 0xFFFFFFFFFFFFFFFFFFFFFFFFFFFFFFFFFFFFFFFF DUP3 AND SWAP1 POP SWAP2 SWAP1 POP JUMP JUMPDEST PUSH0 PUSH2 0x1733 DUP3 PUSH2 0x170A JUMP JUMPDEST SWAP1 POP SWAP2 SWAP1 POP JUMP JUMPDEST PUSH2 0x1743 DUP2 PUSH2 0x1729 JUMP JUMPDEST DUP2 EQ PUSH2 0x174D JUMPI PUSH0 DUP1 REVERT JUMPDEST POP JUMP JUMPDEST PUSH0 DUP2 CALLDATALOAD SWAP1 POP PUSH2 0x175E DUP2 PUSH2 0x173A JUMP JUMPDEST SWAP3 SWAP2 POP POP JUMP JUMPDEST PUSH0 DUP1 PUSH1 0x40 DUP4 DUP6 SUB SLT ISZERO PUSH2 0x177A JUMPI PUSH2 0x1779 PUSH2 0x1543 JUMP JUMPDEST JUMPDEST PUSH0 PUSH2 0x1787 DUP6 DUP3 DUP7 ADD PUSH2 0x164E JUMP JUMPDEST SWAP3 POP POP PUSH1 0x20 PUSH2 0x1798 DUP6 DUP3 DUP7 ADD PUSH2 0x1750 JUMP JUMPDEST SWAP2 POP POP SWAP3 POP SWAP3 SWAP1 POP JUMP JUMPDEST PUSH0 DUP1 REVERT JUMPDEST PUSH0 DUP1 REVERT JUMPDEST PUSH0 PUSH1 0x1F NOT PUSH1 0x1F DUP4 ADD AND SWAP1 POP SWAP2 SWAP1 POP JUMP JUMPDEST PUSH32 0x4E487B7100000000000000000000000000000000000000000000000000000000 PUSH0 MSTORE PUSH1 0x41 PUSH1 0x4 MSTORE PUSH1 0x24 PUSH0 REVERT JUMPDEST PUSH2 0x17F0 DUP3 PUSH2 0x17AA JUMP JUMPDEST DUP2 ADD DUP2 DUP2 LT PUSH8 0xFFFFFFFFFFFFFFFF DUP3 GT OR ISZERO PUSH2 0x180F JUMPI PUSH2 0x180E PUSH2 0x17BA JUMP JUMPDEST JUMPDEST DUP1 PUSH1 0x40 MSTORE POP POP POP JUMP JUMPDEST PUSH0 PUSH2 0x1821 PUSH2 0x153A JUMP JUMPDEST SWAP1 POP PUSH2 0x182D DUP3 DUP3 PUSH2 0x17E7 JUMP JUMPDEST SWAP2 SWAP1 POP JUMP JUMPDEST PUSH0 PUSH8 0xFFFFFFFFFFFFFFFF DUP3 GT ISZERO PUSH2 0x184C JUMPI PUSH2 0x184B PUSH2 0x17BA JUMP JUMPDEST JUMPDEST PUSH2 0x1855 DUP3 PUSH2 0x17AA JUMP JUMPDEST SWAP1 POP PUSH1 0x20 DUP2 ADD SWAP1 POP SWAP2 SWAP1 POP JUMP JUMPDEST DUP3 DUP2 DUP4 CALLDATACOPY PUSH0 DUP4 DUP4 ADD MSTORE POP POP POP JUMP JUMPDEST PUSH0 PUSH2 0x1882 PUSH2 0x187D DUP5 PUSH2 0x1832 JUMP JUMPDEST PUSH2 0x1818 JUMP JUMPDEST SWAP1 POP DUP3 DUP2 MSTORE PUSH1 0x20 DUP2 ADD DUP5 DUP5 DUP5 ADD GT ISZERO PUSH2 0x189E JUMPI PUSH2 0x189D PUSH2 0x17A6 JUMP JUMPDEST JUMPDEST PUSH2 0x18A9 DUP5 DUP3 DUP6 PUSH2 0x1862 JUMP JUMPDEST POP SWAP4 SWAP3 POP POP POP JUMP JUMPDEST PUSH0 DUP3 PUSH1 0x1F DUP4 ADD SLT PUSH2 0x18C5 JUMPI PUSH2 0x18C4 PUSH2 0x17A2 JUMP JUMPDEST JUMPDEST DUP2 CALLDATALOAD PUSH2 0x18D5 DUP5 DUP3 PUSH1 0x20 DUP7 ADD PUSH2 0x1870 JUMP JUMPDEST SWAP2 POP POP SWAP3 SWAP2 POP POP JUMP JUMPDEST PUSH0 DUP1 PUSH1 0x40 DUP4 DUP6 SUB SLT ISZERO PUSH2 0x18F4 JUMPI PUSH2 0x18F3 PUSH2 0x1543 JUMP JUMPDEST JUMPDEST PUSH0 DUP4 ADD CALLDATALOAD PUSH8 0xFFFFFFFFFFFFFFFF DUP2 GT ISZERO PUSH2 0x1911 JUMPI PUSH2 0x1910 PUSH2 0x1547 JUMP JUMPDEST JUMPDEST PUSH2 0x191D DUP6 DUP3 DUP7 ADD PUSH2 0x18B1 JUMP JUMPDEST SWAP3 POP POP PUSH1 0x20 PUSH2 0x192E DUP6 DUP3 DUP7 ADD PUSH2 0x16CB JUMP JUMPDEST SWAP2 POP POP SWAP3 POP SWAP3 SWAP1 POP JUMP JUMPDEST PUSH0 PUSH1 0xFF DUP3 AND SWAP1 POP SWAP2 SWAP1 POP JUMP JUMPDEST PUSH2 0x194D DUP2 PUSH2 0x1938 JUMP JUMPDEST DUP3 MSTORE POP POP JUMP JUMPDEST PUSH0 PUSH1 0x20 DUP3 ADD SWAP1 POP PUSH2 0x1966 PUSH0 DUP4 ADD DUP5 PUSH2 0x1944 JUMP JUMPDEST SWAP3 SWAP2 POP POP JUMP JUMPDEST PUSH0 DUP1 PUSH1 0x40 DUP4 DUP6 SUB SLT ISZERO PUSH2 0x1982 JUMPI PUSH2 0x1981 PUSH2 0x1543 JUMP JUMPDEST JUMPDEST PUSH0 PUSH2 0x198F DUP6 DUP3 DUP7 ADD PUSH2 0x16CB JUMP JUMPDEST SWAP3 POP POP PUSH1 0x20 PUSH2 0x19A0 DUP6 DUP3 DUP7 ADD PUSH2 0x1750 JUMP JUMPDEST SWAP2 POP POP SWAP3 POP SWAP3 SWAP1 POP JUMP JUMPDEST PUSH0 PUSH1 0x20 DUP3 DUP5 SUB SLT ISZERO PUSH2 0x19BF JUMPI PUSH2 0x19BE PUSH2 0x1543 JUMP JUMPDEST JUMPDEST PUSH0 PUSH2 0x19CC DUP5 DUP3 DUP6 ADD PUSH2 0x1750 JUMP JUMPDEST SWAP2 POP POP SWAP3 SWAP2 POP POP JUMP JUMPDEST PUSH2 0x19DE DUP2 PUSH2 0x1729 JUMP JUMPDEST DUP3 MSTORE POP POP JUMP JUMPDEST PUSH0 DUP2 MLOAD SWAP1 POP SWAP2 SWAP1 POP JUMP JUMPDEST PUSH0 DUP3 DUP3 MSTORE PUSH1 0x20 DUP3 ADD SWAP1 POP SWAP3 SWAP2 POP POP JUMP JUMPDEST DUP3 DUP2 DUP4 MCOPY PUSH0 DUP4 DUP4 ADD MSTORE POP POP POP JUMP JUMPDEST PUSH0 PUSH2 0x1A16 DUP3 PUSH2 0x19E4 JUMP JUMPDEST PUSH2 0x1A20 DUP2 DUP6 PUSH2 0x19EE JUMP JUMPDEST SWAP4 POP PUSH2 0x1A30 DUP2 DUP6 PUSH1 0x20 DUP7 ADD PUSH2 0x19FE JUMP JUMPDEST PUSH2 0x1A39 DUP2 PUSH2 0x17AA JUMP JUMPDEST DUP5 ADD SWAP2 POP POP SWAP3 SWAP2 POP POP JUMP JUMPDEST PUSH0 PUSH2 0x100 DUP3 ADD SWAP1 POP PUSH2 0x1A58 PUSH0 DUP4 ADD DUP12 PUSH2 0x19D5 JUMP JUMPDEST DUP2 DUP2 SUB PUSH1 0x20 DUP4 ADD MSTORE PUSH2 0x1A6A DUP2 DUP11 PUSH2 0x1A0C JUMP JUMPDEST SWAP1 POP PUSH2 0x1A79 PUSH1 0x40 DUP4 ADD DUP10 PUSH2 0x1607 JUMP JUMPDEST PUSH2 0x1A86 PUSH1 0x60 DUP4 ADD DUP9 PUSH2 0x15D6 JUMP JUMPDEST PUSH2 0x1A93 PUSH1 0x80 DUP4 ADD DUP8 PUSH2 0x1944 JUMP JUMPDEST PUSH2 0x1AA0 PUSH1 0xA0 DUP4 ADD DUP7 PUSH2 0x15D6 JUMP JUMPDEST PUSH2 0x1AAD PUSH1 0xC0 DUP4 ADD DUP6 PUSH2 0x15D6 JUMP JUMPDEST PUSH2 0x1ABA PUSH1 0xE0 DUP4 ADD DUP5 PUSH2 0x15D6 JUMP JUMPDEST SWAP10 SWAP9 POP POP POP POP POP POP POP POP POP JUMP JUMPDEST PUSH32 0x416D6F756E74206D7573742062652067726561746572207468616E207A65726F PUSH0 DUP3 ADD MSTORE POP JUMP JUMPDEST PUSH0 PUSH2 0x1AFB PUSH1 0x20 DUP4 PUSH2 0x19EE JUMP JUMPDEST SWAP2 POP PUSH2 0x1B06 DUP3 PUSH2 0x1AC7 JUMP JUMPDEST PUSH1 0x20 DUP3 ADD SWAP1 POP SWAP2 SWAP1 POP JUMP JUMPDEST PUSH0 PUSH1 0x20 DUP3 ADD SWAP1 POP DUP2 DUP2 SUB PUSH0 DUP4 ADD MSTORE PUSH2 0x1B28 DUP2 PUSH2 0x1AEF JUMP JUMPDEST SWAP1 POP SWAP2 SWAP1 POP JUMP JUMPDEST PUSH32 0x4D7573742073656E6420457468657220746F2066756E64000000000000000000 PUSH0 DUP3 ADD MSTORE POP JUMP JUMPDEST PUSH0 PUSH2 0x1B63 PUSH1 0x17 DUP4 PUSH2 0x19EE JUMP JUMPDEST SWAP2 POP PUSH2 0x1B6E DUP3 PUSH2 0x1B2F JUMP JUMPDEST PUSH1 0x20 DUP3 ADD SWAP1 POP SWAP2 SWAP1 POP JUMP JUMPDEST PUSH0 PUSH1 0x20 DUP3 ADD SWAP1 POP DUP2 DUP2 SUB PUSH0 DUP4 ADD MSTORE PUSH2 0x1B90 DUP2 PUSH2 0x1B57 JUMP JUMPDEST SWAP1 POP SWAP2 SWAP1 POP JUMP JUMPDEST PUSH32 0x53656E742076616C756520646F6573206E6F74206D6174636820746865207370 PUSH0 DUP3 ADD MSTORE PUSH32 0x6563696669656420616D6F756E74000000000000000000000000000000000000 PUSH1 0x20 DUP3 ADD MSTORE POP JUMP JUMPDEST PUSH0 PUSH2 0x1BF1 PUSH1 0x2E DUP4 PUSH2 0x19EE JUMP JUMPDEST SWAP2 POP PUSH2 0x1BFC DUP3 PUSH2 0x1B97 JUMP JUMPDEST PUSH1 0x40 DUP3 ADD SWAP1 POP SWAP2 SWAP1 POP JUMP JUMPDEST PUSH0 PUSH1 0x20 DUP3 ADD SWAP1 POP DUP2 DUP2 SUB PUSH0 DUP4 ADD MSTORE PUSH2 0x1C1E DUP2 PUSH2 0x1BE5 JUMP JUMPDEST SWAP1 POP SWAP2 SWAP1 POP JUMP JUMPDEST PUSH32 0x4E6F2066756E647320617661696C61626C650000000000000000000000000000 PUSH0 DUP3 ADD MSTORE POP JUMP JUMPDEST PUSH0 PUSH2 0x1C59 PUSH1 0x12 DUP4 PUSH2 0x19EE JUMP JUMPDEST SWAP2 POP PUSH2 0x1C64 DUP3 PUSH2 0x1C25 JUMP JUMPDEST PUSH1 0x20 DUP3 ADD SWAP1 POP SWAP2 SWAP1 POP JUMP JUMPDEST PUSH0 PUSH1 0x20 DUP3 ADD SWAP1 POP DUP2 DUP2 SUB PUSH0 DUP4 ADD MSTORE PUSH2 0x1C86 DUP2 PUSH2 0x1C4D JUMP JUMPDEST SWAP1 POP SWAP2 SWAP1 POP JUMP JUMPDEST PUSH32 0x4E487B7100000000000000000000000000000000000000000000000000000000 PUSH0 MSTORE PUSH1 0x11 PUSH1 0x4 MSTORE PUSH1 0x24 PUSH0 REVERT JUMPDEST PUSH0 PUSH2 0x1CC4 DUP3 PUSH2 0x15FE JUMP JUMPDEST SWAP2 POP PUSH32 0xFFFFFFFFFFFFFFFFFFFFFFFFFFFFFFFFFFFFFFFFFFFFFFFFFFFFFFFFFFFFFFFF DUP3 SUB PUSH2 0x1CF6 JUMPI PUSH2 0x1CF5 PUSH2 0x1C8D JUMP JUMPDEST JUMPDEST PUSH1 0x1 DUP3 ADD SWAP1 POP SWAP2 SWAP1 POP JUMP JUMPDEST PUSH32 0x4E487B7100000000000000000000000000000000000000000000000000000000 PUSH0 MSTORE PUSH1 0x22 PUSH1 0x4 MSTORE PUSH1 0x24 PUSH0 REVERT JUMPDEST PUSH0 PUSH1 0x2 DUP3 DIV SWAP1 POP PUSH1 0x1 DUP3 AND DUP1 PUSH2 0x1D45 JUMPI PUSH1 0x7F DUP3 AND SWAP2 POP JUMPDEST PUSH1 0x20 DUP3 LT DUP2 SUB PUSH2 0x1D58 JUMPI PUSH2 0x1D57 PUSH2 0x1D01 JUMP JUMPDEST JUMPDEST POP SWAP2 SWAP1 POP JUMP JUMPDEST PUSH0 DUP2 SWAP1 POP DUP2 PUSH0 MSTORE PUSH1 0x20 PUSH0 KECCAK256 SWAP1 POP SWAP2 SWAP1 POP JUMP JUMPDEST PUSH0 PUSH1 0x20 PUSH1 0x1F DUP4 ADD DIV SWAP1 POP SWAP2 SWAP1 POP JUMP JUMPDEST PUSH0 DUP3 DUP3 SHL SWAP1 POP SWAP3 SWAP2 POP POP JUMP JUMPDEST PUSH0 PUSH1 0x8 DUP4 MUL PUSH2 0x1DBA PUSH32 0xFFFFFFFFFFFFFFFFFFFFFFFFFFFFFFFFFFFFFFFFFFFFFFFFFFFFFFFFFFFFFFFF DUP3 PUSH2 0x1D7F JUMP JUMPDEST PUSH2 0x1DC4 DUP7 DUP4 PUSH2 0x1D7F JUMP JUMPDEST SWAP6 POP DUP1 NOT DUP5 AND SWAP4 POP DUP1 DUP7 AND DUP5 OR SWAP3 POP POP POP SWAP4 SWAP3 POP POP POP JUMP JUMPDEST PUSH0 DUP2 SWAP1 POP SWAP2 SWAP1 POP JUMP JUMPDEST PUSH0 PUSH2 0x1DFF PUSH2 0x1DFA PUSH2 0x1DF5 DUP5 PUSH2 0x15FE JUMP JUMPDEST PUSH2 0x1DDC JUMP JUMPDEST PUSH2 0x15FE JUMP JUMPDEST SWAP1 POP SWAP2 SWAP1 POP JUMP JUMPDEST PUSH0 DUP2 SWAP1 POP SWAP2 SWAP1 POP JUMP JUMPDEST PUSH2 0x1E18 DUP4 PUSH2 0x1DE5 JUMP JUMPDEST PUSH2 0x1E2C PUSH2 0x1E24 DUP3 PUSH2 0x1E06 JUMP JUMPDEST DUP5 DUP5 SLOAD PUSH2 0x1D8B JUMP JUMPDEST DUP3 SSTORE POP POP POP POP JUMP JUMPDEST PUSH0 SWAP1 JUMP JUMPDEST PUSH2 0x1E40 PUSH2 0x1E34 JUMP JUMPDEST PUSH2 0x1E4B DUP2 DUP5 DUP5 PUSH2 0x1E0F JUMP JUMPDEST POP POP POP JUMP JUMPDEST JUMPDEST DUP2 DUP2 LT ISZERO PUSH2 0x1E6E JUMPI PUSH2 0x1E63 PUSH0 DUP3 PUSH2 0x1E38 JUMP JUMPDEST PUSH1 0x1 DUP2 ADD SWAP1 POP PUSH2 0x1E51 JUMP JUMPDEST POP POP JUMP JUMPDEST PUSH1 0x1F DUP3 GT ISZERO PUSH2 0x1EB3 JUMPI PUSH2 0x1E84 DUP2 PUSH2 0x1D5E JUMP JUMPDEST PUSH2 0x1E8D DUP5 PUSH2 0x1D70 JUMP JUMPDEST DUP2 ADD PUSH1 0x20 DUP6 LT ISZERO PUSH2 0x1E9C JUMPI DUP2 SWAP1 POP JUMPDEST PUSH2 0x1EB0 PUSH2 0x1EA8 DUP6 PUSH2 0x1D70 JUMP JUMPDEST DUP4 ADD DUP3 PUSH2 0x1E50 JUMP JUMPDEST POP POP JUMPDEST POP POP POP JUMP JUMPDEST PUSH0 DUP3 DUP3 SHR SWAP1 POP SWAP3 SWAP2 POP POP JUMP JUMPDEST PUSH0 PUSH2 0x1ED3 PUSH0 NOT DUP5 PUSH1 0x8 MUL PUSH2 0x1EB8 JUMP JUMPDEST NOT DUP1 DUP4 AND SWAP2 POP POP SWAP3 SWAP2 POP POP JUMP JUMPDEST PUSH0 PUSH2 0x1EEB DUP4 DUP4 PUSH2 0x1EC4 JUMP JUMPDEST SWAP2 POP DUP3 PUSH1 0x2 MUL DUP3 OR SWAP1 POP SWAP3 SWAP2 POP POP JUMP JUMPDEST PUSH2 0x1F04 DUP3 PUSH2 0x19E4 JUMP JUMPDEST PUSH8 0xFFFFFFFFFFFFFFFF DUP2 GT ISZERO PUSH2 0x1F1D JUMPI PUSH2 0x1F1C PUSH2 0x17BA JUMP JUMPDEST JUMPDEST PUSH2 0x1F27 DUP3 SLOAD PUSH2 0x1D2E JUMP JUMPDEST PUSH2 0x1F32 DUP3 DUP3 DUP6 PUSH2 0x1E72 JUMP JUMPDEST PUSH0 PUSH1 0x20 SWAP1 POP PUSH1 0x1F DUP4 GT PUSH1 0x1 DUP2 EQ PUSH2 0x1F63 JUMPI PUSH0 DUP5 ISZERO PUSH2 0x1F51 JUMPI DUP3 DUP8 ADD MLOAD SWAP1 POP JUMPDEST PUSH2 0x1F5B DUP6 DUP3 PUSH2 0x1EE0 JUMP JUMPDEST DUP7 SSTORE POP PUSH2 0x1FC2 JUMP JUMPDEST PUSH1 0x1F NOT DUP5 AND PUSH2 0x1F71 DUP7 PUSH2 0x1D5E JUMP JUMPDEST PUSH0 JUMPDEST DUP3 DUP2 LT ISZERO PUSH2 0x1F98 JUMPI DUP5 DUP10 ADD MLOAD DUP3 SSTORE PUSH1 0x1 DUP3 ADD SWAP2 POP PUSH1 0x20 DUP6 ADD SWAP5 POP PUSH1 0x20 DUP2 ADD SWAP1 POP PUSH2 0x1F73 JUMP JUMPDEST DUP7 DUP4 LT ISZERO PUSH2 0x1FB5 JUMPI DUP5 DUP10 ADD MLOAD PUSH2 0x1FB1 PUSH1 0x1F DUP10 AND DUP3 PUSH2 0x1EC4 JUMP JUMPDEST DUP4 SSTORE POP JUMPDEST PUSH1 0x1 PUSH1 0x2 DUP9 MUL ADD DUP9 SSTORE POP POP POP JUMPDEST POP POP POP POP POP POP JUMP JUMPDEST PUSH0 PUSH1 0x60 DUP3 ADD SWAP1 POP PUSH2 0x1FDD PUSH0 DUP4 ADD DUP7 PUSH2 0x1607 JUMP JUMPDEST PUSH2 0x1FEA PUSH1 0x20 DUP4 ADD DUP6 PUSH2 0x19D5 JUMP JUMPDEST PUSH2 0x1FF7 PUSH1 0x40 DUP4 ADD DUP5 PUSH2 0x1607 JUMP JUMPDEST SWAP5 SWAP4 POP POP POP POP JUMP JUMPDEST PUSH32 0x4170706C69636174696F6E206E6F742076657269666965642079657400000000 PUSH0 DUP3 ADD MSTORE POP JUMP JUMPDEST PUSH0 PUSH2 0x2033 PUSH1 0x1C DUP4 PUSH2 0x19EE JUMP JUMPDEST SWAP2 POP PUSH2 0x203E DUP3 PUSH2 0x1FFF JUMP JUMPDEST PUSH1 0x20 DUP3 ADD SWAP1 POP SWAP2 SWAP1 POP JUMP JUMPDEST PUSH0 PUSH1 0x20 DUP3 ADD SWAP1 POP DUP2 DUP2 SUB PUSH0 DUP4 ADD MSTORE PUSH2 0x2060 DUP2 PUSH2 0x2027 JUMP JUMPDEST SWAP1 POP SWAP2 SWAP1 POP JUMP JUMPDEST PUSH32 0x416C7265616479207369676E6564000000000000000000000000000000000000 PUSH0 DUP3 ADD MSTORE POP JUMP JUMPDEST PUSH0 PUSH2 0x209B PUSH1 0xE DUP4 PUSH2 0x19EE JUMP JUMPDEST SWAP2 POP PUSH2 0x20A6 DUP3 PUSH2 0x2067 JUMP JUMPDEST PUSH1 0x20 DUP3 ADD SWAP1 POP SWAP2 SWAP1 POP JUMP JUMPDEST PUSH0 PUSH1 0x20 DUP3 ADD SWAP1 POP DUP2 DUP2 SUB PUSH0 DUP4 ADD MSTORE PUSH2 0x20C8 DUP2 PUSH2 0x208F JUMP JUMPDEST SWAP1 POP SWAP2 SWAP1 POP JUMP JUMPDEST PUSH0 PUSH2 0x20D9 DUP3 PUSH2 0x1938 JUMP JUMPDEST SWAP2 POP PUSH1 0xFF DUP3 SUB PUSH2 0x20EC JUMPI PUSH2 0x20EB PUSH2 0x1C8D JUMP JUMPDEST JUMPDEST PUSH1 0x1 DUP3 ADD SWAP1 POP SWAP2 SWAP1 POP JUMP JUMPDEST PUSH0 PUSH1 0x40 DUP3 ADD SWAP1 POP PUSH2 0x210A PUSH0 DUP4 ADD DUP6 PUSH2 0x1607 JUMP JUMPDEST PUSH2 0x2117 PUSH1 0x20 DUP4 ADD DUP5 PUSH2 0x19D5 JUMP JUMPDEST SWAP4 SWAP3 POP POP POP JUMP JUMPDEST PUSH32 0x4F6E6C792077616C6C65742074686174207375626D6974746564207468652061 PUSH0 DUP3 ADD MSTORE PUSH32 0x70706C69636174696F6E2063616E20636C61696D000000000000000000000000 PUSH1 0x20 DUP3 ADD MSTORE POP JUMP JUMPDEST PUSH0 PUSH2 0x2178 PUSH1 0x34 DUP4 PUSH2 0x19EE JUMP JUMPDEST SWAP2 POP PUSH2 0x2183 DUP3 PUSH2 0x211E JUMP JUMPDEST PUSH1 0x40 DUP3 ADD SWAP1 POP SWAP2 SWAP1 POP JUMP JUMPDEST PUSH0 PUSH1 0x20 DUP3 ADD SWAP1 POP DUP2 DUP2 SUB PUSH0 DUP4 ADD MSTORE PUSH2 0x21A5 DUP2 PUSH2 0x216C JUMP JUMPDEST SWAP1 POP SWAP2 SWAP1 POP JUMP JUMPDEST PUSH32 0x4170706C69636174696F6E206E6F7420617070726F7665640000000000000000 PUSH0 DUP3 ADD MSTORE POP JUMP JUMPDEST PUSH0 PUSH2 0x21E0 PUSH1 0x18 DUP4 PUSH2 0x19EE JUMP JUMPDEST SWAP2 POP PUSH2 0x21EB DUP3 PUSH2 0x21AC JUMP JUMPDEST PUSH1 0x20 DUP3 ADD SWAP1 POP SWAP2 SWAP1 POP JUMP JUMPDEST PUSH0 PUSH1 0x20 DUP3 ADD SWAP1 POP DUP2 DUP2 SUB PUSH0 DUP4 ADD MSTORE PUSH2 0x220D DUP2 PUSH2 0x21D4 JUMP JUMPDEST SWAP1 POP SWAP2 SWAP1 POP JUMP JUMPDEST PUSH32 0x416C6C6F77616E636520616C726561647920636C61696D656400000000000000 PUSH0 DUP3 ADD MSTORE POP JUMP JUMPDEST PUSH0 PUSH2 0x2248 PUSH1 0x19 DUP4 PUSH2 0x19EE JUMP JUMPDEST SWAP2 POP PUSH2 0x2253 DUP3 PUSH2 0x2214 JUMP JUMPDEST PUSH1 0x20 DUP3 ADD SWAP1 POP SWAP2 SWAP1 POP JUMP JUMPDEST PUSH0 PUSH1 0x20 DUP3 ADD SWAP1 POP DUP2 DUP2 SUB PUSH0 DUP4 ADD MSTORE PUSH2 0x2275 DUP2 PUSH2 0x223C JUMP JUMPDEST SWAP1 POP SWAP2 SWAP1 POP JUMP JUMPDEST PUSH32 0x496E73756666696369656E742066756E64730000000000000000000000000000 PUSH0 DUP3 ADD MSTORE POP JUMP JUMPDEST PUSH0 PUSH2 0x22B0 PUSH1 0x12 DUP4 PUSH2 0x19EE JUMP JUMPDEST SWAP2 POP PUSH2 0x22BB DUP3 PUSH2 0x227C JUMP JUMPDEST PUSH1 0x20 DUP3 ADD SWAP1 POP SWAP2 SWAP1 POP JUMP JUMPDEST PUSH0 PUSH1 0x20 DUP3 ADD SWAP1 POP DUP2 DUP2 SUB PUSH0 DUP4 ADD MSTORE PUSH2 0x22DD DUP2 PUSH2 0x22A4 JUMP JUMPDEST SWAP1 POP SWAP2 SWAP1 POP JUMP JUMPDEST PUSH0 PUSH1 0x40 DUP3 ADD SWAP1 POP PUSH2 0x22F7 PUSH0 DUP4 ADD DUP6 PUSH2 0x19D5 JUMP JUMPDEST PUSH2 0x2304 PUSH1 0x20 DUP4 ADD DUP5 PUSH2 0x168D JUMP JUMPDEST SWAP4 SWAP3 POP POP POP JUMP INVALID LOG2 PUSH5 0x6970667358 0x22 SLT KECCAK256 0xBE NUMBER 0x28 MSTORE8 PREVRANDAO 0xEA EXTCODESIZE PUSH30 0x34411C24FD1309BEDEB13679D1B2FDD2AA7D6F142802F54264736F6C6343 STOP ADDMOD BYTE STOP CALLER "
				},
				"gasEstimates": {
					"creation": {
						"codeDepositCost": "1805000",
						"executionCost": "infinite",
						"totalCost": "infinite"
					},
					"external": {
						"DEFAULT_ADMIN_ROLE()": "375",
						"applicationCount()": "2491",
						"applications(uint256)": "infinite",
						"approvals(uint256,address)": "3138",
						"claimAllowance(uint256)": "infinite",
						"fundContract(uint256)": "infinite",
						"getBalance()": "380",
						"getRoleAdmin(bytes32)": "infinite",
						"grantReviewerRole(address)": "infinite",
						"grantRole(bytes32,address)": "infinite",
						"hasRole(bytes32,address)": "3233",
						"isReviewer(address)": "3108",
						"renounceRole(bytes32,address)": "infinite",
						"requiredApprovals()": "2489",
						"revokeRole(bytes32,address)": "infinite",
						"signApplication(uint256)": "infinite",
						"submitApplication(string,uint256)": "infinite",
						"supportsInterface(bytes4)": "741",
						"verifyApplication(uint256)": "infinite",
						"withdraw()": "infinite"
					}
				},
				"methodIdentifiers": {
					"DEFAULT_ADMIN_ROLE()": "a217fddf",
					"applicationCount()": "e2aad4a0",
					"applications(uint256)": "dfefadff",
					"approvals(uint256,address)": "ab2850da",
					"claimAllowance(uint256)": "f9f8d761",
					"fundContract(uint256)": "3519a2f8",
					"getBalance()": "12065fe0",
					"getRoleAdmin(bytes32)": "248a9ca3",
					"grantReviewerRole(address)": "da41f68e",
					"grantRole(bytes32,address)": "2f2ff15d",
					"hasRole(bytes32,address)": "91d14854",
					"isReviewer(address)": "fdc6258a",
					"renounceRole(bytes32,address)": "36568abe",
					"requiredApprovals()": "99c1aadc",
					"revokeRole(bytes32,address)": "d547741f",
					"signApplication(uint256)": "c012c85b",
					"submitApplication(string,uint256)": "8adac838",
					"supportsInterface(bytes4)": "01ffc9a7",
					"verifyApplication(uint256)": "2498a2c0",
					"withdraw()": "3ccfd60b"
				}
			},
			"storageLayout": {
				"storage": [
					{
						"astId": 26,
						"contract": "allowance.sol:AllowanceClaim",
						"label": "_roles",
						"offset": 0,
						"slot": "0",
						"type": "t_mapping(t_bytes32,t_struct(RoleData)21_storage)"
					},
					{
						"astId": 474,
						"contract": "allowance.sol:AllowanceClaim",
						"label": "applicationCount",
						"offset": 0,
						"slot": "1",
						"type": "t_uint256"
					},
					{
						"astId": 476,
						"contract": "allowance.sol:AllowanceClaim",
						"label": "requiredApprovals",
						"offset": 0,
						"slot": "2",
						"type": "t_uint8"
					},
					{
						"astId": 481,
						"contract": "allowance.sol:AllowanceClaim",
						"label": "applications",
						"offset": 0,
						"slot": "3",
						"type": "t_mapping(t_uint256,t_struct(Application)472_storage)"
					},
					{
						"astId": 487,
						"contract": "allowance.sol:AllowanceClaim",
						"label": "approvals",
						"offset": 0,
						"slot": "4",
						"type": "t_mapping(t_uint256,t_mapping(t_address,t_bool))"
					}
				],
				"types": {
					"t_address": {
						"encoding": "inplace",
						"label": "address",
						"numberOfBytes": "20"
					},
					"t_bool": {
						"encoding": "inplace",
						"label": "bool",
						"numberOfBytes": "1"
					},
					"t_bytes32": {
						"encoding": "inplace",
						"label": "bytes32",
						"numberOfBytes": "32"
					},
					"t_mapping(t_address,t_bool)": {
						"encoding": "mapping",
						"key": "t_address",
						"label": "mapping(address => bool)",
						"numberOfBytes": "32",
						"value": "t_bool"
					},
					"t_mapping(t_bytes32,t_struct(RoleData)21_storage)": {
						"encoding": "mapping",
						"key": "t_bytes32",
						"label": "mapping(bytes32 => struct AccessControl.RoleData)",
						"numberOfBytes": "32",
						"value": "t_struct(RoleData)21_storage"
					},
					"t_mapping(t_uint256,t_mapping(t_address,t_bool))": {
						"encoding": "mapping",
						"key": "t_uint256",
						"label": "mapping(uint256 => mapping(address => bool))",
						"numberOfBytes": "32",
						"value": "t_mapping(t_address,t_bool)"
					},
					"t_mapping(t_uint256,t_struct(Application)472_storage)": {
						"encoding": "mapping",
						"key": "t_uint256",
						"label": "mapping(uint256 => struct AllowanceClaim.Application)",
						"numberOfBytes": "32",
						"value": "t_struct(Application)472_storage"
					},
					"t_string_storage": {
						"encoding": "bytes",
						"label": "string",
						"numberOfBytes": "32"
					},
					"t_struct(Application)472_storage": {
						"encoding": "inplace",
						"label": "struct AllowanceClaim.Application",
						"members": [
							{
								"astId": 457,
								"contract": "allowance.sol:AllowanceClaim",
								"label": "applicant",
								"offset": 0,
								"slot": "0",
								"type": "t_address"
							},
							{
								"astId": 459,
								"contract": "allowance.sol:AllowanceClaim",
								"label": "ic",
								"offset": 0,
								"slot": "1",
								"type": "t_string_storage"
							},
							{
								"astId": 461,
								"contract": "allowance.sol:AllowanceClaim",
								"label": "amount",
								"offset": 0,
								"slot": "2",
								"type": "t_uint256"
							},
							{
								"astId": 463,
								"contract": "allowance.sol:AllowanceClaim",
								"label": "verified",
								"offset": 0,
								"slot": "3",
								"type": "t_bool"
							},
							{
								"astId": 465,
								"contract": "allowance.sol:AllowanceClaim",
								"label": "approvals",
								"offset": 1,
								"slot": "3",
								"type": "t_uint8"
							},
							{
								"astId": 467,
								"contract": "allowance.sol:AllowanceClaim",
								"label": "approved",
								"offset": 2,
								"slot": "3",
								"type": "t_bool"
							},
							{
								"astId": 469,
								"contract": "allowance.sol:AllowanceClaim",
								"label": "rejected",
								"offset": 3,
								"slot": "3",
								"type": "t_bool"
							},
							{
								"astId": 471,
								"contract": "allowance.sol:AllowanceClaim",
								"label": "claimed",
								"offset": 4,
								"slot": "3",
								"type": "t_bool"
							}
						],
						"numberOfBytes": "128"
					},
					"t_struct(RoleData)21_storage": {
						"encoding": "inplace",
						"label": "struct AccessControl.RoleData",
						"members": [
							{
								"astId": 18,
								"contract": "allowance.sol:AllowanceClaim",
								"label": "hasRole",
								"offset": 0,
								"slot": "0",
								"type": "t_mapping(t_address,t_bool)"
							},
							{
								"astId": 20,
								"contract": "allowance.sol:AllowanceClaim",
								"label": "adminRole",
								"offset": 0,
								"slot": "1",
								"type": "t_bytes32"
							}
						],
						"numberOfBytes": "64"
					},
					"t_uint256": {
						"encoding": "inplace",
						"label": "uint256",
						"numberOfBytes": "32"
					},
					"t_uint8": {
						"encoding": "inplace",
						"label": "uint8",
						"numberOfBytes": "1"
					}
				}
			},
			"userdoc": {
				"kind": "user",
				"methods": {},
				"version": 1
			}
		}
	}
}